:020000040800F2
:1000000000500020017C01089D7C0108F9FC0008DB
:100010009D7C01089D7C01089D7C0108000000007A
:100020000000000000000000000000009D7C0108AE
:100030009D7C0108000000009D7C010803A40008CD
:100040009D7C01089D7C01089D7C01089D7C010828
:100050009D7C01089D7C01082FA7000839A7000896
:1000600037A7000835A7000833A70008396500083E
:10007000296500081965000809650008F964000889
:10008000E5640008D16400089D7C01089D7C01089E
:100090009D7C01089D7C01089D7C010831A700081A
:1000A0009D7C01087D0601089D7C01086D06010804
:1000B0005D0601084D0601083D060108DF6B0008DA
:1000C000E56B0008D56B0008DB6B00089D7C010820
:1000D0009D7C010841A4000835A400089D7C01080E
:1000E0002DA700089D7C01089D7C010800000000F0
:1000F0000000000000000000000000000000000000
:0C01000000000000000000005FF808F1A3
:100110002DE9F04F0B4B0C4D0C4AC5F8B8340023B9
:1001200010680B49A1B08842C5F8BC3416D11360E1
:1001300062B6084B186812F0D7FF074B1B68984748
:10014000FEE700BF4594000800060020F04F0020A5
:10015000EFBEADDE00F0FF1F04F0FF1F0A930B930C
:100160000C934FF4E013BB4C0D93236843F480339E
:100170002360A36943F01003A361236803F40033F1
:100180000B930A9B01330A930B9B1BB90A9BB3F594
:10019000A06FF2D1236813F4003300F09A82022397
:1001A0000C93AD4BAD4F1A6842F010021A601A68FA
:1001B00022F003021A601A6842F002021A606368B1
:1001C000636063686360636843F480636360A44B47
:1001D0001A68043B22F070425A60A24A3A60626890
:1001E00022F47C1262605A6842F000425A60DA6877
:1001F00022F40042DA609B681E0449BF9A4B4FF418
:10020000E0133B604FF480130D930C9B012B00F027
:100210007882022B05D10D9B6268134343F480332F
:100220006360236843F08073236023689801FCD5E2
:10023000636823F003036360636843F00203636051
:10024000636803F00C03082BFAD16368DFF86C8253
:1002500003F00C03042B00F05882082B00F05782A7
:10026000804BC8F800306368DFF85492C3F303137F
:1002700019F80320D8F80030DFF848B2D340C8F8A6
:1002800000307A4B4FF6FF72CBF80C30A3690DF1BA
:10029000800A43F00103A361636A636A744E43F00A
:1002A00080736362A369304643F01C03A36100239B
:1002B00015932AF82C2D514612F058FD51466D48E1
:1002C00012F054FD51466C4812F050FD02214FF4DB
:1002D00000728DF846101021ADF844208DF84710BB
:1002E0003046326111A912F041FD644950464A6816
:1002F00042F000724A6012F0ECFC159B604A3046F6
:10030000B3FBF2F34FF47A72C5F8C034D8F800307A
:100310004FF0010CB3FBF2F35A4A013B5360F02358
:100320008BF82330002393600723DFF89CE11360F0
:10033000554A09F10E01002331F8026F46FA03F81D
:1003400018F0010F18BF0CFA03F803F101031EBFE8
:100350001060A2F804800832102BEFD100F5806005
:100360007045E8D13B683F4A934240F0E281012367
:1003700085F8C43409F07DFD18B910F027F80FF0A6
:1003800009FD0FF045FE0522404941481AF04AFB9D
:1003900018B110F01BF80FF0FDFC95F8C5343D4F77
:1003A00043F0010385F8C5343B4B07F1050A9A7801
:1003B0003A4B1A703A4B3B4A1B689046136095F8CB
:1003C000CA3485F8C6340023D85D4FEA830B5E1C1F
:1003D000002800F0B48103930AF0B6F8039B4AF8B2
:1003E000230010B10523C671837112215AF80B0046
:1003F0000AF0D0F8032E3346E6D1002108460AF071
:100400002BF9002101200AF027F9002102200AF02F
:1004100023F9012102200AF01FF9A369002143F00A
:100420000103A361402220481AF0B9FA4FF0FF33CC
:100430001E4AC5F818356420C2F8033009F0D7FF0A
:10044000A02200211A481AF0AAFA0024194D1A4EC7
:100450003CE000BF0010024000200240FC000020F1
:100460000410014000127A00001BB7000005FA05D5
:1004700000080140000C0140001001400000014054
:1004800040420F0010E000E0341C002044C9010885
:1004900005200020C70A0020002000208421002021
:1004A000CC20002000290020D80A0020180B0020B2
:1004B000DC3A002058C8010810AB010820000020D9
:1004C000F8AA010800ED00E0001401400023605983
:1004D00056F83310DA00884240F0348109EB020309
:1004E000187F103411F0CAFFE02CEFD1AB4AAC4CAE
:1004F0000021A4469146AB4E00250B5D01F10F0093
:10050000204406EB030A10F801EFBEF1000F05D0FE
:100510009AF80C70774508BF82F8587090F803E09D
:10052000BEF1000F04D0F75C774508BF82F8597020
:100530000135032DE7D1B2F8580040B10CEB0100B2
:1005400009EB83035065C3F8202502F517721C31AF
:100550003829D1D10424914F202200219248D8F883
:10056000005087F82C451AF01AFA00208D4B0246ED
:1005700093F80BE093F80AC04FF0FF092346039766
:1005800089498A4F05F04006D4571E2C8C7140F0E3
:10059000DF80002E00F0E480BCF1000F00F0E0806E
:1005A0000132042A01F10801EED110B1039A82F858
:1005B0002C357F4B15F4805F93F800A07D4BDFF85E
:1005C000449283F800A07C4F7C4C7D4E00F0CE809E
:1005D000B88816F0C7FE7B4BC9F800002360708A0C
:1005E00016F0C0FE784B794C1860788816F0BAFE89
:1005F000774B00251860388816F0B4FE754B1860EC
:10060000608BC0F5FA6016F0B1FE734B248B186056
:10061000FB88724AE01A1C44714BA4B280B210806D
:100620001C80A0F57A7016F0A1FE6E4B1860C4F520
:10063000FA6016F09BFE6C4B6C4C1860AAF1170325
:10064000022B257000F2E2804FF0000BDFF8B8A11A
:1006500005EB0A03594655F80A00049317F06EF8A3
:10066000049B002800F08C80D8F8003013F4805AE6
:1006700040F0ED800023D9F800105D4A42F82310C5
:100680000133082BFAD1B6F81480BAF1000F01D06B
:10069000B7F80480B378042B05D14FF4805009F0EB
:1006A00007F84FF000082378C02200215148069334
:1006B0001AF075F93779B378003718BF0127042B82
:1006C00000F2EA80DFE813F02206E8002406F400D6
:1006D0001B06226842F0010222600A93236803F09D
:1006E00002030B930A9B01330A930B9B1BB90A9BD2
:1006F000B3F5A06FF2D123689F0701D501234FE521
:10070000FEE7636843F460138AE53B68A9E5636824
:100710006268C3F38343D10303F1020302D4364A70
:1007200053439EE5626812F4003F3A6818BF5208CE
:10073000F6E7324A93427FF41DAE022318E64AF8E8
:10074000230057E60133042B7FF4C2AE0020C8E635
:100750001F2C7FF425AF1EB1BEF1000F7FF420AF38
:10076000013B81F80690DBB2012019E7B08A16F050
:10077000F9FDC9F80000308A16F0F4FD20602EE77C
:100780001F4A05EB020E0FCB8EE80F0023781035C1
:100790000133802D23707FF45BAF65E700060020F6
:1007A00030AB0108F0260020EC2B002068AB0108DC
:1007B0008C21002080110020643C002000380020A3
:1007C000E837002000007A44FC1F0020D4280020D5
:1007D000BC1100209C110020C411002096110020A3
:1007E000B8110020B4110020C011002004380020EE
:1007F0004C2700207427002000093D00001BB70093
:10080000C8110020BC2800204C1D0020244B13F8E8
:100810003A2003EBCA0A082A227088BF0822DAF8B5
:1008200004C088BF2270BCF1000F3FF41DAF00254B
:10083000DFF878A023789D42BFF616AF2B0103EBBB
:100840000A0E63440FCB01358EE80F00F2E72378E0
:10085000012B7FF60FAF4FF07C58124D05EB0313C1
:1008600003F1100B1035AB453FF404AF414655F88A
:100870000C0C16F0CFFD414645F80C0C55F8100C49
:1008800016F0C8FD414645F8100C55F8080C16F056
:10089000C1FD45F8080CE5E7034CA1460BE000BF9D
:1008A000E0B10108CC1100206F120339C8110020FB
:1008B000B94CDFF83893B94AB94B21461A60B94AA6
:1008C000B94B4846002F18BF1346B84A002513609D
:1008D00016F098FC01464FF07A5016F04FFEB449DE
:1008E0000590204616F096FDB24CDFF804B3079051
:1008F000069BAB4240F36C8505EB0B035E79002150
:1009000030460FF081FE0490002840F00485AA4A8A
:10091000A34B1A60A34AA54B1A60A84CA84A94F8A6
:10092000C534079243F0040384F8C534136813F008
:10093000010600F070850025FF2294F82D75A14B6B
:100940002946384683F840501D605D609D60DD6338
:1009500083F8412083F8422083F8435083F84450C1
:1009600083F845500FF050FE064690B30368914956
:100970006A18507C18B15268934200F041851835CE
:10098000C02DF5D10025C4F83C6584F830553846B3
:1009900009F0DAFD10B10223C571837100252A2107
:1009A00009F0F8FD884A0021304609F025FC874B04
:1009B000874AC4F84035874B111F3046C4F8443588
:1009C000C4F8485509F06CFC2A467179306810F07B
:1009D000B1FAB4F81E7694F81A66A4F82076304678
:1009E000002F40F0668509F0AFFD94F81B26C4F88F
:1009F0002406003218BF012284F8282650B1242290
:100A000094F81C368271002BC7710CBF122116217D
:100A100009F0C0FD002009F0F3FD4FF000096E4B16
:100A20000020C4F8483605F035FD012005F032FD00
:100A30006A4B6B4803F1200853F8056C6EB313F949
:100A4000092CA11891F84C7691F84EE691F850C611
:100A500000EB0215991E11F801AFBA4591F802A0FA
:100A600008BF2F71F24591F804A008BF85F805E092
:100A7000E24508BF85F806C08B42ECD1120181180F
:100A80000D7955B14D7945B18D7935B186505A7989
:100A900081F80C90CA719A790A7210339845CBD1BB
:100AA0004F4D11F09BFD11F099FD287E11F0E6FCF1
:100AB00001232A7E02F01F015209022A03FA01F3E0
:100AC00000F02485032A00F02785287D09F03CFDED
:100AD000064618B1122383710223C371687D09F0A1
:100AE00033FD18B1132383710223C371A87D09F06C
:100AF0002BFD18B1142383710223C3711B213046CF
:100B000009F048FD687D09F01FFD072109F042FD4D
:100B1000A87D09F019FD1B2109F03CFD2A69314B24
:100B20009A4240F0FF8403F56043D96841F4805154
:100B3000D960D96821F48051D9602B7F002B00F057
:100B40000E8500231846118801F4415141F4457186
:100B50000B4303431380938B23F400631B041B0C90
:100B600093830723138213889BB243F040031380BF
:100B700094F8C434032B40D11F200AF052F800230C
:100B8000194A02EBC30191F90210022901F0F58321
:100B90000133042BF5D12DE0ACC5A737E15F010887
:100BA00070310020615F01080D6001087431002080
:100BB0006F12833A74270020635F0108000600204B
:100BC00000290020943A002040420F00F55D010802
:100BD000440B0020315F0108F026002075AB0108AE
:100BE0000016002000300140C62B0020ACC5A736FF
:100BF000E837002002200AF014F808F03BFC01203E
:100C000005F0A2FC2C2009F09FFC039BC3F85406BE
:100C10009F238DF84430002332208DF845308DF825
:100C200046308DF8473009F0E2FB039BD3F85406B9
:100C300009F0D2FC15AA042311A9BC4809F09EFDB5
:100C4000039BD3F8540609F0CCFC9DF856309DF870
:100C500055201B0243EA02439DF857201343B44A30
:100C6000934223D0322009F0C2FB039BD3F85406F1
:100C700009F0B2FCF521AD4809F0AEFDFF21AB480B
:100C800009F0AAFD039B8DF85400D3F8540609F02F
:100C9000A8FC9DF85430702B08D1039B93F8C43402
:100CA000022B03D10323039A82F8C434A14B5F794A
:100CB0009E797D1E6A4206F1FF3E6A41DEF1000325
:100CC00043EB0E0384F85C36079B84F858261D68B6
:100CD0002B0400F1488415F0007505D0964BDD7AA1
:100CE000A5F108004542454114220021934884F8AB
:100CF0005A5619F054FE012F04BF94F8593684F85F
:100D000060361DB194F85B3684F86F3694F85E3621
:100D10001BB194F85F3684F86A36012E08BF94F848
:100D20005D36864D08BF84F8653600232E464FF0A9
:100D3000070B1F469946DFF8248208F1940A3078A1
:100D4000E8B109F001FC18B180F806B080F807900E
:100D5000002109F01FFC002331781AF813005A0013
:100D6000884240F0038408EB020393F895307370D7
:100D70000723337101237A1CB770F370D7B20BF1DC
:100D8000010B5FFA8BFBBBF10B0F06F10506D6D109
:100D9000002B00F0BB806A4E4920736843F4404347
:100DA000736011F06BFB674A674900234FF01C0E1C
:100DB000104688460EFB032CDCF804C08C4540F03E
:100DC000DC83DBB21C2101FB0303726919694FF05C
:100DD00000090A437261062283F819901A765A486C
:100DE00012F0E3F815A812F0B5F8584B022F15933E
:100DF00034BF4B4680231A934FF480731B934FF4F8
:100E000080631C9320231D934FF40053504E15A96B
:100E10004D4818971E931696CDF85C90CDF86490C7
:100E2000CDF87C9012F0A3F8012F94BF002201228C
:100E3000D8F80030474943F00103C8F800304B6848
:100E40004FF0070E23F4702323F4807343EA022348
:100E50004B608A68404B134043F4602343F0020325
:100E60008B60CA6A7B1E22F47002DBB242EA035333
:100E7000CB621F270123EA784AB395F80180581CFA
:100E8000B8F1090FC0B295F804C040F27C83A8F114
:100E90000A02D1F80C9002EB42020EFA02FA29EA99
:100EA0000A090CFA02F242EA0902CA60062B00F2B1
:100EB000778303F1FF3C4A6B0CEB8C0C07FA0CF3C5
:100EC00022EA030308FA0CF21A434A630346053583
:100ED000AE42D0D11F4B9A6842F480729A609A68F1
:100EE00042F001029A609A6842F008029A609A6899
:100EF0001107FCD49A6842F004029A60154B9A6874
:100F00005207FCD49A6842F4A0029A60D4F87C0696
:100F1000002841F03D82D4F88036002B41F0388221
:100F2000D4F88436002B41F0338219E000380040B9
:100F300015202000DE2E0020D4280020600C002088
:100F40000010024024000020080002404C24014010
:100F5000740C002000240140FDF7F1FFF8AA0108FD
:100F60000BF0ECFF30B90120022109F0B3FB0120A6
:100F700015F084FC94F8C53443F0020384F8C534BA
:100F80000EF0B4FFB04B18680DF01EFBAF4B1A8883
:100F9000AF4B1A80AF4B5A6B99460AB10BF0B6FFB4
:100FA000AD4BAE491B78AE4CD80001444A78AD49F0
:100FB0002260079A1268114009B1012222600021C3
:100FC00040F2DC55A84A22F8115001310829FAD123
:100FD0002268002A40F0018303F0EF02082AA34AA6
:100FE00040F040831178182B41F01001117001D1AD
:100FF0000DF0A6FA23689E4D002B40F03C83AB8990
:10100000002B40F072830121084609F025FB0021E6
:10101000084609F021FB0021022009F01DFB0A24EB
:10102000944D012009F082FA002009F07FFA19207E
:1010300009F0DDF92B68DF0302D4012009F0E0FAA2
:10104000192009F0D4F9002009F0DAFA013CE8D1BE
:101050002146204609F000FB2146012009F0FCFA58
:10106000854B864D587A16F081F9854916F0D2F9EC
:10107000844916F0C7F808F09CFD834B15AF186043
:10108000B9F8140016F072F90146804816F076FAA5
:10109000C5F8880613F02CF90123159310237C4A18
:1010A00016931368904613F4800F04BF794A159283
:1010B000DE005EBF159A42F010021592764A116862
:1010C000880748BF159A754844BF42F0C60215927A
:1010D0004A0748BF159A039044BF42F00802159290
:1010E000159A42F000611591017801F0EF06082E83
:1010F00001D00E2904D142F0006242F480521592D0
:10110000159ADE0354BF42F4005242F42042159275
:10111000159AD8044CBF42F0644242F04442159202
:101120009A0642BF159A42F4807215925E0742BF3A
:10113000159A42F400321592159A42F40020159047
:10114000580505D5564B1B7913B142F4C0121592C0
:101150004FF00109182902BF159B43F060731593E6
:1011600021463846E6B208F0C7FE70B1304615F0A9
:1011700038F950B9620957F8223006F01F0609FA0B
:1011800006F623EA060647F822600134252CE7D14B
:10119000DFF82CA197E803004FF419728AE80300E6
:1011A00000210AF1080019F0FAFB09F059FF0022AA
:1011B000DFF810E13B4BF4461A809A703A493B4BFA
:1011C0003B4E3C4C3C481960DFF8FC90338BDFF819
:1011D000FCB0C4F80490A06085F8F82819B2049017
:1011E0000AF51C7ADBF800002EF8121000F5967054
:1011F0004AF822000132122AF4D1D8F80000C204C1
:1012000058BFB6F92410ACF806102C49DFF8B4C06A
:1012100001F1500E0A78002A5AD18A7891F803A079
:10122000524555D2002A00F07082013A02EB820248
:1012300002EB820202F5617291F801A092B20AF10A
:10124000040A2CF81A2043E0A0200020AA20002045
:101250008C1500202820002080110020E0B101081A
:1012600048120020200010005821002065150020A1
:10127000B81A0020581E0020AC31002000060020C3
:1012800035FA8E3CDB0FC93FCC310020A889803A6B
:101290000029002001000010882100208C2100205E
:1012A000882C0020F02E0020A086010018180020B5
:1012B000D4280020C428002065DD0008641E00201A
:1012C0008C0C0020AC2E002069DD0008D42C0020FE
:1012D00004318E459ED1020740F13282307A0A28CD
:1012E00000F22782DFE810F022022202A504E604C1
:1012F0000A052A052A05B7052502F405220200245D
:10130000A14601274FF00008FFF7D5BAC24CF7E716
:10131000C24CFFF7C2BA304609F016F96B1C606187
:10132000DBB210B10322C37182711A2109F032F9C4
:10133000002F52D0BBF8000016F018F816F06CFA27
:10134000B74B4FF6FF7A1E68B6FBF0F353441B0C05
:10135000B6FBF3F60FB1B6FBF0FA9BF80230042BA4
:101360003FD1504615F0FEFFAB4916F053F8A06090
:101370000990304615F0F6FF494616F04BF8099BE8
:101380000890A849184616F045F8089A01461046F4
:1013900015F036FF9BF80330E06032460193049964
:1013A0001FFA8AF3CDF80080204614F079FE00235E
:1013B00018229D49AB4219D1002383F00103237405
:1013C00001231D44082D637404F118047FF490AACE
:1013D0000122964B1A70FFF7A0BA059816F08AFF03
:1013E000ACE7304615F0BEFF0799BEE702FB0310DD
:1013F00046686068864201D00133DBE70123DCE701
:101400001B8D874A9BB212680133B2FBF3F3884A03
:101410001370FFF7B7BA9A047FF5DBAA94F8182681
:10142000844B04F5A8651A7004F5C26816F8089094
:10143000002148460FF0E8F8074698B300224FF025
:10144000010A5FFA86FB05F80FBC45F8040C05F8A5
:101450000E2C05F80D2C05F810AC484609F074F870
:10146000D3445FFA8BFB18B180F806A080F807B070
:101470004FF0000B2A2109F08DF86F4A0021384601
:1014800008F0BAFE6D4B2A1D2B606D4B294638467D
:101490006B60C5F808B008F003FF5A4679793868E0
:1014A0000FF048FD0136082E05F11C05BED1FFF7EF
:1014B00090BA09F049F84021C4F840060546304684
:1014C0000FF0A2F80646CDB1C0B12423AB710123C1
:1014D0001A21EB71284609F05DF80021A4F8447642
:1014E00001915849544A91FBF7F192FBF7F389B205
:1014F00000919BB23146544814F0D2FD0023D4F839
:101500002C26138084F83D36FFF787BA4F4AD168FE
:101510000B43D360FFF7D9BA4C4A11690B431361EF
:10152000FFF7D3BA4A4B9A420BD103F5EC33196952
:1015300041F480411961196921F480411961FFF773
:10154000FCBA444B9A427FF4F8AA03F5EA331969CE
:1015500041F400411961196921F40041EEE70123CA
:101560000220FFF7F0BA0125FFF7BEBB01330A2BBB
:101570007FF4F3AB0023FFF7FABB0133072B7FF4B3
:1015800019AC00231EE40A6908EB480A0EFA0AF9AE
:1015900022EA09090CFA0AF242EA09020A6185E420
:1015A0000C2B0DD8DA1FD1F830C002EB820207FAFB
:1015B00002F32CEA030308FA02F21A430A6385E4F1
:1015C0000D3BCA6A03EB830307FA03FC22EA0C0211
:1015D00008FA03F31343CB6278E41F4A1F4912F859
:1015E00033E00244556881F800E0002D3FF4F4AC8C
:1015F00000221B4E7245BFF6EFACC2EBC2002918A9
:10160000D1F800C0871940F806C088880132B88038
:101610008979B971EEE700BF6F12833A2829303813
:101620002000002000007A44742700204C12002083
:10163000280400201427002040420F00855F010885
:10164000CD5D010820A107002C0C002000100240F5
:1016500000380040003C0040FCB00108591900204F
:101660005A1900200E2B3FF4BDAC1178192B21F034
:1016700010011170BBE400244FF0040B274EDFF87B
:10168000A0A005F1030818F8017F002F3FF4B7ACC4
:10169000384608F059FF013403467061E4B210B1D6
:1016A00080F806B0C4710021384603930EF0ACFFF9
:1016B0000746039B1A21184608F06CFF002F3FF4E1
:1016C0009EAC00226B8801929AFBF3F32A889BB2AE
:1016D00000923046124A394614F0E2FC0123082CED
:1016E000737406F11806CED189E400240D4F0E4E16
:1016F000A88915F037FE3A6801463019243408F0FD
:1017000069FBB4F5907FF3D17DE40AF1010A0AEB9D
:101710008A0A0AEB8A0A0AF561728DE57C3B002091
:1017200040420F006C2100207012002010F065FF75
:1017300030B9082007F0BCFF049BC4F80490A360F4
:10174000D8F8002051040BD51223237044F62063EF
:101750006380C24BC2496360C24BA360C24B196035
:1017600042F201031A4209D044F6206363809304D5
:1017700040F1D68308232370BC4B636096F8283071
:10178000217804338B42A8BF0B464FF0000AB84CB7
:10179000D10385F8443984F800A040F1528113F058
:1017A00021FA01232370B34B40F22A3293F8F1B0AF
:1017B0005146B14819F0F3F8BBF1000F00F0348145
:1017C000514658460EF020FFAC4B026804461A60A2
:1017D00082689946002A00F02781584608F0B4FE36
:1017E000C5F8480918B1282380F807A083711B2188
:1017F00008F0D0FE0023A24AD9F8001002F1180E1A
:101800005EF833004FEAC30C814240F0908362449B
:10181000107F10F033FED9F800009A4A03884FF089
:10182000000A23F001031B041B0C0380964BDFF816
:101830007CE21B68ADF83EA0934281BF03F1B77212
:10184000924902F55852B2FBF1F292BF002202F126
:10185000FF3292B2511CB3FBF1F38D49ADF83AA0BF
:10186000B3FBF1F303219BB2B3FBF1F14FEA410C5F
:10187000AEF800C0DFF838E28DF840A0AEF80010F6
:1018800020A921F8482DADF83C3010F060FE60230F
:10189000ADF846A0ADF848A0ADF84AA0ADF84CA010
:1018A000ADF850A0ADF84EA0ADF852A0ADF8443060
:1018B000E379D9F800005A0757BF0122042303F047
:1018C0000203ADF846204EBFADF848304FF48072A9
:1018D000ADF84C304FF0000358BFADF85020ADF8D4
:1018E0004A3011AA61790EF09BFD6179D9F80000A8
:1018F00010F000FED9F800206648B2F844304FF0EE
:10190000000B6FEA43436FEA53439BB2A2F84430A3
:101910001388DFF8A0A19BB243F080031380E37922
:10192000617913F0040F14BF042301238B40118C41
:101930009BB289B221EA03011184118C89B20B4355
:10194000138413889BB243F0010313801C22217B74
:10195000514B02FB013143690A6913434361282358
:1019600081F819B00B7643691A4342614B4AC1F8BA
:1019700014B08A604A7B15A88DF8542001228DF896
:1019800056B08DF855208DF8572010F095FDA068C1
:10199000CAF8000011F009FBDAF80000026822F032
:1019A00001021204120C026011F0FFFA15A811F0E6
:1019B000D1FAD9F80020617934320A44159240F204
:1019C0002A32189280221A922B4A15A916921022B6
:1019D00017924FF400721B924FF40052DAF8000095
:1019E000CDF864B0CDF870B01E92CDF87CB0CDF8D3
:1019F00074B011F0BCFA6279D9F800100C2A8EBFCD
:101A00005B461F4B03EB420B8A8998BFBBF8A8309B
:101A100092B21343DAF800208B81136843F002037B
:101A2000136001221E4B1A700023FF211C461D4823
:101A30001A181C520433802B9170D170F8D113F016
:101A400041F9D8F80030580578D5042009F0E6FAB5
:101A5000154B0421186009F0D7FA2DE0E1DD0008EC
:101A6000400D0300C9DD000818180020B9DD00088A
:101A70008B2E0020042D0020F03300202037002082
:101A8000F8AA0108FF6BDC0220000020006CDC02D9
:101A900000350C000010024024000020F95E000810
:101AA0001A370020F82D0020C02C0020EE33002033
:101AB000EC3300201C370020BD4B1870082009F0C3
:101AC000ADFABC4B0821186009F09EFABA4B2C22E3
:101AD00018700021B94818F062FF7C2385F84C3952
:101AE0008E2385F84D39E02385F84F397D2320205A
:101AF00085F8773909F092FAB14B2021186009F086
:101B000083FAB04B1870102009F088FAAE4B102100
:101B1000186009F079FAAD4B18704FF4805009F055
:101B20007DFAAB4B4FF48051186009F06DFA00223A
:101B3000A84B1870A84B1A7011F060FCA74C2288B3
:101B4000002A40F02A82A64B95F88809C5F8783912
:101B5000022385F87C3995F88939013B5BB2012B6A
:101B6000DEBFA04A1B01D258C5F88029002800F02A
:101B7000148208F0E9FCC5F8840918B11A238371AE
:101B80000023C371132108F005FDD5F87839986852
:101B900008F027FD00BFD5F878390221586808F011
:101BA000CCFD4FF000089F2332208DF844308DF893
:101BB00045808DF846808DF8478008F018FC8DF838
:101BC000558000BFD5F87839986808F005FDD5F83C
:101BD00078093A4611A90423406808F0CFFDD5F8EA
:101BE0007839986808F0FDFC00BF9DF856309DF8E4
:101BF00055201B0243EA02439DF8572013437A4ABB
:101C0000934200F0258300F30E83A2F52102A2F592
:101C1000CC42934200F01C8300F3B281A2F51A4239
:101C2000023A934240F0B481202323804FF4807322
:101C30006FE30A221B0193FBF2F300226B49A3F529
:101C4000B06341F822300132122AFAD142F6F82369
:101C50006380674B40206360664B2270A36009F08D
:101C6000DDF9824600283FF464AD11F0AFFB737AD2
:101C7000B17A00280CBF01220322002B0CBF0623DF
:101C8000072300290CBF002108219AF902E08246AF
:101C90000B438DE80C00584B584A4021704609F020
:101CA00009F8BAF1000F01D0554B1860003018BF89
:101CB00001203DE51023237042F6F8236380514B49
:101CC00040206360504BA36009F0A8F982460028C9
:101CD0003FF42FAD11F07AFBB27A00280CBF01233C
:101CE0000323002A0CBF002208229AF902E0019285
:101CF000009382464FF4E133444ACEE70823237031
:101D000042F6F8236380424B40206360414BA3605E
:101D100009F084F9824600283FF40BAD11F056FB20
:101D2000002200280CBF012303239AF902E001924C
:101D3000009382464FF4E133374AAEE700234FF079
:101D40000C0E364A36491370364A062884F800E0ED
:101D50000B70137074D01B22334B4FF4E13B1A709D
:101D60000522324B83F800E0314B1A7042F6F8231B
:101D70006380304B402063602F4BA36009F04EF925
:101D8000824600283FF4D5AC11F020FBB27A00283F
:101D90000CBF01230323002A0CBF002208229AF95A
:101DA00002E00192009382465B46244A75E700BF39
:101DB000C42C0020B42C0020C52C00204C0F002087
:101DC000CC2C0020C72C0020D82C0020DD2C00209B
:101DD000E02C0020DE2C0020DF2C0020140400204A
:101DE0007C0F0020001600201720C20028170020BA
:101DF000FDD8000819D90008A0860100B5E1000847
:101E00000C29002035D8000849D8000889DF0008CF
:101E1000ADD70008C5D7000841DF0008A118002091
:101E20005C150020A0180020501600207416002019
:101E3000A2180020ABCC0008C1CC000869DE000865
:101E400021223E4BDFF834B11A703D4B83F800E09D
:101E50003C4B18708AE74FF0000B3B4B402083F857
:101E600000B00E23237044F620636380374B636019
:101E7000374BA36009F0D2F800283FF45AACB0F811
:101E800000A0344B0AF4825A83F800B0B37ABAF552
:101E9000825F90F9020014BF01220322B3B9BAF5A0
:101EA000825F14BF5B4608238DE80C0040214FF48D
:101EB000E133294A08F0FEFEBAF5825F7FF4F6AE00
:101EC0000022264B1860264B1A70EFE60823EBE73A
:101ED0000A221B0193FBF2F300222249A3F5B0630F
:101EE00041F822300132102AFAD141F60B236380E7
:101EF0001D4B402063601D4B2270A36009F08EF8DB
:101F000000283FF416AC03234FF0000E90F90200B6
:101F1000174A8DE808404021164B08F0CBFEC5E675
:101F2000D0077FF52BAC0C232370134B25E4013332
:101F3000042B7FF465AC00206BE400BF501600203A
:101F400074160020A2180020F3180020F1DD00080C
:101F500045E30008F11800206DE20008742C002011
:101F6000802C00208C17002099DA00081DDB000867
:101F700009E20008A0680600A9DD000890D003006F
:101F8000B44A934200F0C281B34A934200F05E81AA
:101F900000232380A3816360A360A568B5B14FF0DF
:101FA0000008ED0A0DF15409A8450ADA08EB05040A
:101FB000641010223946E0020FF096FB0F2800F360
:101FC000BD8107F0B9FFA54BED021D600023A44AB7
:101FD000A44C1360A44A1380A44A1380A44A13801B
:101FE000A44A1360A44B1A6899461F2A40F0B08196
:101FF0004FF48063A14A23801188A148002940F052
:10200000B081018092789F4B02B101221A70B4F91D
:1020100000309D4A1B021360039B9C481B789C4C1C
:10202000052B02BF4FF4C8729A4B1A800AF0D2FEF9
:10203000C822994B00211A80984AA4F88E19137867
:10204000A4F8901943F0080313700423944A84F809
:102050008C391370934A944B1170642219705A7022
:102060005960924B19805980914B5A799A46012AAE
:102070000BD1282204F6941018F091FC4CF2503247
:102080008C4904F6981007F0A5FE00218A4B84F8CD
:10209000BC191960596099609AF80630012B09D172
:1020A0001022864818F07BFC4CF250328449854857
:1020B00007F090FE844BDFF850821B68834AC8F813
:1020C0000030834B4FF0010B1B6880209B1A18BF18
:1020D0000123804A804F137014F0D0FB002140226E
:1020E0007E4884F8F4B918F05AFC00237C4A7D4DF0
:1020F0003846C4F8F839136008F0FEFC2B68D9079D
:1021000009D5D9F800305946642BB8BF6423584626
:102110007B6408F029FD2B689A0709D5012102206C
:1021200008F022FD704B5B6B642BB8BF6423BB6768
:1021300029680320C1F3400108F016FD01210520A4
:1021400008F012FD694B9AF805B01A8C684B07200D
:1021500093FBF2F3642BB8BF64231BF10001C7F8B3
:10216000143118BF012108F0FFFC9AF806900820EE
:1021700019F1000118BF012108F0F6FC9AF80A30A5
:10218000002B40F090819AF80B30002B40F08B81AF
:10219000D8F80010C1F38041BBF1000F03D1B9F1B1
:1021A000000F00D14946092008F0DEFC012104207F
:1021B00008F0DAFC4F4B0620197808F0D5FC012115
:1021C0000A2008F0D1FC29680B20C1F3800108F037
:1021D000CBFC2B680C2013F0140F14BF012100213D
:1021E00008F0C2FCD8F800100D20C1F3802108F0DF
:1021F000BBFCD8F800104B0507D5337A083B012B00
:102200009CBF4FF4FA63C7F8B432C1F300410E200B
:1022100008F0AAFC94F8C53463F07F0384F8C53451
:1022200021B0BDE8F08F344A934211D004DC334A28
:10223000934208D0324AF4E4324A934266D00132E3
:1022400093427FF4A5AE4FF40073EEE44023ECE438
:102250008023EAE418BA20001620C2003837002094
:10226000CC370020C4370020D0370020D2370020E0
:10227000D4370020C8370020B42B00202837002096
:10228000C6370020D637002008220020DC29002095
:1022900000060020202200201E22002065150020BC
:1022A000D92E0020962C002088100020822C00209F
:1022B000DE2E0020CDCCCC3D20210020C00F002000
:1022C000CDCCCC3ED00F0020CC200020635F010895
:1022D000703100204C12002000010020E01B002083
:1022E000DC1B00208821002028200020C62B002095
:1022F00040420F00112900201740EF001920C200B2
:102300001540EF001840EF00002900204FF48073C3
:102310002380A381638822881B0263605343B3F147
:10232000807FA360614D05D90123B72085F88A39E4
:102330000FF01EFA012385F88B392EE6002359F899
:102340002320013220D10133042BF8D125462BE67E
:102350003F2A16BF4FF4FA434FF40073B3FBF2F376
:1023600048E6B4F90030994204DD1F2B02DD012359
:10237000038047E693FBF1F3FAE732F83330002BA2
:102380007EF440ACFEF736BC04F101082C46DDE7D4
:102390000022474B00B21A7014F0E8FF454915F0CF
:1023A00039F80746B4F9800614F0E0FF414915F00A
:1023B00031F80646B4F9840614F0D8FF3D4915F00B
:1023C00029F83D490546384614F01CFF07F0F1FB9B
:1023D0008146384607F0EDFB37490746304614F092
:1023E00011FF07F0E6FB8046304607F0E2FB32497A
:1023F0000646284614F006FF07F0DBFB8346284616
:1024000007F0D7FB49468246584615F003F849467F
:102410000390504614F0FEFF59460490384614F0DD
:10242000F9FF51460590384614F0F4FF41460690F6
:10243000584614F0EFFF214D5146286008F1004046
:1024400014F0E8FF05996860AE60304614F0E2FFD2
:10245000049914F0D7FE0699E860304614F0DAFFCC
:102460000146039814F0CCFE4146286107F1004074
:1024700014F0D0FF03996861304614F0CBFF014699
:10248000069814F0BDFE0499A861304614F0C2FF0E
:10249000059914F0B7FE4946E861404614F0BAFFCA
:1024A0002862FEF75DBD012176E600BF0006002030
:1024B0000E00002035FA8E3CDB0FC93F6815002066
:1024C0002DE9F04FB64A97B013780192002B00F037
:1024D000B780B44B186800286DD007F01FF8DFF8FC
:1024E000F8A2B14DDAF8000007F0FBFF002862D037
:1024F000DAF8000007F0F2FF0928AC4C01D03F28C1
:1025000050D14FF00008C14646462768DFF8ACB20C
:1025100008EB0B0347B13A4658F80B1028460093D6
:1025200018F080FA009B08B976B3994608F10808BC
:10253000B8F58C7FECD196B1D6F800E0D9F800C0A0
:1025400023681EF803001CF80310814207D15A1CAF
:10255000E9B97D2B1BD820202260E854A9542368B8
:102560000BB14E4508D0924813F081FF4E4511D96A
:10257000904813F07CFF002723689F42B2D2E85DA9
:1025800009F0D0F90137F7E71E469946CEE7E8543F
:102590002260D5E756F8080B13F069FF092009F00F
:1025A000C1F9E3E72368002B41F0B882042805D184
:1025B0007D480FF0EEFC17B0BDE8F08F0C2841F01D
:1025C000D0827D4813F053FF7A4813F050FF89E71B
:1025D00001220B4601F0B4BA591E685C2028F7D0DE
:1025E00002B123600026754FEE54F159284606EBE0
:1025F00007080FF00FFF38B90836B6F58C7FF4D115
:102600006F4813F034FF05E06E4B9845F8D2D8F8C8
:1026100004309847002301F097BA7F2B3FF662AF52
:10262000A0F12002D2B25E2A3FF65CAF13B9202897
:102630003FF458AF5A1C2260E85409F073F951E78F
:102640009846614F614D3A7802F00102009255F8C8
:102650000A3C002B41F0038208F10108B8F1030F96
:1026600005F1CC05F3D1A6E7012B05D14D280CBF10
:102670000223002301F009BA022B57D100233C2882
:1026800005F8023C4DD03E284AD015F802ECBEF1C8
:10269000060F41F0E58115F8014C002C41F0BE8198
:1026A0004FF001094A4B05AE0FCB86E80F0015F835
:1026B000053C15F803AC2B440A93BAF1440F0FFA0A
:1026C0008AF30995ADF82C30ADF82E408DF8309096
:1026D000ADF81C3001F0928100F21181BAF1050FC2
:1026E00000F0558200F2C980BAF1020F00F0938128
:1026F00000F2AB80CA4500F083813146504604F0B9
:1027000073FA0446002840F07981BAF1740F00F0A2
:10271000CA82BAF1770F00F057836FF00109D0E257
:10272000012305F8013C032301F0AFB9032B0BD1C2
:102730000023C0289FBF05F8063C05F8050C05F8E6
:10274000040C042301F0A1B9042B09D115F8043CB1
:1027500005F8030C5E4005F8046C052301F095B9FB
:10276000052B92D115F8061C15F8053C15F8042C1C
:102770008B420CD94B1C05F8063CCC23424005F893
:10278000042C144A03FB08230B4498727DE7824211
:1027900002D1062301F079B9002301F076B900BF18
:1027A000B82800206C27002034280020B4280020FE
:1027B00049C901084EC9010853C9010810C70108D9
:1027C0005EC9010828C80108842E00209E0C002044
:1027D000BCAB0108940C002070270020009B002B4C
:1027E00041F03E81232824D10123019955F80A2C78
:1027F0000B708C4B8C491A608C4B8D481A609A6018
:102800009DF8002059605A7340221A73894A043394
:102810001360894B894ADB78003318BF012313709A
:1028200013F054FE864813F022FE4FF4006014F0BB
:1028300025F8844B93F82230B3427FF426AF824BC5
:10284000824A1A60824BDC601FE7BAF1030F00F086
:102850001B81BAF1040F7FF450AF002404227D499C
:10286000304607F067F87C4B3046197807F080F85F
:10287000059B5A1C05921C70CAE0BAF1240F00F0A7
:10288000C4811FD8BAF1200F7FF437AFDFF8E0A181
:10289000724B9AF80120D91C1A709AF80020059101
:1028A0005A709AF80220BAF808109A70304607F069
:1028B0005FF8059B9AF80520591C05911A709AF843
:1028C000062083E0BAF1280F00F0D181BAF1380F69
:1028D0007FF413AF0522614B4FF001095A700A22B1
:1028E00000249A705E4A83F800901178DC701971A8
:1028F000517892785971D91D05919A71CDE0BAF14C
:10290000810F00F0868130D8BAF1540F00F0C481F5
:1029100008D8BAF1520F7FF4F0AE504B5A1C059212
:102920001C70BAE0BAF16E0F00F03E81BAF1800F70
:102930007FF4E3AE00210A264A4B4B4C1B780B3B3D
:10294000DBB299425ADA22880598FF2AA8BFFF22F3
:1029500000F1010ECDF814E006700598013100F188
:10296000010ECDF814E00270EBE7BAF1A00F00F011
:102970003C8130D8BAF1820F7FF4BFAE3B4B30467A
:102980001A78364BDFF8F8A0591C1A70384B0591AD
:10299000198906F0EDFF374B059A1B88511CFF2B58
:1029A000A8BFFF2305911370DAF80810304681F3B1
:1029B000100189B206F0DCFFDAF80010304601F3AE
:1029C0000F0189B206F0D4FF2B4B1A78059B591CD6
:1029D00005911A7061E0BAF1B80F00F01881BAF1F0
:1029E000FE0F7FF48AAE0024DFF8989039F81410B7
:1029F0003046013406F0BCFF042CF7D1002407E078
:102A0000164BDA1C059224221C7083F801A09A70E0
:102A10004FF0010941E004221849304606F08AFFD0
:102A20003BE000BF702700202BA500082C100020E1
:102A30007EC901086C27002000200020F40F002030
:102A40004EC90108C62B0020F04F0020EFBEADDEBE
:102A500000ED00E005200020C40A0020903C00208A
:102A60007020002004380020940F0020962C0020B5
:102A7000DE2E0020822C0020D92E002084C90108DF
:102A800020210020F82000200222BE4B5A70DA1CC0
:102A90000592052283F800A09A70ADF81E90B9F156
:102AA000000F66D0059B55F80A0C0693B54B0593AD
:102AB00003681B6A03B19847059B069EF61A00231C
:102AC0000E9324238DF834304D238DF83530BDF925
:102AD0001E30FF2E3246A8BFFF22013300F091873F
:102AE0009DF82030002B14BF3C233E23FE2ECCBF8C
:102AF0004FF007094FF005098DF83630BDF81C304E
:102B00008DF837208DF838304A46C8BF33120DA9EA
:102B100055F80A0CC4BF8DF83A308DF8396007F0CB
:102B2000E6FC0DAB994400230DF13702914540F0CE
:102B30006B87002E8DF813300EDD3246059955F85F
:102B40000A0C07F0D4FC059B9DF813201E449E42FE
:102B500040F05F878DF8132055F80A0C01220DF123
:102B6000130107F0C4FC55F80A0C03685B6A03B153
:102B70009847002305F8023C002C3FF46DAD55F852
:102B80000A0C08F043F855F80A0CA04764E50B223C
:102B90007D49304606F0CEFE08227C49304606F0DC
:102BA000C9FE07227A4938E77A4B764A1B88DFF854
:102BB0000CA2FF2BA8BFFF23511C0591DAF80810C7
:102BC000137081F3100189B2304606F0D1FE724BCA
:102BD0003046198806F0CCFEDAF8001001F30F0138
:102BE00089B2304606F0C4FE57E76C4B3046196890
:102BF00006F0AAFE6A4B3046196806F0A5FE694B3E
:102C00001968304606F0A0FE47E7674BF8E7674BC8
:102C1000F6E74FF00A0A4FF6FF7B654B654A1B78D3
:102C20000B3B5FFA83F94C45BFF6E8AE1168936839
:102C30005945A8BF59460598029321EAE171431C02
:102C4000059389B280F800A03046039206F090FE0A
:102C5000029B30460AFB03F15945A8BF594621EAB9
:102C6000E17189B206F084FE0134039ADBE70A229F
:102C7000444BDFF84CA19A70BAF800101A1D83F883
:102C8000009083F801E083F803903046059206F047
:102C90006FFEBAF80210A4E73A4A134603F8024B53
:102CA00005935470F9E6099B0A9A9A420FBF214690
:102CB0005A1C09921978404A304613F0A5FB4FF090
:102CC000010919F1020F40F04883BAF1470F099B3F
:102CD0000A9A40F0878009A8A2EB030A06F004FED6
:102CE000BAF1050F814679D909A806F013FE099BB0
:102CF0000A9A83469A4202D009A806F016FE059A5F
:102D0000069BDFF8C0A09B1A103BDAF808205B4551
:102D1000CDF808B0A2EB0902B8BF1FFA83FB9345B8
:102D20004946304688BF1FFA82FB06F00DFE3CB9CB
:102D30005946304606F01CFE059A511C0591147048
:102D4000DAF8083009EB0B029A42059E88BFA3EB24
:102D5000090B07F0F1F85A46314648460EF0C4FC1C
:102D6000059B03440593002C3FF448AE0022029BD0
:102D700083427FF743AE059B0130591C05911A70C1
:102D8000F5E700BF903C002089C9010895C90108FA
:102D90007DC90108822C0020D42E0020E8F7FF1FF7
:102DA000ECF7FF1FF0F7FF1FCC200020581E00207B
:102DB00004380020C00F0020C1630108202100203A
:102DC0007420002014040020099B0A9A9A421DBF17
:102DD0005A1C099219782146A14A6DE701244FF047
:102DE000800B8CE7BAF1290FA2EB030437D0BAF1BC
:102DF000390F20D0BAF1210F45D15A1C09921A4639
:102E0000984C12F8021B16A8099261705A78227029
:102E1000DA1C40F8342D9B78A37006F07BFD099BEB
:102E200020815A1C09921A4612F8021B61710992FC
:102E30005B78A37124E05A1C09921A780A2A40F0A0
:102E400028869A1C09925978874A1170D91C0991D1
:102E500099785170191D0991DB78937010E05A1C14
:102E600016AC44F8342D1B7820460A2B40F0C18064
:102E700006F050FD7D4E3080204606F04BFD708000
:102E80004FF0010969E2BAF15F0F00F0078400F228
:102E90005C81BAF1370F00F03B8570D8BAF12B0F87
:102EA00000F09D8420D8BAF1230F00F0B98206D833
:102EB000BAF10B0F00F08D854FF0FF394DE2BAF1FA
:102EC000250F00F07A84BAF1270FF5D109A806F092
:102ED00021FD674C206009A806F01CFD606009A870
:102EE00006F018FDA060CBE7BAF1310F00F0348591
:102EF0001ED8BAF12D0F00F08284BAF12F0FDBD16A
:102F00005C4C04F1400609A806F004FD099BA4F8F6
:102F100080005A1C09921A4612F8021B043484F8E5
:102F20007E1009925B7884F87F30A642EBD1A7E748
:102F3000BAF1330F00F0D984BAF1350FBCD15A1C65
:102F400009921A780E2AB7D8991C09915C78032C3B
:102F5000B2D806215143484842185471DC1C0994E8
:102F60009C784454191D0991D97851701979917040
:102F70005979D170D91D9B790991137180E7BAF104
:102F8000480F00F016843AD8BAF13E0F00F00382E1
:102F900004D8BAF13C0F3FF473AF8DE7BAF1410F9B
:102FA00000F0AA84BAF1430F86D116AC5A1C44F83B
:102FB000342D1A78314B324E1A700023204633607C
:102FC00006F092FC33681843099B30605A1C099242
:102FD0001A782C4B20461A7206F09CFC244E306066
:102FE000204606F097FC7060204606F093FCB06027
:102FF000204606F08FFC204606F08CFC40E7BAF134
:10300000510F00F0B38341D8BAF14C0F00F04D845A
:10301000BAF14E0F7FF450AF5A1C09921C78112C54
:103020003FF64AAF9A1C16A840F8342D5B78164E2E
:1030300006F8143006F06EFC40F6CA039842A8BFAA
:10304000184640F2EE239842B8BF18461923A0F262
:10305000EE2090FBF3F006EB4404607010E700BF35
:103060008D610108DE2E00207020002074200020D9
:103070007C0C0020042D0020041F00208C21002047
:10308000CC200020D42800202E190020BAF15B0F9C
:1030900000F0AD82BAF15D0F7FF40EAF5A1C16AC92
:1030A00044F8342D1B78C14EDFF83493204689F85C
:1030B0000530D6F800A006F02DFCAAF82000204626
:1030C000D6F800A006F026FC099A0A9BAAF81E0072
:1030D0009B1A072B17DD204606F01CFCA9F80A00F6
:1030E000204606F017FCA9F80C002046D6F800A0F0
:1030F00006F010FCAAF822002046D6F800A006F040
:1031000009FCAAF82400099A0A9B9B1A032B09DDE3
:10311000204606F0FFFBA9F80E00204606F0FAFB59
:10312000A9F81000099B0A9AD21A002A05DD591C39
:10313000099132681B7882F826300CF0D7FE0FF028
:10314000D9FA306810F0D0FF9AE6BAF1D40F00F047
:10315000CB816FD8BAF1CA0F00F046813DD8BAF1E1
:10316000B70F00F0C28014D8BAF1610F7FF4A4AE9B
:103170005A1C09921A468E4912F8020B0992C8701D
:1031800059788C4A5171DA1C09929A788A4BDA7014
:1031900076E6BAF1B90F00F01B83BAF1C80F7FF4DD
:1031A0008BAEC4F34704122C3FF686AE00260DF119
:1031B0003409A642C0F2D4800023804A0DA99C4263
:1031C00040F0D58000217D4A122B40F0D6804FF090
:1031D00001097B4B83F80090BFE0BAF1CE0F00F0FD
:1031E000BA8210D8BAF1CC0F00F03281BAF1CD0F0B
:1031F0007FF462AE3B78D9073FF542AE4FF4C87218
:10320000704B1A803CE6BAF1D00F00F09882BAF108
:10321000D20F7FF451AE5A1C0992187806065CD47E
:103220003B78DC073FF52CAE032828BF00200CF0CC
:103230009BFD25E6BAF1DC0F00F0C88126D8BAF173
:10324000D90F00F0A08114D8BAF1D60F7FF434AEB4
:1032500000245D4EDFF88C9133789C42BFF610AEAF
:1032600009A806F057FB14F07DF849F82400013452
:10327000F2E7BAF1DA0F00F09481BAF1DB0F7FF4D4
:103280001BAE4A4B4E22514918684AE0BAF1EF0F83
:1032900077D015D8BAF1DD0F00F08A83BAF1DE0FCE
:1032A0007FF40AAE09A806F035FB494C208209A834
:1032B00006F030FB608209A806F02CFBA082DFE557
:1032C000BAF1F20F00F03B81BAF1FA0F7FF4F4ADDE
:1032D0003B78DB073FF5F0AD37E200F07F000328D5
:1032E00028BF002012F03EFFCAE55A1C09921A4678
:1032F00012F8029B0992DA1C587809929978B9F170
:10330000000F11D101283FF6BBAD01293FF6B8AD42
:1033100081423FF4B5AD4E222E4B02FB013102FB40
:10332000003014F00BFFABE5B9F1010F7FF4A8AD4D
:1033300001283FF6A5AD01293FF6A2AD81423FF439
:103340009FAD0C23244A584303FB01210B688418CA
:1033500083504B6863608B68A3600024FFF79DBBBC
:1033600009A806F0D7FA29F81600013621E731F846
:10337000130022F81300013321E722F81310013360
:1033800022E709A806F0C6FA094CE08109A806F070
:10339000C1FAA08174E55A1C09921A460F4912F825
:1033A000020B887009925B784B7069E5A0200020C1
:1033B000AA2000202A300020BA2000203E18002039
:1033C0003C1800202022002004380020C0C601083C
:1033D000E8370020EA3200207A200020C6200020B2
:1033E000122900204C270020A04B1868034600F14A
:1033F0001E04099A0333511C0991114611F8026BFE
:1034000003F8036C0991517803F8021CD11C09914F
:10341000927803F8012C9C42EBD110F095FD2FE53A
:103420005A1C0992197813293FF646AD9A1C099245
:103430000C2600225C78DFF85CE206FB02E090F8E4
:1034400008C0A44500F030830132252AF5D133E5C8
:10345000092C7FF731AD5A1C09921A46844E12F896
:10346000021B34682170099200225B78601DA370F2
:10347000022A14BF4FF0640E4FF0FF0E099B013279
:10348000591C099119787145A8BF7146032A00F8A3
:10349000011BEDD19A1C09925A7816A8642AA8BF7C
:1034A00064222272DA1C09929A78E2701A1D40F89E
:1034B000342DDB78237106F02DFA0A9B099A60817E
:1034C000991A002904DD501C0990316812784A725B
:1034D000099A9B1A002B04DD511C0991336812785C
:1034E0005A7013F083F8CBE40D2C7FF4E5AC5A1C32
:1034F00009921C78072C3FF6DFAC0C2609A806F0D1
:1035000009FA6643DFF8909109EB0604A08009A848
:1035100006F000FAE08009A806F0FCF9099B20817A
:103520005A1C09921A4612F8021B09A8A1720992A4
:103530005B78E37206F0D8F949F80600A0E45A1C5B
:1035400009921A780F2A3FF6B7AC991C09915C785A
:103550004848C2EBC20142184454D91C09919978D9
:103560005170191D0991D97891701979D1705979D3
:1035700011719979517103F10801DB790991937106
:103580000AF0DEFF7CE409A806F0C4F93A4C20807A
:1035900009A806F0BFF9608009A806F0BBF9A08071
:1035A0006EE419465A1C099211F8020B334A09912C
:1035B00059781070517016A8D91C40F8341D9B78AA
:1035C000937006F0A7F92C4BD88059E45A1C099245
:1035D0001A4612F8020B2A4909920870294A5978AA
:1035E0009170DA1C09929A78274B9A7048E45A1C19
:1035F00009921A46224C12F8021B244E0992A1701D
:103600005978234A0DF158091170DA1C09929A78F9
:1036100032711A1D49F8342DDB784846042BA8BFB7
:103620000423B37006F076F9099A0A9B30809B1A3E
:10363000012B03DD484606F06DF9F081099B0A9ADB
:103640009A4206D05A1C09921B78003318BF0123F6
:10365000E3710CF04BFC099B0A9A9A423FF410ACC0
:103660005A1C09921B78F3700AE400BFA0200020C6
:103670006C3C0020CA190020643C0020A4200020DB
:1036800012290020AA200020BA200020E8370020BC
:103690007820002040AF01083C1A002009A806F05D
:1036A00039F909A806F036F909A806F033F909A88E
:1036B00006F03BF9099BB24C591C09911946226846
:1036C00011F8020B82F82C000991597809A882F8A8
:1036D0003610D91C09919B7882F8373006F025F90D
:1036E00009A806F022F909A806F01FF909A826681A
:1036F00006F010F9708709A8266806F00BF9099BF7
:103700000A9A3087D21A012A08DD591C09912268C9
:103710001B7809A882F82E3006F007F9099A0A9B4F
:103720009B1A032B09DD09A8266806F0F3F87086BA
:1037300009A8266806F0EEF8B08620686DE63B78AA
:10374000D8073FF59DAB0CF041FE0CF023FB0CF0CD
:103750005FFCFFF795BB3B78DA073FF591AB894AF1
:10376000137843F004031370FFF78ABB8649097886
:1037700001293FF685AB591C09911946834C11F874
:10378000020BA070D81C0991121A5978012A0990CD
:103790009E7805DD09A806F0BDF82080FFF770BB14
:1037A0007B4BB3F900304B4393FBF6F32380FFF7D9
:1037B00067BB0EF0B9F8FFF763BB0023754C09A88F
:1037C000236006F091F8236818432060FFF758BB88
:1037D0000023714C09A8236006F086F8F5E7581C11
:1037E00009901C786D49121A002A0C707FF748ABBB
:1037F0009A1C09925B78003318BF0123D4E55A1C48
:1038000016AC44F8342D1B78654E2046337206F012
:1038100081F8B083204606F07DF83083204606F01C
:1038200079F8099B70835A1C09921B78F3740A9BE0
:103830009B1A032B07DD204606F06CF8B084204667
:1038400006F068F8F084099B0A9AD21A032A0DDD63
:103850005A1C09921A4612F8021B2046B1770992A7
:103860005B7886F8203006F055F87084099B0A9A38
:10387000D21A052A0CDD5A1C09921B782046F372D5
:1038800006F032F8099BF0605A1C09921B783374D9
:10389000099B0A9AD21A002A7FF7F2AA5A1C0992A7
:1038A0001B7886F82130FFF7EBBA5A1C09921A46AA
:1038B0003C4C12F8021B16AE46F8342D21715B7891
:1038C0003046637106F026F8099B20805A1C099245
:1038D0001B783046A37106F01DF8099B60805A1CC6
:1038E00009921B78E371FFF7CBBA5A1C09921A7838
:1038F0002B4B5A75FFF7C4BA00232949099A501C6B
:10390000099012785A540133082BF7D1FFF7B8BA4F
:103910000726B4FBF6F6C6EBC603E41A7FF4CCAA7E
:10392000DFF888B0F6B2E3B2B3423FF4A9AA4FF091
:10393000000A099B5A1C099293F900300BEBCA0943
:1039400099F902209A4200F0CA800AF1010ABAF1FC
:10395000040FF3D1FFF7B0BA5A1C09921E781F2E3C
:103960003FF6AAAA052C7FF4A7AA09A805F0BCFF78
:103970000D4B43F8260011F035F9FFF781BA00BF6F
:10398000A020002065150020D63700202837002011
:10399000C4370020CC200020581E00208C2100209D
:1039A000D4280020F0310020042D0020C62B002058
:1039B0005A1C09921A4612F8020B0992DA1C59781D
:1039C00009929A7810F04EFA00287FF459AAFFF76E
:1039D00073BA002111226A4816F0E1FF102C4FF053
:1039E000000328BF10246649A342BFF449AA099ADC
:1039F000501C099012785A540133F5E7614CFFF7D7
:103A00004CB82123FFF772B812F8011B4B40FFF7A7
:103A10008DB813F8011B4A40FFF799B8012C1BD150
:103A2000102200210DA816F0BAFF15F8053C0D95DF
:103A30002B440E9315F8033C6E2BADF83C300BD1A4
:103A40000DA805F072FF0DA805F064FF0DA805F0A4
:103A500061FF0DA805F05EFF0024FFF78AB84A4C0D
:103A600055F80A0C06F03DFD00283EF4F5AD55F87A
:103A70000A0C06F033FD15F8023C0646002B7EF4D6
:103A8000F3AD24287EF4AAAE012305F8023CFEF72C
:103A9000FCBD09A805F049FF09A805F046FF09A8E3
:103AA00005F043FFFFF7ECB9384A007802F821002F
:103AB000D81C0990987802EB81011A1D4870099270
:103AC000DA7800208A705A1D1B790992CB7012F0A7
:103AD00003FD2F4B80F001001870FFF7D1B989F872
:103AE000023009A805F016FF099B2BF83A005A1C72
:103AF00009921A4612F8021B0134099289F8031040
:103B00005A7889F80420DA1C09929A7889F80620F4
:103B10001A1D0992DB7889F8053004E70C283EF479
:103B200050AD0A2801D00D2820D112F0B9FC232174
:103B3000284616F069FF08B1401B20600022236868
:103B4000002B7EF449AD02B123608022002128467B
:103B500016F025FF019B1B78002B7EF435ADFEF798
:103B60002ABD7F287EF45CADFEF7BCBC7F287EF4C6
:103B700054AD0022013B2360EA540648FEF725BD00
:103B800014200020B7FC00080400FA05641E002081
:103B9000000000207AC901082DE9F04FB24B9DB01A
:103BA0001B780790012B07D1B049B14A0968C96950
:103BB0001180B04909885180AF4D2A78002A00F061
:103BC0000F85072B40F0008206F0BEFB0690AB4F3E
:103BD0003B68089713F4806F05D0A948836813B138
:103BE00000F150019847A74BA7491B68B1F906405F
:103BF0005A890991944280F2EA814FF07E536B60BA
:103C0000A24B4FF0000893F90410A14A002914BFF9
:103C100001214FF0FF31168B93F801A093F800902B
:103C20009C4F05910A92099B33F918B0ABEB060043
:103C30000028B8BF4042B0F5FA7FA8BF4FF4FA7031
:103C4000B8F1020F00F0D6814845CCBFA0EB0900C7
:103C5000002013F08BFBB34547F82800C0F2D88151
:103C600008F10108B8F1030FDDD1089B1F6817F4B4
:103C7000805800F0D481B4F5FA6F2346A8BF4FF402
:103C8000FA63B3F57A7FB8BF4FF47A73A3F57A730A
:103C90002A7A22B16A7A5343642293FBF2F34FF0FB
:103CA000640E93FBFEF27C4802F1010C30F9121015
:103CB00030F91C006FF0630C0CFB0233401A5843C0
:103CC00090FBFEF0084400B213F050FBDFF8C49103
:103CD0008246C9F80C00B8F1000F1DD01D2012F06B
:103CE00035FCC8B16D4BDB78B3B96D49504613F064
:103CF00087FA13F06BFD4FF47A7300B2000390FB68
:103D0000F3F3C6F5FA6000B2584340F30F30304485
:103D100013F02CFBC9F80C00624B1E8873063BD5D0
:103D2000614BB3F904000A2390FBF3F02B8AC01A0D
:103D300000B213F01BFB5D4913F06CFB5C490546B8
:103D400013F060FA05F035FF8346284605F031FF91
:103D5000504D81462B6859461846089313F05AFB7C
:103D6000D5F804A005905146484613F053FB059A38
:103D70000146104613F044FA59462860504613F0A5
:103D800049FB089B82461946484613F043FB01460F
:103D9000504613F037FA6860464B374D1B6813F0F6
:103DA000140F1AD016F4027F17D0434BDFF8E490BB
:103DB0001A7812F0100200F04781AB7C6869002B82
:103DC0000CBF01234FF0FF33584313F0CFFAD9F85B
:103DD000041013F017FAC9F80400384BDFF8B0A04C
:103DE0001A789946A2B1BAF81A30A34210DB344BC4
:103DF0001B78012B01D0192B02D1324A927B3AB9A0
:103E00000E2B05D0082B1FBF0023224AEB639360C3
:103E100095F84240002C68D0B60766D02A4B2B4953
:103E20001E6A304613F09EFC002840F06081304648
:103E300014F062FB696C13F0EDFA14F0E5FAB0F5DA
:103E4000617FA8BF4FF4617013F090FA204913F01E
:103E5000E1FA05F0AEFE0646204613F087FA314639
:103E600013F0D8FA36E000BF84210020FC2C00209B
:103E7000F8200020301C00208010002000290020A5
:103E8000282900206C3C0020AC2E0020A42000201B
:103E9000D4280020982C0020703C0020F02E002018
:103EA00000007A44D62E0020C431002035FA8E3C22
:103EB000DB0FC93F8821002065150020000000208D
:103EC0008C210020B81A0020843100208FC2753C5C
:103ED000D06D393A14F098FA00B213F047FA894CD1
:103EE0000146E06813F08EF9E06095F84860002E16
:103EF0005CD0854B0420D3F8EC4044F620639C4210
:103F0000A8BF1C46B4F57A7FB8BF4FF47A74A4B248
:103F1000A5F84A4012F01AFB08B9F80046D54FF44C
:103F20007A73B4FBF3F4642393FBF4F4DFF8ECB19D
:103F3000142CA8BF1424DBF80030B8F1000F00F0F7
:103F4000D8805F8E7F086F49EB6CD1F80C805A1CCB
:103F5000EA6405EB430340460892059313F036FCF0
:103F6000089A059BA242A3F85000A4BF0023EB646B
:103F7000EB6C05EB4303B3F9500013F0F7F901467E
:103F8000404613F03DF913F021FC00B20028B8BF01
:103F90004042B84240F3B080DBF80030988E13F016
:103FA000E5F95A4913F036FAC9F804009AF81E40A8
:103FB000002C00F0DC81022C00F0B280032C00F019
:103FC000AF81534B5888B0E000230693FFE5B4F56A
:103FD000FA6F187ABFBFA31A5843C2F5FA6290FB72
:103FE000F2F0C0F1640013F0C1F94A4913F012FA7B
:103FF000686005E65045D8BF0020059BC8BFA0EB10
:104000000A00584313F0B2F9B345B860BFF62DAEBD
:1040100057F8281001F1004147F8281020E60A9BC4
:104020005A8B94420EDBB4F5FA6F2346A8BF4FF4C7
:10403000FA634FF47A719B1A4B43C2F5FA62B3FBF1
:10404000F2F325E61346F4E7334BD978987871B349
:10405000B5F91830E11A0029B8BF4942814210DD94
:10406000EA6101229C4285F82020C8BF404213F03B
:104070007DF90146D9F80C0013F0C4F8C9F80C001A
:10408000ABE695F8201019B1A96A85F8202069627D
:1040900068691844B0F5FA6FA8BF4FF4FA60B0F53C
:1040A0007A7FB8BF4FF47A7013F060F9E6E7B5F99C
:1040B0001820A31A83EAE37EAEEBE37E86450BDD90
:1040C000022193FBF1F3EB62012385F8303085F890
:1040D000203068691044DDE795F82030002BF8D0D7
:1040E000AB6A85F830106B6285F82010F1E700208C
:1040F000F2E6B3F9327026E74FF07E53C9F8043088
:1041000054E700BF982C0020000100206F12833A72
:10411000C42800200AD7233CA4200020A02000208F
:10412000B5F84A0000F57A7080B29AF81F40023460
:10413000E4B2002E00F00981002800F00681904BC7
:1041400000261B688F4FB0FBF3F000B2A5F8780093
:1041500013F00CF901464FF07E5013F00FFA804631
:10416000DFF8289207F1100AA642C0F2E180864BE0
:104170001B78092B11D1854B854E186814F044F932
:10418000844B3080D3F8EC004FF47A7390FBF3F05B
:1041900013F0ECF813F01AFB7080B5F97830002BAF
:1041A00040F3E88000267C4FDFF8E091A7F110088B
:1041B000F3B29C4200F2CF8095F848300893002B70
:1041C00040F0DA80002C00F08B80022CA8BF022483
:1041D000099400244FF07E59704BDFF8F0811F687E
:1041E000694B1B780A937B1D0B93099B9C4240F300
:1041F000EF800A9B092B08D1694B654CB3F87820F6
:10420000586BA28013F0E2FAE080664B93F82140ED
:10421000002C5FD01E2012F099F900285AD0624B72
:104220001B88590656D45E4F604E97F8B430A342AF
:1042300013D087F8B440204613F098F85C4913F087
:10424000E9F85C49044612F0DDFF05F0B2FCB0600D
:10425000204605F0AEFCC7F8B800D6F808806C6BB5
:104260004146204613F0D6F8EF6BD5F8B86081468A
:104270003146384613F0CEF80146484612F0C0FFEA
:104280004D49814613F06EFA08B9DFF82C914B497D
:10429000484613F071FA08B9DFF8209141463846D4
:1042A000C5F8349013F0B6F831460746204613F0AF
:1042B000B1F80146384612F0A5FF3F49044613F015
:1042C00051FA00B93C4C3D49204613F055FA00B96B
:1042D0003A4CEC63089B1BB10022314B83F8482019
:1042E000374B1B78002B40F06E81364EB278002A97
:1042F00000F06981344C2378013B0D2B00F2518191
:10430000DFE813F006011A01400134024F014F01AA
:104310004E02620274029002A102E502EF02F8026C
:104320009AF82000C0EB401300EB8300C000FBE6CE
:104330005AF8261059F8260012F062FF414613F091
:1043400069F847F8260001360EE7B5F87830013BEA
:10435000A5F8783021E757F8260058F8261012F013
:1043600051FF47F8260049F82600013620E7A5F856
:10437000784021E700241FE70223099329E700BFC3
:104380006C210020FC10002084210020982C0020AB
:10439000F8200020000100200C1100206C3C0020BF
:1043A00080100020D4280020D62E002000000020FD
:1043B00035FA8E3CDB0FC93F00C0F94400C0F9C498
:1043C000B828002028370020D63700200AD7233C01
:1043D000022C15BF3878787897F802B097F809B0B2
:1043E00012F0C4FF414613F015F84FF08041064625
:1043F00013F0CCF960B14FF08041304612F000FF6D
:10440000524913F007F80146304612F0FBFE06460B
:10441000A30005934E4B4F4953F8240012F0FAFFC6
:1044200020F000434C4A0593059B42F824000C32CF
:10443000824642F82430BBF1000F1FD0584612F0DC
:1044400095FF414612F0E6FF83465146504612F072
:10445000E1FF059912F0DEFF594612F0DBFF5946E5
:104460000C90484612F0CCFE0C9A0146104612F011
:10447000C9FE0146504612F0CDFF8246374930460C
:1044800012F0C8FF514612F0C5FF0B9B064613F809
:10449000010B0B93F0B112F069FF414612F0BAFF25
:1044A000059912F0B7FF2E49824613F06FF958BBF9
:1044B0000021504613F04CF940BB5146484612F0DB
:1044C0009FFE0146484613F059F80146304612F067
:1044D000A1FF06460A9B0C2B05D1304613F076F956
:1044E000204B23F814002049304613F03BF900B963
:1044F0001D4E1E49304613F03FF900B91B4E1C4BB0
:10450000A200D650013470E64146DBE74946D9E7C0
:10451000184B1B78DA0707D580200EF039FA08B15E
:1045200006F0B0FB13F08AFC1F2012F00FF80028F1
:1045300037D00C23237034E000220F4B1A600F4B4E
:104540001A600F4A12685A600323F3E7D7A3684141
:10455000982C00206F12033B1C11002000004843E0
:10456000A4707D3FF820002000C0F94400C0F9C4C9
:10457000B4100020842E0020243700200C200020BE
:10458000D42C002010F0D8FCBB4DBC4B1A686B68D3
:104590006433934205D2402010F0A6FC002800F0BE
:1045A000C18010F0F1FC002800F0AB8123780C3BB7
:1045B000022B08D901232370B14B93F8BC2012B110
:1045C000002283F8BC20AF4B1B78072B05D105F0E8
:1045D000BBFE069BC01AAC4B98800022A84B1A70F9
:1045E000A84E3378072B40F0D88105F0ADFE089037
:1045F000DFF8C492D9F80430484698474C46002862
:1046000078D00022B9F8B4B089F855209F4DBBF19D
:10461000000F40F02682D9F82420B9F93C30984E9A
:104620009B1AC9F83030D9F82820B9F93E3009F181
:1046300030009B1AC9F83430D9F82C20B9F9403031
:1046400099F856109B1AC9F8383008F0D3FB079B2D
:10465000D6F8C400C6F8C430181AD6F8C8300344D7
:10466000C6F8C8308A4B93F80080B8F1000F40F0CC
:10467000978112F07BFE4FF07C5112F0CBFE834607
:1046800009F12C0A09F59C77C14606F1CC08D83609
:104690005AF8040F12F06AFE216A12F0BBFED4F839
:1046A0003431014638469847D4F8A431014607F121
:1046B00070009847D4F8B8300146DAF8F800984707
:1046C00056F8291045F8040F059012F09BFD594645
:1046D00012F0A0FE58F8291012F094FD059B48F83E
:1046E000290046F8293009F10109B9F1030F07F152
:1046F0002407CDD1634C2278072A05D105F024FE8A
:10470000089BC01A604B18805D4B93F8E5201D464E
:104710000692002A00F08E82013A83F8E5201DB04F
:10472000BDE8F08FDFF894814027C246DFF8909112
:104730002B6818F8030068B110F0A4FCD9F8003019
:10474000013F03F1FF33C9F800302B6803F1010387
:104750002B60EDD12B681AF80330002B7FF421AFCA
:104760002B604FF0FF336B600423E3E610F0E4FBB3
:10477000484A5021A2F10C03019326230292009390
:104780004920A2F10A03163A0BF0F0F800287FF452
:1047900008AF4FF0FF32384B18605A600723C9E664
:1047A00010F0CAFB0523002100933B4B02910191BD
:1047B000A3F1080253200BF0D9F800287FF4F1AEE2
:1047C0002D4B18600823B5E610F0B6FB0AF072FD19
:1047D00000283FF4E6AE13F077FC00283FF4E1AE8A
:1047E0002E4B1A682E4B1A600A23A3E61A2011F0EA
:1047F000ADFEA0B12B4B1B888BB92B4B14A91B68AA
:104800000E201493079B159310F08CFD234B1A6810
:10481000234B1A600A232370079810F0CFFD10F085
:104820005DFDBEE6214B1B78002BF5D01A2011F060
:104830008DFE0028F0D1124B93F8BC30002BEBD149
:1048400009232370EBE70D4B1A680B4B5B68C833E9
:10485000934237D2B378032B0BD1154D286806F05D
:10486000FBF900232B60134B1B78022B01D106F0C0
:10487000F7FB01235EE600BF0C200020D42C0020B3
:104880008010002084210020F8200020B42B00207C
:10489000FC15002032AC0108ECAD01080822002014
:1048A000C8370020D0370020CC3700208E210020D0
:1048B000303700206821002028290020CCAB0108D7
:1048C0002437002013F000FC0028C3D169E6012A38
:1048D00001D10DF029F80D231320237006F038FCC8
:1048E0005FE6012A04D10CF0C7FE00283FF459AE60
:1048F0000E23F1E71F2011F029FE00287FF451AEAE
:10490000B7E7F378002B3FF45EAEA04B1D7815F0AF
:10491000010508D19E4BDFF8A0921F789D4BD3F87C
:104920000080BD4219DB9C4B9C4D1B68D5F8C02014
:104930009A4223D92378012B7FF445AE974C94F803
:10494000BC20002A7FF43FAEB378032B0FD013F0C6
:1049500075FA012384F8BC3035E6414659F8250044
:1049600012F0ECFE002801F0A0820135D9E780208A
:104970000EF00EF800287FF426AEE8E72378012B2E
:104980003FF421AE95F8BC30002B3FF41CAE0BF089
:1049900027F9002385F8BC3015E60023089327E6A5
:1049A00012F0E4FC4FF07C5112F034FD4C465E46B0
:1049B0007B4FDFF8F0B1059009F12C0A09F59C78DE
:1049C0009BF800905AF8040FB9F1170F02BFA31912
:1049D0009B8F3B8012F0CAFC216A12F01BFDB9F1DB
:1049E000080F014604D1069013F00EFD0699388099
:1049F000D4F8343140469847D4F8A431014608F140
:104A000070009847674B81461B78032B02D113F047
:104A1000FBFC38804946D4F8B830DAF8F8009847FB
:104A2000DFF8989145F8040F09F10C0353F81610BC
:104A30000693099012F0E6FB059912F0EBFC59F889
:104A4000161012F0DFFB069B099A49F8160043F88E
:104A500016200236062E08F1240807F10207AFD10E
:104A600048E6514B29685B784C4609934FF47A73BA
:104A7000B3FBF1F31546C3EB431103EB8103DB00FA
:104A80009BB20593337806920A93454B09F12406AD
:104A9000B3F90680059B5B080B93059B9B4501BF03
:104AA0000023B364C4F888303360404BEB18B3F98B
:104AB0003C00B36C0344B36412F058FCD4F8882073
:104AC000571C012FC4F8887009D10023BBF1010FD6
:104AD000E067A067C4F8803079D1002033E0D4F8D3
:104AE00078900D9249460C9012F08AFB8246384627
:104AF00012F03CFC0146504612F040FD494612F0CF
:104B000081FB0C9B01468146E067184612F078FB5A
:104B1000514612F07FFCD4F8801012F073FBBBF109
:104B2000010F8246C4F88400C4F87890C4F880006D
:104B30000D9A4CD1012FD0DD104612F017FC014622
:104B4000504612F01BFD13F01FFF0A9B0746032B74
:104B500005D113F059FC01230FFA80F80693099B45
:104B600073B3184612F002FC394612F0F1FD38B367
:104B7000069B13B10A4BA3F806800D4808F02AF9EA
:104B800000220C4B5A609A60DA60B3E5842E002054
:104B900004380020BC280020D42C002080100020E5
:104BA000F82000208421002012290020282900203C
:104BB000DC290020B42B00204C2700204C110020C1
:104BC0000B9AB36C1344059A93FBF2F333600235EE
:104BD000062D06F1040604F114047FF45EAF069B73
:104BE00013B10F4BA3F80680BBF1010F11D10022C6
:104BF0000C4B1B689A621A63DA620B4B93F8E43031
:104C000023B10A4B1B8823F4806313B9012006F0FB
:104C10009FFA074AB2F8B430013BA2F8B430AFE7CC
:104C2000F8200020FC2C002080100020142F0020F1
:104C300028290020AC4B5B79002B00F07085AB4B32
:104C40001B78013BDBB285F8E5302378072B40F079
:104C5000698505F079FB0C90A54B4FF07E501B68E1
:104C600009936B680F93D5F8E83019460B9312F04F
:104C7000C7FAA04B196812F0CDFB4FF07E510D9092
:104C800012F070FD10B94FF07E530D939A4B002532
:104C900008939A4B9A4C0A9300230593059BDFF8DF
:104CA000BC929E0059F82370059A964B294653F8FA
:104CB0002280404612F042FDE8B9059B09F1B8098F
:104CC00059F823903846494612F09AFA824620F065
:104CD0000041404612F03CFD58B12946504612F0C2
:104CE00055FD002800F022854946404612F08AFA18
:104CF0000746854BF750854BB3F8009019F0030F2A
:104D00003BD0059B022B38D0099B93F82EB0584618
:104D100012F02CFB7E4BF15812F07CFB8246CBF15B
:104D2000000012F023FB80460146504612F010FDB1
:104D300040B9584612F016FB5146804612F012FD5B
:104D400000B9D046059A734B33F912000A9BB3F9A8
:104D50000030C01A12F00AFB6F4912F05BFB0146EB
:104D6000404612F04DFA19F0010F0E9000F0E48465
:104D70006A4B196812F04EFB0746694B38463344BC
:104D8000D3F804B0594612F03BFA94F8F830804654
:104D9000002B76D0079AD4F8FC30D31A614A1268F7
:104DA00093426EDD099B93F84830022B02D101201B
:104DB00005F026FC059B022B40F098855A4B404697
:104DC000D3F8009009F1004A514612F0C1FC0028C6
:104DD00040F0AC854946404612F0C4FC00B9C846D4
:104DE000089B079A1D60D4F8FC30D31A4F4A12680A
:104DF000934223DC4FF07E510B9812F0A9FC00285F
:104E00003FD04B4BDFF818A1D3F80090DAF804003C
:104E1000494620F0004012F09BFC90B3DAF80810ED
:104E2000484621F0004112F0B1FC50B3DAF80C1002
:104E3000484621F0004112F0A9FC10B33D4B186820
:104E400010F0020019D03C4B32483C491A68B1F9C5
:104E50000CE0B0F90030A3EB0E03002BB8BF5B42AF
:104E600093420EDAB0F90230B1F90E105B1A002B42
:104E7000B8BF5B429A4204DD002084F8F80005F0D8
:104E8000BFFB2F4B0F98F15812F0C4FA414612F0B5
:104E9000C1FA059BDFF8C890022B014646F80900CD
:104EA00006D1284A284B10681B689847C9F80800A3
:104EB000089B1B680E93254B5968254B186812F008
:104EC000A9FA0D9912F0A6FA224BF15812F0A2FAA3
:104ED000414612F09FFA0E9912F094F91E4B109071
:104EE000D3F800A03EE000BF122900207820002067
:104EF000A020002088300020E0200020B6200020E4
:104F0000801000207C3000206C110020D62E002064
:104F10001C110020C4310020CDCCCC3D64300020D9
:104F2000B42B002090300020A83000208C300020CE
:104F3000983000208821002094300020AA200020F2
:104F4000383000205C310020B83000200000002004
:104F50009C1A002044300020AC300020B410002007
:104F6000D42000200AF10049494612F0F1FB38B97B
:104F7000109A51461046914612F0F4FB00B9D14602
:104F8000059B022B40F0D58494F80031012B02D010
:104F9000192B40F0CE844FF00103A64940461093F0
:104FA00012F0F4FB109B00B90346DBB23BB10E9B41
:104FB00029F0004023F0004112F0CAFB10B1089B19
:104FC000C3F80090059B022B00F099809A4A9B4BF6
:104FD00059461B68B0589847994A9A4B01461B6836
:104FE000B0589847099B814693F83730002B00F062
:104FF000AB84954B1B88002B40F0A684934BF15853
:10500000934B186812F006FA4FF07E51824612F068
:10501000A9FB08B94FF07E5A8E4B5046196812F022
:10502000F9F90146384612F0F5F9494612F0E8F868
:10503000894B8146F15812F0E3F8884B196812F059
:105040009DFA854B074646F80390099B93F8483034
:10505000002B4AD0824B1B78D80740F178844FF060
:105060007E510B9812F088FBF8B194F8F830E3B950
:105070007C4B27F00040196812F088FBA8B17A4BEE
:1050800028F00040196812F081FB70B1774BF0589E
:10509000774B20F00040196812F05AFB28B1012329
:1050A00084F8F830079BC4F8FC3094F8F830E3B18A
:1050B000079AD4F8FC30D31A6E4A1268934214DA75
:1050C000694B28F00040196812F042FB40B9674B69
:1050D000F058674B20F00040196812F057FB20B1E0
:1050E000002084F8F80005F08BFA634B0F98F15814
:1050F00012F090F9394612F08DF9604B985194F8FE
:105100000C312BB95E4BF550089B1D605B4BF55085
:10511000059B01330593089B043308930A9B0233D4
:105120000A93059B032B7FF4B9AD564E3278072ABC
:1051300005D105F009F90C9BC01A534B5880337800
:10514000012B40F00B8405F0FFF85049D4F81031E2
:105150004D4A0968C31A93805B1A0790D380C4F83C
:1051600010014B4B4B4E1B6893F82C704A4B1B683D
:1051700013F4805F00F05384394BB4F816811B7828
:105180004046D90758BF454BF6685CBF1B8BA4F857
:10519000143112F0EBF881460146304612F0E2FA83
:1051A000002800F0E6833E4BD4F81C111868C4F8C0
:1051B0002011C4F82411C4F8180112F021F8FF23BB
:1051C000C4F8280184F82C31304612F025FB314612
:1051D000A4F81401484612F013F8C4F83001D4F8CA
:1051E00034512946D4F8300112F0C8F94FF07E51FD
:1051F000054612F0B7FA08B94FF07E55002128464F
:1052000012F0BAFA00B90025DFF87490DFF898A020
:10521000C4F83051DAF80010D9F8000011F0F2FFAC
:10522000164B196811F0EEFF1E49099012F0F2F8C2
:105230003CE000BF00009642BC300020B0300020AF
:105240000C310020B4300020D62E00202811002080
:10525000603000205C300020841100209C1A002067
:10526000842E0020A03000209C300020B4100020AC
:10527000A43000209030002050300020EC2000208E
:10528000D420002084210020F82000206C21002060
:10529000A0200020982C002000290020D4280020E5
:1052A000003800206F12833AE0200020B04B804687
:1052B0001C6804F10046314612F04AFA002840F01A
:1052C000CD832146404612F04DFA00B9A046DAF8E7
:1052D0000410D9F8040011F095FFA64B596811F09D
:1052E00091FFA5490A9012F095F881460146304693
:1052F00012F04CFA30B949462046264612F032FAEE
:1053000000B94E469D4B99689D4B986811F07AFF05
:1053100099490B9012F07EF89A4B8246D3F8009090
:1053200009F10044214612F013FA30B949465046BB
:10533000544612F017FA00B94C46934B5B780BB900
:1053400004F100442FB3914B5A7912B3904A177865
:10535000FFB1187812F006F88146384612F006F8C8
:105360000146484612F056F88A4B0746188811F055
:10537000F9FF0146384612F001F98749074612F055
:10538000F1F900B9844F4FF07E51384612F0F4F92C
:1053900008B94FF07E574FF0000A804BD3461B7878
:1053A000DFF8409208930023089A9342C0F2588392
:1053B0005146584611F024FF794C4FF07E51C4F805
:1053C000E800064612F0E2F9002800F08983314631
:1053D0004FF07E5012F0D2F80025074614AE089B1D
:1053E000AB4200F3748311F0B7F818B14FF07C535F
:1053F000C4F8303194F92C0111F0B8FFD4F83031F1
:105400000C900D93D4F82831D4F818010E93D4F8E9
:10541000243100250F93634BDB78119312F0D6F9FA
:105420008146D4F8200112F0D1F95F4B8246D3F8BF
:1054300000B0584612F0CAF980465C4B1E6806F070
:10544000100312935A4B06F480561C78594B04F003
:105450000104B3F90670584B5B8B1093089B9D4277
:10546000C0F061832CB9554B554A0899A14200F30D
:1054700098834B4BD3F8C821002A00F0B68493F8E8
:105480000031192B00F2D78001229A404D4B134076
:10549000002B00F0D0804C4B474C1B8813F4807FCE
:1054A00000F09883494D286812F090F9ADF850004B
:1054B000686812F08BF9ADF85200A86812F086F90E
:1054C000ADF854004FF47A724FF461614048B0F97E
:1054D000023003F5E163534393FBF1F3A3F5FA7351
:1054E000ADF86830B0F9003003F5E1635A4392FB40
:1054F000F1F2324BA2F5FA7236491868ADF86A201B
:1055000011F07EFE12F062F92A4A238B1188ADF861
:105510005600C91AADF858105188C91AADF85A107A
:105520009188C91AADF85C10D188C91AADF85E101F
:105530001189C91AADF860105189C91AADF8621005
:105540009189D289C91AD31AADF866300023ADF813
:1055500064101946204A22F813100133082BFAD19F
:105560004FF00C0964271D4B1D4C1B783CE000BF1D
:10557000A01A0020EC2000206F12833AE0200020C7
:10558000D4200020A41A00208C210020DE2E002030
:10559000962C0020822C0020713DAA3F0438002068
:1055A00080100020F02E0020BC28002000290020C0
:1055B000842E0020AC2E0020D428002000210020C2
:1055C0004C27002032413003D62E0020982C00209A
:1055D000C43100200080BB4458210020591900200C
:1055E0005A190020C8110020AE4DC3EBC303234459
:1055F000DFF8BC82DFF8BCA20A930A9BA34240F00A
:105600000B8300254FF00C096427A74EDFF8A0821A
:1056100009FB0583B6F9024093F90A00444394FB61
:10562000F7F4E8B2748008F0B3FF01352044082D88
:1056300026F8020FECD19D4C9D4D236813F0200FEE
:1056400030D0002008F0A4FF9A4E80463080012020
:1056500008F09EFF07467080082010F077FF08B31F
:10566000954B95F90A1093F8EE31012B934B40F0CE
:105670004583484295F91620B3F90210B3F900307A
:105680004143534332206FF0310291FBF0F193FB21
:10569000F2F293FBF0F00A44A8EB020232800844D5
:1056A00038447080DFF8009200234A46EE18B6F9BD
:1056B0000410B2F90200B6F90660884203DB8642A4
:1056C0003146A8BF01460C33602B22F8021FEDD1F2
:1056D0007B4EB389002B40F02183774F97F8003140
:1056E000013B182B00F24A83DFE813F03A0348032A
:1056F0004803AC034803480348039903480348039D
:10570000480348034803B8034803480348034803D1
:105710004803AC03C90348034803B8033A03012311
:10572000FFF791BA00230C93FFF796BA414648461B
:1057300011F066FDFFF7DCBAD4F8A890D4F8AC807D
:105740004946404612F018F800B9C8465B4BB3F919
:105750000000B3F902300028B8BF4042002BB8BFA8
:105760005B429842B8BF184611F000FE554911F04F
:1057700051FE554B82461B78002B57D0534B294680
:10578000D3F800B0584612F001F8002800F08780E6
:105790004F4B2946D3F80090484611F0F7FF0028F8
:1057A0007DD008F100404B4911F034FE594611F00C
:1057B000E5FE4FF07E5111F025FD514680464846EA
:1057C00011F01EFD494611F0D9FE4FF07E51814681
:1057D00011F0C8FF08B94FF07E592946484611F02C
:1057E000CBFF00B9A9464146484611F013FE814659
:1057F000394B0E98196811F00DFE4FF07E5180461E
:10580000484611F0AFFF08B94FF07E592946484687
:1058100011F0B2FF00B9A9464946404611F0FAFD21
:105820000146384611F0EEFCFFF7A6BA2B4B2C4987
:10583000D3F80090484611F08BFF60B349464FF013
:105840007E5011F0DDFC274911F0E4FD51468346FE
:10585000254811F0D5FC0146584611F0DBFD4946BC
:1058600011F0D0FC194B196811F0D4FD814629467E
:10587000484611F077FF90B94946164811F07EFE70
:1058800008F100480146404611F0C4FD4FF07E513A
:1058900011F0B8FCABE70D4BD3F80090E7E7A94651
:1058A000A6E700BF4E12002056210020002900204C
:1058B0003C1A00205821002080100020C431002014
:1058C000B81A0020CDCCCC3D703000206C300020C8
:1058D000743000200000C84268300020783000207A
:1058E000AE47813F610BB63B00003443B04B1B68B1
:1058F0009B077FF575AA0A9B059AB3F90000AD4B8B
:1059000033F91230C01A11F031FDAB4B0746AB49E9
:10591000186811F07FFD0146384611F07BFD5946AD
:10592000074611F06DFC8046FFF75ABAD046FFF7E4
:1059300057BA4FF001034FF07E51D4F8E8001093AE
:1059400011F01AFFFFF72EBB2946FFF76BBB94F847
:10595000F830002B3FF4C9ABFFF7C2BB072B04D1D3
:1059600004F0F2FC0790FFF7FCBB00230793FFF75E
:10597000F8BBB4F8380111F0F9FC81460146304615
:1059800011F0FAFEF0B18E4BD4F83C111868C4F84F
:105990001811C4F82411C4F8200111F031FC0123BE
:1059A000C4F8280184F82C31304611F035FF4946FF
:1059B000A4F81401304611F023FCC4F83001D4F8E7
:1059C00040510EE4B4F81431434514D87D4BD4F85B
:1059D0001C111868C4F82011C4F81801C4F8241167
:1059E00011F00EFCFF23C4F8280184F82C31C4F810
:1059F0003051FFF7F4BB724BD4F83C111868C4F86F
:105A00001811C4F82001C4F8241111F0F9FB012386
:105A1000C4F8280184F82C31C4F83051CFE76A4B20
:105A2000588B11F0A3FC0146F06811F0E9FB654BBF
:105A3000C4F830011968624BC4F818111868C4F82A
:105A40002411C4F8200111F0DBFB0123D4F84451E8
:105A5000C4F8280184F82C31FFF7C3BBB04636E404
:105A6000D9F8041040460D9311F0D4FCD9F8081071
:105A70000C90304611F0CEFC0C9A0146104611F005
:105A8000C1FBD9F80C100C90204611F0C3FC0C9A05
:105A90000146104611F0B6FB394611F0BBFC5946E1
:105AA0000C9011F073FE0C9A0D9B70B91146504684
:105AB00011F058FE0C9A0D9B00B9924614A941F8BA
:105AC000232009F1100901336EE49346F6E756F8F6
:105AD0002500394611F09EFC46F8250001357EE48C
:105AE00010F03AFD38B94FF07C51284611F04EFEC7
:105AF00000283FF47FAC4FF07C51304611F08AFC17
:105B00002946064611F042FE50B931464FF07E500C
:105B100011F076FB2946064611F024FE00B92E4608
:105B2000C4F8306166E4294A2B0199580D9811F0A8
:105B300071FC14AB53F8251013900C9811F06AFC0B
:105B4000139B0146184611F05DFB0E9911F062FCA3
:105B50000F9911F057FB119BEBB111F037FE404547
:105B600003DB5045A8BF504600E0404611F0FEFB65
:105B7000129A034652B14CB146B9139010F0ECFCA6
:105B8000139B18B9109A9742B8BF5B46104A42F867
:105B90002530013562E411F019FE4845E1DA484646
:105BA000E4E752F8241043F8241001345DE400BF08
:105BB00088210020C431002064300020CDCCCC3DB1
:105BC000FC1F002000380020D4280020C81100202D
:105BD00000210020BA49099811F01CFC11F0F6FDD3
:105BE000B749ADF850000A9811F014FC11F0EEFD21
:105BF000B349ADF852000B9811F00CFC11F0E6FD22
:105C000000B2ADF85400002E3FF45CAC238B9F42F1
:105C1000BFF658AC404253E4A07928B11630C0B268
:105C200010F094FC002867D094F800E094F9051077
:105C300009FB0E83DA889B8894F801C0D21A94F984
:105C4000043092B2534393FBF7F34FEA520BA3EBAA
:105C50000B030991E1781BB208934FEA4C0681BB14
:105C60001CA90E4436F8201C2980012309FB0EF1E3
:105C700058F8011003FA0CFC1CEA010FB5F900609A
:105C800094F9021008BF184601FB06F191FBF7F1E9
:105C9000089B18BF4FF0FF30994209DB099B5A431C
:105CA00092FBF7F2A2EB0B031BB28B42A8BF0B4691
:105CB0003AF81E2000FB03232AF81E300235073471
:105CC0009BE41CAB1E44B5F9000036F9206CB042D1
:105CD00008DA0144884203DC8E423046A8BF0846F9
:105CE0002880C2E7C1DD411AB14203DB8842A8BF68
:105CF000084606462E80B8E72880DFE7B3F9022081
:105D0000B3F900004A43322192FBF1F2424432805F
:105D100095F91620504390FBF1F0C1E40027DFF81D
:105D2000C081B9F9020011F021FB07EB47030146DE
:105D300008EB030003F03EFB12F066FBEA19B2F930
:105D4000043000B29842B2F9062003DB82421346C7
:105D5000A8BF03460C37602F29F8023FE1D1BCE40D
:105D6000B37B002B54D0574BB3F90A0011F0FEFA65
:105D70000146002010F080F90123069323689A065B
:105D800003D497F80031052B16D14E4DB5F900001C
:105D900011F0ECFA0146069810F07EF9B5F9020010
:105DA00011F0E4FA069B01460133D8B210F074F901
:105DB000069B0233DBB206932368DB0215D5002471
:105DC000F67B414FE5B27319DBB2112B0DD83319B5
:105DD00037F9130011F0CAFA069B01461D44E8B2D8
:105DE000013410F059F90E2CECD1384C94F8CC2138
:105DF000002A57D1364B1B78072B05D104F0A4FAA3
:105E0000079BC01A334BD88001232370FEF787BC51
:105E1000314B187810F00100A5D10021AAE7294DD7
:105E2000B5F9060011F0A2FA0146002010F024F99D
:105E3000B5F9080011F09AFA0146012010F01CF99A
:105E400002239AE71F4DB5F9080011F08FFA0146B9
:105E5000002010F011F9B5F90A00EBE70225DFF890
:105E6000648038F9150011F081FAAB1E0146013546
:105E7000D8B210F011F9082DF3D106237DE7114DAA
:105E8000059B35F9130011F071FA059B0146033BA0
:105E9000D8B210F001F9059B0133072B0593EFD120
:105EA00004236AE70EF008FAA4E70C4B074A1B68C4
:105EB00003F59C530833C2F8C030FEF73BBD00BF6A
:105EC0003333333F58210020AC2E002080100020B7
:105ED00084210020F8200020842E0020D42C0020D3
:105EE000701200200346012283F8452053F8043C39
:105EF000103803B118477047022310B50168047BBE
:105F00000A68A3401A420AD00024054A4068147067
:105F1000026822F001021204120C02604B6010BDF4
:105F20008C2E002024234343F0B5A14CA14AE11854
:105F3000E3585B689E8AB6B2F5B215F0010F4ED0F9
:105F40001D8825F400652D042D0C1D801D88ADB223
:105F500045F480651D80002515708D7E002D31D0A3
:105F6000557815B9C97DFF292CD101215170242103
:105F700001FB0041097E022901BF198889B241F461
:105F800000611980242101FB0041897D41F001015C
:105F90001982242101FB0041097E92F90050013150
:105FA0008D420ED10021517092782AB19A8822F444
:105FB00040721204120C9A80242303FB0040002339
:105FC0004375F0BD242101FB00418D7D05F0FE05E8
:105FD0001D82C97DFF29DCD0FF211170D9E7AF07F1
:105FE00044D5BFF35F8F0D7EEDB2012D18D1897EB0
:105FF000B1B15178A1B1198821F480610904090C6B
:106000001980BFF35F8F198B1988957089B241F49D
:1060100000711980998889B241F480619980B8E74C
:10602000198BBFF35F8F242101FB00410D7E022DF0
:106030000FD1897E69B1517859B1198821F48061F5
:106040000904090C1980998821F480610904090C5C
:10605000E4E7242101FB00410D7E032DDAD1897E86
:106060000029D7D051780029D4D0ECE76F075CD550
:10607000012595708D7E002D3FD05578002D3CD0A8
:106080000D7E92F90060022D0F6A1D8821D925F43A
:1060900080652D042D0C1D80B3F810E0F5B25FFA79
:1060A0008EFE07F806E01E88B6B246F400761E8023
:1060B0000E6AA91C1170198A0135C9B26DB27155E9
:1060C000998889B241F4806199801988C905FCD406
:1060D0005FE7ADB245F400751D80B3F810E0F5B28E
:1060E0005FFA8EFE07F806E00F6A198A6E1C76B218
:1060F000C9B20335B9551570E7E7517821B92421A4
:1061000001FB0041497E41B1198889B241F4007117
:106110001980117801311170D7E7198889B241F4DB
:106120008071198001215170CFE715F0400521D011
:1061300092F900C0B3F810E00F6A5FFA8CF65FFACC
:106140008EFE751C07F80CE06DB20F7EE91C8F42C5
:10615000157005D1998821F480610904090C998092
:10616000242101FB0041097E8D427FF412AF0236EB
:1061700016700EE737067FF50CAF92F900707E1CA3
:106180000AD0CE697D1CF65D6DB21E82097E157047
:10619000A9427FF4FEAE56E71570CD7D1D828D7E3F
:1061A000002D7FF450AF097E00297FF4F2AE4AE75C
:1061B000CC140020971300200346022210B41C7B4D
:1061C0001968A24040694A605A6810BC136823F0FD
:1061D00001031B041B0C136004F038B910B5084B05
:1061E00007281B68C8BF14381844007E0C4604F00A
:1061F000ABF920B12146BDE8104004F0F7B910BD5D
:10620000480C0020F7B5054690F85900002873D0D7
:1062100004F09AF9044618B1202383710023C37156
:106220000621204604F0B6F9344B2B61002C63D0D4
:10623000A388B3FA83F3C3F11F035A1C4FD04FF066
:106240000F0E2F4A103542F82350DAB202F0030540
:1062500002F0FC0202F1804202F580329768216868
:10626000AD000EFA05FE27EA0E0701F140419760E6
:10627000A1F584319768C1F38721A94039430127EB
:1062800020489160C65C07FA03F3D9431E4A536164
:1062900015680D40156055680D40556015681D4323
:1062A000156095680D409560D5682940D16091686A
:1062B0000B439360154B9A5DF02A10DDF0223044B9
:1062C0009A55037C01A88DF8043003238DF805301E
:1062D00000238DF807708DF806300CF0EDF8A388D8
:1062E0000122B3FA83F3C3F11F0312FA03F31FBFB2
:1062F00005490A6813430B6003B0F0BDE55E000872
:10630000D80A00200CAE010800040140180B002040
:10631000C26C70B515880446ADB2A90606D5036BEC
:1063200023B9C36AA3B1908880B298472B0620D5C1
:10633000636AA26A9A42E36C17D0511CA069A162F9
:10634000825C9A802369994213D30023A36270BDB3
:10635000E169928840694E1CD2B2E6614254E1691B
:10636000E268914228BFE361E0E7DA6822F0800248
:10637000DA6070BD70B50446C56C8668AB8986B0BE
:1063800023F400531B041B0CAB818379617913F058
:10639000020F14BF4FF40052002213F0040F14BF79
:1063A0004FF48060002011F0010F14BF042300237C
:1063B0008907298A48BF43F0080389B221F4405174
:1063C00011432982AA8922F4B05222F00C0212044D
:1063D000120C02431343AB81AA8A01A822F4407233
:1063E0001204120CAA820CF074FC294A039B049933
:1063F000954218BF19461922AB894A4313F4004F3E
:1064000014BF7100B100B2FBF1F16426B1FBF6F3E9
:10641000AA891801120406FB13132ED5DA003232B2
:10642000B2FBF6F202F0070242EA00039BB22B81B4
:10643000A379DB070BD5E36C154A934225D0A2F56F
:106440007442934203D101200121FFF7C7FEA379D3
:10645000E26C13F0080F938A0BBF23F008039BB282
:106460001B0443F0080308BF1B0C938293899BB263
:1064700043F40053938106B070BD1B013233B3FB6C
:10648000F6F303F00F030343D0E70020DCE700BF7F
:1064900000380140072838B5D8BF04460B4BC8BFA9
:1064A000A0F114041B6805462344187E04F04CF840
:1064B00058B127220134C4718271122104F06AF8A4
:1064C0002846BDE83840002188E638BD480C002049
:1064D0000348D0F8B0300BB1A8301847704700BF60
:1064E000240000200348D0F894300BB18C301847BA
:1064F000704700BF240000200248836F0BB170304A
:1065000018477047240000200248C36D0BB1543077
:1065100018477047240000200248036C0BB1383044
:1065200018477047240000200248436A0BB11C3012
:1065300018477047240000200248836803B11847B9
:10654000704700BF240000202DE9F04FB0F1FF3F5D
:1065500087B0804600F0F580242000FB08F0824BD5
:106560001E581F189946002E00F0EB801430184476
:1065700010220021746814F012FABD6808F10103BA
:10658000FF68DBB215B11522EB71AA7117B11622A3
:10659000FB71BA71B07B0BF071FFA388284623F41E
:1065A00040731B041B0CA38004F01BF8384604F056
:1065B00018F81621284603F0EDFF1621384603F09F
:1065C000E9FF4FF0080A4FF0640B25B12B68AA8849
:1065D0009B681A4203D1BBF1000F40F0B5802846FA
:1065E00003F0FAFF0A2003F0F7FE284603F0F9FF54
:1065F0000A2003F0F1FEBAF1010AE6D1384603F0B1
:10660000EBFF0A2003F0E8FE284603F0E5FF0A202E
:1066100003F0E2FE284603F0E4FF0A2003F0DCFE6C
:10662000384603F0DEFF28461F2103F0B3FF1F2189
:10663000384603F0AFFF4D4B4D4F9C4203F5DE3320
:106640001A6901A80BBF42F4001242F480021A61D9
:106650001A610BBF1A691A6922F4001222F480022F
:106660001A61A388434A23F440731B041B0CA380C4
:10667000242303FB089898F81030002B08BF174616
:10668000238807EB47079BB243F001032380A588CB
:106690000CF01FFB039B384825F03F05B3FBF0F0DF
:1066A0002D042D0C0543ADB2A58021884FF49672C0
:1066B00021F001010904090CB3FBF7F321804FF429
:1066C0007A7142439BB2002B92FBF1F208BF012387
:1066D000013292B243F400432284A383238800252D
:1066E0009BB243F001032380238801A823F4816334
:1066F00023F002031B041B0C43F4806323804FF43C
:1067000080432381238823F080031B041B0C2380F8
:106710000124337C8DF805508DF804308DF8065037
:106720008DF807400BF0C8FEF37B9DF807208DF82D
:1067300004308DF805508DF806505AB101A80BF0C1
:10674000BBFE07B0BDE8F08F0A2003F045FE0BF159
:10675000FF3B3AE75A09094903F01F0304FA03F320
:10676000203241F82230ECE7CC14002000540040E5
:1067700000350C00801A060040420F0000E100E0E6
:10678000F8B52425214F069C05FB00756E680EB3F5
:106790004900C9B2A975EA75012100226A76A97675
:1067A0002B7669752A75B3882C629905EC611ED425
:1067B0003388DA0516D44FF4805433889B050CD502
:1067C000013CFAD1124A138801339BB21380FFF7C0
:1067D000BBFE00E034462046F8BD33889BB243F44C
:1067E00080733380B3889BB243F44073B380242317
:1067F0004FF4805403FB00777B7D13B1013CFBD148
:10680000E0E73C7D84F00104E5E700BFCC14002004
:106810002C1C00201FB5012202AB044600931C2152
:1068200006231046FFF7ACFF08B304219DF808309B
:106830009DF8092042EA032242F38D0292FBF1F215
:106840009DF80A30E2829DF80B2042EA032242F3CF
:106850008D0292FBF1F29DF80D3022839DF80C2001
:1068600043EA022343F38D0393FBF1F3638304B004
:1068700010BD1FB502AB0446009302220623182167
:106880000120FFF77DFFB8B19DF809309DF8082081
:106890001B0203EB9203E3829DF80B309DF80A2064
:1068A0001B0203EB920323839DF80D309DF80C200F
:1068B0001B0203EB9203638304B010BD2DE9F04388
:1068C000314B85B01B78054602AE002B3DD000242D
:1068D0002746A046A14601340096082332225321C0
:1068E0000120E4B2FFF74CFF18B9002005B0BDE865
:1068F000F0839DF809209DF80830202C03EB02233B
:106900001BB29DF80B2099449DF80A3003EB02233B
:106910001BB298449DF80D209DF80C3003EB022328
:106920001BB21F449DF80F3003F07F0301D0002BF2
:10693000D1D199FBF4F998FBF4F897FBF4F4A5F89E
:106940001690A5F818806C83D0E7009606233222B3
:1069500053210120FFF714FF0028C6D09DF809201D
:106960009DF8083003EB0223EB829DF80B209DF885
:106970000A3003EB02232B839DF80D209DF80C3089
:1069800003EB02236B83B1E7FE150020242343436E
:1069900073B5244E0546F218F3585C68A38A9BB27F
:1069A0000193019B13F4706F1CBF01231375019BAE
:1069B00013F4E06F1DD0238BA38823F480631B04A2
:1069C0001B0CA380019B9B0513D42388980510D42E
:1069D0002388D9051AD52388DA05FCD423889BB2ED
:1069E00043F40073238023889B05FCD42846FFF7DB
:1069F000ABFDA38A23F470631B041B0CA382242326
:106A000003FB056500236B7502B070BD23889BB244
:106A100043F400732380A38823F440731B041B0CEE
:106A2000A380E6E7CC14002073B5441C8DF8073032
:106A30002AD0022828DC2423214E03FB00635D6852
:106A400015B34900C9B29975DA75002101220DF11B
:106A500007045A7699761A765A751975DC611C62A4
:106A6000AB8899051DD42B88DA0515D44FF48054D2
:106A70002B889B050BD5013CFAD1124A13880133B0
:106A80009BB21380FFF760FD002002B070BD2B8821
:106A90009BB243F480732B80AB889BB243F440736A
:106AA000AB8024234FF4805403FB0066737D13B145
:106AB000013CFBD1E1E7307D80F00100E5E700BF5C
:106AC000CC1400202C1C002010B500232A221C21ED
:106AD00004460120FFF7A8FF02230E221C210120FB
:106AE000FFF7A2FF03230F221C210120FFF79CFFC9
:106AF00012232B221C210120FFF796FF152003F003
:106B000023FD18B1202383710023C371062103F0F4
:106B100041FD02232C221C210120FFF785FF0123C8
:106B20002D221C211846FFF77FFF00232E221C2157
:106B30000120FFF779FF05232A221C210120FFF7FE
:106B400073FF4FF48073A38210BD10B50823044671
:106B50000F2218210120FFF767FF0E2310221821B2
:106B60000120FFF761FF4FF48053A38210BD184B43
:106B700010B51B780446DBB108232D2253210120D8
:106B8000FFF752FF0A23312253210120FFF74CFF68
:106B90000C232C2253210120FFF746FF902338229B
:106BA00053210120FFF740FF4FF48073A38210BDF3
:106BB00008232D2253210120FFF736FF0A2331221B
:106BC00053210120FFF730FF0A232C22E8E700BF02
:106BD000FE1500200120FFF7A5B90120D6E6002010
:106BE000FFF7A0B90020D1E62DE9F0435C2885B07D
:106BF00005460C4600F07E8500F2D5803A2800F06C
:106C0000908341D82C2800F0378410D8222800F037
:106C1000E98304D80A2800F01D83002043E02628D9
:106C200000F081832A28F8D1BA4B197888E33228FA
:106C300000F07B840FD82E2800F07D843028ECD122
:106C40000025B54E56F825102046013502F07CFE91
:106C5000202DF7D144E1342800F0E2833628DCD13E
:106C6000AE4DAF4F05F12006002395F90220D9194A
:106C700091F90610914200F07B850833202BF6D164
:106C80000835AE42F0D12BE1462800F0B08436D86A
:106C90003D2800F0538309D83B28BED101200B6862
:106CA0005A1C0A60187005B0BDE8F083402800F057
:106CB0003F844228B1D1974B20461A780B68994DF2
:106CC000591C21601A70984B196802F03DFE974BD1
:106CD00020461A7A2368591C21601A70298802F00C
:106CE00047FEA988204602F043FE2989204602F08B
:106CF0003FFE0021204602F03BFE002105E34F2825
:106D000000F0AC8420D84B2800F0F5834D2884D1C6
:106D10000025874F874E3B789D4280F2E1802368B3
:106D200016F81510581C06EB4502206019705178B2
:106D3000204601EB810101EB810101F2EE2189B2D4
:106D400002F016FE0135E6E7502800F067845A2865
:106D50007FF463AF784E0B68F278002A00F0BF84AE
:106D60005A1C0A6008221A700B685A1C0A60012219
:106D70001A70724D23682A79591C21601A70236891
:106D8000AA78591C21601A702988204602F0F0FD6B
:106D9000E989204602F0ECFD2368F279591C216054
:106DA0001A70EA7815E1702800F0CF8200F216819F
:106DB000672800F05E8200F29580602800F0C984A8
:106DC00052D85E287FF429AF00260021204602F029
:106DD000CFFD0021204602F0CBFD0021204602F02D
:106DE000C7FD2368564D5A1C22601E702B68204632
:106DF00093F82C202368591C21601A702B6893F893
:106E000036202368591C21601A702B6893F83720AC
:106E10002368591C21601A7023685A1C22601E7056
:106E200023685A1C22601E7023685A1C22601E7040
:106E30002B68598F02F09CFD2B682046198F02F0B9
:106E400097FD2B68204693F82E202368591C21605B
:106E50001A7023685A1C22601E702B68598E02F02B
:106E600087FD2B68998E50E2652800F037816628EF
:106E70007FF4D3AE334EB28AB2F5006F00F2E681F2
:106E8000B2F5806F00F2E481B2F5007F2CBF0227DB
:106E9000012700257319996B204691FBF7F1043502
:106EA00089B202F065FD0C2DF4D10125264E274F45
:106EB000396A56F8250010F061FB11F0A5FA01358A
:106EC00081B2204602F054FD042DF1D10025204E60
:106ED00036F825102046013502F04AFD032DF7D182
:106EE0000120E0E66C2800F0018235D8682800F027
:106EF000E78169287FF491AE00250D4E154F337858
:106F00009D42EDDA37F81510204602F031FD0135CB
:106F1000F5E700BF8C210020042D0020C62B0020A7
:106F2000EC2B00207C0C0020CC200020D42800205A
:106F3000C42800202E19002012290020E837002044
:106F4000A020002028200020B42B00202829002089
:106F5000D4330020AC2E00206D2800F0DA816F2899
:106F60007FF45BAE574D2B681A780B68591C216073
:106F70001A702B689A782368591C21601A700023B4
:106F80002A681A44517922680133501C032B20606F
:106F90001170F5D12B6820461A7A2368591C21609C
:106FA0001A702B68DA782368591C21601A702B68D4
:106FB0001A792368591C21601A702B68598902F0CC
:106FC000D7FC2B685A7A2368591C21601A702B68E9
:106FD0005A782368591C21601A7081E77E2800F0D6
:106FE0006F832AD8782800F04A810DD875287FF45D
:106FF00014AE354A12F8013F002B3FF471AF2168FF
:10700000481C20600B70F5E77C2800F03A837D284F
:107010007FF403AE2D4B22681978501C206011704C
:1070200022685978501C206011709A782368591C86
:1070300021601A70264BD98867E196284ED010D867
:107040007F2800F0908283287FF4E7AD214D204611
:10705000298A02F08DFC698A204602F089FCA98AFF
:1070600053E1F02800F00182F1287FF4D6AD1A4BED
:1070700003F1700122681878551C25601070226891
:107080005878551C2560107022689878551C25602A
:1070900010702268D878551C256010702268187905
:1070A000551C2560107022685879551C2560107099
:1070B000226898790733551C994225601070D9D100
:1070C0000EE700BF6C3C002022AE0108A420002087
:1070D000643C0020E8370020CA19002000264FF643
:1070E000FF78AB4FDFF8F092009601960296039678
:1070F000F1574B1C0BD048FA06F3D80707D5B9F85F
:1071000000303341DA0702D502A802F0E9FE013669
:107110000B2EEDD100260FF27029D9E900893246F5
:10712000404649460FF0BAFB002100F0010050EA4A
:10713000010307D0F0B20FF009FA18B1314602A8E6
:1071400002F0CEFE0136252EE9D100273E46914BB6
:10715000DFF888821B78DB0742BF029B43F0010304
:1071600002933946404602F0C7FE48B1394602A8AC
:1071700002F0C2FE18B13146684602F0B1FE013697
:107180000137252FEDD1844B2046B3F8501002F083
:10719000EFFB824B20461988814F89B202F0E8FB51
:1071A000804B204619684A01C1F3400302F02002D7
:1071B0001343C1F3800243EA4203C1F3C00243EA2E
:1071C0008203C1F3401243EAC20301F010011943E4
:1071D00002F0CEFB04226946204602F0ABFB236896
:1071E0003A78591C21601A706F4B2046198864291F
:1071F000A8BF642102F0BCFB962D22D123685A1C43
:10720000226003221A7023687A78591C21601A7050
:107210000822193E96FBF2F2236882F30402591CFD
:10722000216020461A7001A902F084FB23685A1CD1
:10723000226010221A705D4B1988204602F084FBF0
:107240004EE60021204602F093FBE1E7082720E606
:1072500004271EE656480FF019FB002354498342C9
:10726000BFF63EAE22685D5C561C26600133157089
:10727000F5E710224F49204602F05CFB30E64E4D08
:1072800005F16006A988204602F072FBE9882046D5
:1072900002F06EFB2989204602F06AFB2368AA7A75
:1072A000591C21601A702368EA7A591C21601A70EF
:1072B00055F80C1B204602F047FBAE42E2D10FE628
:1072C000002518263D4FDFF8188106FB0573597C11
:1072D00031B92046013502F04BFB082DF5D1FFE511
:1072E00058F8250010F098FA81B2F2E7344D2046A4
:1072F000298802F03DFB6988204602F039FB0A2309
:10730000B5F9041091FBF3F189B2204602F030FB8D
:10731000E6E52C4B2046196802F016FB2A4B19882B
:10732000F3E7002189E7294D2046298802F020FB58
:10733000A988204602F01CFB2989E6E7244B9978AE
:107340002268501C2060117042E600212148036829
:1073500001EB41029D5C236801315E1C26601D70BB
:1073600003680A2913445D78236803F10106266047
:107370001D70036813449A78236803F101052560A2
:107380001A70E4D1ACE500BF90E33FF408000000C0
:1073900053AE0108842E0020000100202C1C002088
:1073A0000020002088210020301C0020142F002005
:1073B00014200020582100203C1A002074270020AF
:1073C000C4310020A81000208C1400207C0C002068
:1073D000C6200020A0200020D62E00208C0C0020EB
:1073E00000210020AC4D05F1500628780EF0F9FF81
:1073F0002368027A591C21601A7023686A78591C24
:1074000021601A702368AA78591C21601A702368B9
:10741000EA780435591CAE4221601A70E5D15FE567
:107420009E4B03F15A0122685879551C2560107053
:1074300022681878551C2560107022685878551CF1
:107440002560107022689878551C2560107022689D
:10745000D878551C25601070226818790633551CA1
:10746000994225601070DED13AE58D4D2046E989BC
:1074700002F07EFAA98948E78A4D0B682A7A591CDE
:1074800021601A70A98B204602F072FA298B2046DF
:1074900002F06EFA698B204602F06AFA2368EA7CF1
:1074A000591C21601A70A98C204602F061FAE98CFF
:1074B000204602F05DFA2368AA7F591C21601A70E9
:1074C000236895F82020591C21601A70698C204689
:1074D00002F04EFA2368EA7A591C21601A70E968B2
:1074E000204602F031FA23682A7C591C21601A7068
:1074F00095F821206DE56C4D0B682A79591C2160A7
:107500001A7023686A79591C21601A7029882046EC
:1075100002F02EFA2368AA79591C21601A70698832
:10752000204602F025FAEA7953E55E4B5A7D50E594
:1075300008225C499FE65D4D05F14006B5F88010D4
:10754000204602F015FA236895F88220591C216024
:107550001A70236895F883200435591CAE422160C7
:107560001A70EBD1BCE4514D0023062728460021B8
:1075700007FB03F6226802F1010EC4F800E0137065
:10758000226802F1010EC4F800E011708A192A4441
:1075900092F8C0E02268013102F1010C0629C4F81A
:1075A00000C082F800E0E5D10133062BDFD10022D4
:1075B00021684D1C25600B7021684D1C25600A70E8
:1075C000811891F8E450216801324E1C0B2A266084
:1075D0000D70EDD123685A1C226007221A702368AF
:1075E0005A1C226000221A7090F8F020F1E40AF090
:1075F00043F8002814BF0322022223682C4D591C93
:1076000021601A702988204602F09EF9A968204658
:1076100002F09AF902F0E6FC01460EE601250B683D
:10762000244E5A1C0A601D700B68B27859192160EB
:107630001A700DF041FE338858431F4BB3F90030E8
:1076400090FBF3F023685A19226018700DF034FE95
:1076500023685A1922601870318856E600250B6895
:1076600020465A1C0A601D700B685A1C0A601D7067
:107670000B685A1C0A6029461D7002F065F92946FC
:10768000DBE50E4D2046298802F072F96988204614
:1076900002F06EF9A98838E6641E0020041F00205D
:1076A000AA200020D4280020F0310020042D002042
:1076B0001404002028370020C4370020643C002038
:1076C0003A4B1A780B68591C21601A70384B9A781B
:1076D0002368591C21601A70364B9A7879E4B27885
:1076E000591C21601A70344B1A782368591C216088
:1076F000FFF73EBB2D4E0B687279304D591C21604F
:107700001A702B682046198C02F032F92B6820463B
:10771000D98B02F02DF97189204602F029F9B1893F
:10772000204602F025F92B682046598C02F020F9FA
:107730002B682046998C02F01BF9F189204602F053
:1077400017F9318A204602F013F92B6893F82620A6
:107750003FE4174BDA780B68591C21601A70184BFC
:107760005A792368591C21601A70124BDA7830E478
:1077700023682046591C21601A70298802F0F8F805
:107780002368EA78591C21601A7023682A79591CE9
:1077900021601A702368AA79591C21601A70236825
:1077A0006A79591C21601A70FFF76ABA1229002001
:1077B000AA200020BA20002078200020A02000204D
:1077C0002A3000202DE9F04FA74B00F59C4909F124
:1077D0002009C3F80090A54B8BB01C788046002C84
:1077E00065D1A34EA34DA44F33789C420093C0F2C1
:1077F000C18042F201024FF47A7AA04BB8FBFAFA48
:107800001B68134001939E4B06D09E4A12781A7053
:107810009D4A11789D4A11701E781EB19B4B1E78AF
:1078200086F001060F23032085F82430924B0024B4
:107830009A8CDB8C964D0393964B029293F800B092
:107840000AF59672BBFBF0F303EB4303ABEB0303C8
:10785000DBB20493904BA5F1260705920690009A9F
:107860009442C0F2AF80834B8C4D93F824308C4C03
:107870000F2B0CBF012200228A4B1A7040F0288186
:107880001B200EF063FE002840F022812B68E26886
:10789000A3609B1AC82B05D90123042084F821304A
:1078A0000EF0E4FF7B4A13780133137005E07E4A43
:1078B0001268904201D9013C1C70704B1A68019308
:1078C00012F4805F05D000200EF040FE08B909F0E8
:1078D00087F8694A537D9246002B00F019816E4A61
:1078E000013B32F913009AF817301BB1C0F53B6029
:1078F000083000B2A0F57A70B0F57A7FA8BF4FF4D7
:107900007A7020EAE0700FF031FD68490FF082FDD7
:107910000FF082FF664B1880664B614C984503D987
:10792000A3780BB90123A370A378DFF89CB1002BD7
:1079300000F0688194F821709BF800501B200EF035
:1079400005FE012F05F0010908BF0025534EDFF8A1
:107950007C81009018BF05F0020594F82030052BBB
:1079600000F24C81DFE813F0140171017C019D01EC
:10797000A801BE015048072CD4BFE15DE1B24368C5
:107980009847032C1ADCC8B14C4B33F8242003EB86
:107990008401831A4FF47A7058434B889B1A90FBEA
:1079A000F3F040F6CA0300F57A709842A8BF184673
:1079B00040F2EE239842B8BF184680B225F8140072
:1079C000013411E7C6B137F91400029A80B290422F
:1079D0004FEA840E02D3039A904220D9384A52F8D3
:1079E0000E0082450AD233F81400019AE2B923F856
:1079F00014000635013432E73046E6E7E0B207937B
:107A000006F040FD032C079BEFDC012297F824C011
:107A100002FA04FE2CEA0E0E87F824E0E5E7059A48
:107A2000274941F80E20E0E7049A97F86EE025F820
:107A30001200BEF1000F06D1BBF1020FD7D94FF0F3
:107A4000010287F86E20B5F800E068881D4A70448E
:107A5000B5F804E0704400B222F81400069A90FBD6
:107A6000F2F080B2C3E700BF381800205819002098
:107A7000440F0020A0130020D4280020002900205B
:107A8000852E002014180020100000201100002076
:107A9000C6130020F80E0020AC2E0020D42C0020AD
:107AA000F02E00206615002054190020AAF1823F14
:107AB000D42E0020404B4C00C4280020A81B0020DE
:107AC000FC0E002010140020842E0020F031002035
:107AD00001238E4A042013708D4A8E4E13700EF0CF
:107AE000CDFE2B68A268E3609B1A6268934284BF54
:107AF000002384F821300024874B1D78AC42BFF668
:107B0000D1AEE0B206F0BEFC26F814000134F5E771
:107B1000019A126811047FF5FFAE804AD2F88810EE
:107B2000A8EB01010029FFF6F7AE7D49C2F8889065
:107B3000487C7C4931F810009AF8161080B290FB0E
:107B4000F1F092F88C10013101F00F0182F88C10E5
:107B5000114481F88D0018468D32815C01300B4450
:107B600010281BB2F9D193FBF0F31BB2002B0ADBF8
:107B7000642BA8BF64239AF8172032B918B20FF00B
:107B8000F5FB6949C2E60023F5E7C3F16403F5E7B5
:107B9000B9F1000F2AD00EF0EDFC012806D16421C6
:107BA0003268B8F8023001FB03232361009B5BB10C
:107BB00098F8063043B10CF09BFF032384F8203083
:107BC0004FF47A73E361C8E6012F17D03368226956
:107BD0009A4207D20CF08CFF032384F8203040F641
:107BE000B833EFE7012384F82030B6E6009B4FF46A
:107BF00080603BB30EF02CFE0023236115B12846B4
:107C000003F0A6FA0EF0B6FC06460EF0A5FC474DB2
:107C1000002800F093809BF80030DA0740F18E8056
:107C2000BAF822000FF0A2FB414B0146D8680FF0D2
:107C3000A3FD002800F01D810122384B83F89D2010
:107C400001238EE00EF0F4FDD6E7012F01D10523CC
:107C5000C9E798F80730012BBCD00CF049FF7CE64F
:107C6000012F04BF052384F82030B9F1000F09D09B
:107C70000325BAF91820274B1A805A809A80B8F841
:107C80000020DA80336862699A4205D3294B1B7859
:107C900013B9B9F1000F35D147F23053E361032333
:107CA000A1E702200EF0EAFD08F09AFE3268E369CF
:107CB0001344A361042396E7012F0ED13368A26910
:107CC0009A429BD21C4B187818B90EF03FFC002842
:107CD00094D102200EF0CAFDB9E73268E36913447B
:107CE000A3618BE764213268B8F802304FF48060FA
:107CF00001FB03232361002384F82030E3700EF09E
:107D000097FD2AE6012F3FF428AE77E71000002008
:107D100011000020AC2E0020440F0020A0130020F2
:107D2000600C0020740C002014AE23418C11002044
:107D3000982C0020781100200000002000226E4BBB
:107D400083F89D20002E7FF47BAF00226B4B1A60DE
:107D50005A609A606A4B1B6893F82D30002B7FF4B1
:107D60006FAF2B709BF80030DB0724D5019B1B689D
:107D7000DF0620D5634A1278D5061CD4D8041AD45D
:107D80000EF0EAFBB8B9604B5B4D1B78002B00F09E
:107D90008B805E4B9B78002E75D1002B00F0868087
:107DA0005B4B1A685B4B1B689B1A002B7EDA08F052
:107DB00017FE85F89E6000221346BAF81A50BAF8EA
:107DC0001C70554931F912009B08A842C4BF63F0EA
:107DD0007F03DBB20132B842B8BF43F04003042A4C
:107DE000F0D1454D95F89F209A4266D14B4AB5F99E
:107DF000A0001268D1694A4A91FBF2F202F5FF42F3
:107E00007F32904206DC4FF47A7291FBF2F101442A
:107E1000A5F8A0103C4A85F89F301778002F40F055
:107E20006F8138460EF092FB00284CD085F8A37085
:107E300008F0F2FE9BF80030DB077FD495F8A20033
:107E400000287BD1B5F9A030322B77DD012295F8DF
:107E50009F3085F8A220572B40F09081314804F0E4
:107E6000B9FF314B1B685F0768D50A222F4B1A8078
:107E700064E0002E7FF4E4AE1F4B93F89D30002B9E
:107E80007FF4DEAE61E73BB14FF47A71204A1268AD
:107E900001FB03231F4A136095F89E30002B8AD004
:107EA00003F040F9002305E0002EF5D1102003F087
:107EB0004FF9012385F89E307DE70022A5F8A02028
:107EC00085F8A220A6E71A4B18609BF80030D90766
:107ED000B4D5184B1B788BB3E3787BBB95F8A330F4
:107EE0000133DBB2032B85F8A33027D9074B5B782E
:107EF00013B308F075FD9DE7A0130020E0200020DB
:107F0000A02000206515002000000020C6200020D1
:107F1000D42C002028220020AC2E0020FC2C002095
:107F200018FCFFFFDC290020882100201E220020F1
:107F30002C220020852E0020002EDAD0019B1B6809
:107F4000580728D595F8A6309BB19BF80030D90783
:107F50000FD5B84BB3F90620BAF81A309A4208DDAB
:107F600000200EF0F3FA20B9322385F8A600A5F818
:107F7000A83011200EF0EAFA002800F0778195F879
:107F8000AA302BB995F8A43013B93223A5F8A8303C
:107F9000012385F8AA300023A74D08AE089305F108
:107FA00050077360294615F8010C0EF0A9FA30B19C
:107FB00015F8021C242902D8304601F091FF04353F
:107FC000AF42EFD19D4B96E8030083E803009C4B42
:107FD0001E78002E00F05A8101200EF0B7FA994E5B
:107FE000994D18B9E378002B00F0568333689B074E
:107FF00040F152832C8814F0010440F05283012098
:108000000EF026FC02200EF0A1FA002800F04B83AF
:10801000002C00F0488301200EF00AFC2B889F07FB
:1080200002D402200EF014FC2988012011F0030173
:1080300018BF012102F010FB24200EF087FA38B996
:108040009BF800305C0744BF23F004038BF800303A
:10805000336813F00A0F17D006200EF077FA0028C5
:1080600000F025832B88580602D440200EF0F0FB48
:1080700007200EF06BFA38B10A22744BB3F90430C2
:1080800093FBF2F3724A13800C200EF05FFA002883
:1080900000F011834FF480700EF0DAFB6D4B1B780B
:1080A000082B01D00E2B02D140200EF0C1FB019B0A
:1080B0001B68590510D5684B1B79002B40F00083D5
:1080C0009BF80030DA0740F101834FF40F700AF09B
:1080D0005FFC002840F0FF820122604B1A7008F01C
:1080E00099FC33685B0708D503200EF02FFA0028AF
:1080F00040F0F88208200EF09BFB0BB0BDE8F08F3B
:108100005F2B20D1B5F9A030B3F5FA7FFFF616AF9B
:1081100095F8A230002B7FF411AF012385F8A2302F
:108120009BF8003013F0010602D008F059FC05E777
:108130000F2003F00DF8B5F8A03085F8A260FA3BE7
:10814000A5F8A030FAE66F2B7FF474AEB5F9A03035
:10815000B3F5FA7FFFF6F2AE95F8A230002B7FF46C
:10816000EDAE012285F8A2209BF80020D20702D4B0
:1081700008F052FDE2E63A4A1360DFE60199096829
:108180004E0716D55A2B14D195F8A43023B185F893
:10819000A40085F8A520D1E695F8A63083F0010368
:1081A00085F8A6301BB10B2002F0D2FFC6E60C20EA
:1081B000FAE75D2B00F0AB825B2B00F0AE825E2B0A
:1081C00040F0AD820320A3E2A72B05D1254A137806
:1081D00043F004031370B1E60022BB2B089218D1C0
:1081E0000223ADF82230204BBDF820109A890A44B2
:1081F0009A81BDF82210DA890A44DA8108F0DCF8A5
:10820000B5F8A030FA3BA5F8A030002385F8A230DD
:1082100094E6B72B02D14FF6FE73E2E7BE2B03D1F3
:108220000223ADF82030DEE7BD2B7FF487AE4FF69A
:10823000FE73F6E7AC2E0020661E00206839002091
:10824000B828002088210020D62E0020C43100202C
:10825000901000208C210020882C0020C8100020C5
:108260002C22002065150020AA20002095F8A430BB
:10827000002B3FF490AE9BF8003013F0010302BFD7
:1082800085F8A430012385F8A53084E64FF00C0969
:10829000BB4DBC4F05F15A08294615F8010C0EF0EC
:1082A0002FF9E8B12979AB7809FB0170B64A013B97
:1082B00003EB43031344D0F8B02095F803E0934256
:1082C0000ED0C0F8B030012303FA01F197F8DC308A
:1082D00080F8ACE023EA0101C0F8B46087F8DC1054
:1082E00006354545D8D1A94BDFF8B0821E68A84BAA
:1082F000A8F1AC051B680293A64B1B7803930023DF
:108300000093D8F80430002B6BD01F78002F68D072
:10831000D8F8082002998A1A002A0DDB01F5FA72B2
:10832000C8F808200122009902FA01F195F8DC2032
:1083300022EA010285F8DC20039A002A51D098F83D
:10834000002059780432D2B2002940F0528192497B
:1083500031F91210BAF8182002F1C80081422ADD62
:1083600093F8029095F8DC20009B1A41D20738D48C
:10837000B9F1000FCCBF0220012002F081FF7A1E6C
:10838000162A41D8DFE812F035004D00570067008B
:108390007E008500A000BB00D700E300EF00400096
:1083A000670074008500A000BB009400AF00CB0004
:1083B0000C0118012601C83A914203DA9978C1F1FB
:1083C0000009CFE70123009A03FA02F295F8DC30A6
:1083D00023EA020385F8DC30029B03F5FA73C8F840
:1083E0000830009B08F10C080133042B009388D15E
:1083F000F2E5317801204944FA29A8BFFA2121EA9F
:10840000E17131700EF0DEF8D5F8E0000BF09CFD64
:108410000123009A934095F8DC20134385F8DC3063
:10842000DFE7B178022049446429A8BF642121EA2A
:10843000E171B170E6E731798944B9F1640FA8BF01
:108440004FF0640929EAE97986F804900EF0CEF835
:1084500049460320D6E7B1790D2049446429A8BFD5
:10846000642121EAE171B1710EF0ACF80D2FCBD08F
:1084700071790E2049446429A8BF642121EAE17181
:108480007171BFE7F1790520494481F30801F17169
:10849000B8E7D5F8E0200F20D1784944C829A8BF13
:1084A000C82121EAE171D1700EF08CF80F2FABD00A
:1084B000D5F8E020122011784944C829A8BFC82166
:1084C00021EAE17111709DE7D5F8E02010201179C3
:1084D0004944C829A8BFC82121EAE17111710EF0F1
:1084E00071F8102F90D0D5F8E0201320517849442E
:1084F000C829A8BFC82121EAE171517082E7D5F8E7
:10850000E020112051794944C829A8BFC82121EA97
:10851000E17151710EF056F8112F3FF475AFD5F897
:10852000E020142091784944C829A8BFC82121EA35
:10853000E171917066E7D5F8E0200920917949440E
:10854000C829A8BFC82121EAE17191715AE7D5F87D
:10855000E0200A20D1794944C829A8BFC82121EACE
:10856000E171D1714EE7D5F8E0200B20117A494432
:10857000C829A8BFC82121EAE171117242E700BFF2
:10858000051F0020A01300205EAE01086C3C0020F7
:10859000D42C0020852E0020AC2E00204C1400206E
:1085A000717815204944B1F5967FA8BF4FF49671B4
:1085B00021EAE171717025E7D5F8E020162092F8E4
:1085C00037104944FE29A8BFFE2121EAE17182F853
:1085D000371017E7D5F8E020172092F836104944F5
:1085E0006429A8BF64210129B8BF012182F836108F
:1085F00008E701297FF40CAF504931F9121040F619
:1086000033029142A8BF11469A784FF49663B1F5B0
:10861000617FB8BF4FF4617193FBF2F3A1F5617113
:108620000C2F91FBF3F31ED0182F7FF4F1AED9B2CB
:10863000C8290B46A8BFC823D5F8E020D8B292F8C5
:1086400017E070453FF4E4AEA3EB0E034FF0080EC5
:1086500093FBFEF30133DBB2D075384604930DF083
:10866000B1FF049B11E0364ADBB252789A423FF4E4
:10867000CFAE184604930DF075FD049B384619469D
:108680000DF0A0FF049B0133DBB2002B3FF4C0AE22
:10869000184602F0F5FDBBE601200EF0C9F80124F2
:1086A000B0E40024AEE402200EF0C2F8BCE44020A6
:1086B0000EF0BEF8DCE44FF480700EF0B9F8EDE493
:1086C00014200DF043FF00287FF4FFAC0AF096FE63
:1086D00002F0C6FC00E502F0D5FA4FF40F700AF084
:1086E00025F9F6E42C8814F008047FF406AD082080
:1086F0000EF0AEF8134B1A68134B1A600F4BDA8862
:10870000124B1A80124B1C60124B1C60F5E40120C6
:108710000138C0B207F028FB10E40220F8E7562B1E
:1087200001D107F049FE95F89F30972B7FF44CADAF
:108730004FF4C872084BFFF79ABB00BFAC2E002065
:1087400000200020A8100020A41000209810002075
:108750009C10002094100020202200202DE9F04FD2
:1087600085B081460AF04AFECB4B1D78002D40F0C3
:10877000B483CA4F3B685A0540F1AF83C84BC94E1A
:108780001B68002B00F05A81C74C32682368D31A4B
:108790007C2B40F253814FF024082379DFF844A367
:1087A000013322602371AAF1340B40460AF000FE27
:1087B0005AF8040F0EF0DAFD0090BBF814000EF02A
:1087C000D5FD009A014610460EF0D8FEB7490EF0CE
:1087D00021FE0EF0FBFF08F1010800B25FFA88F8F5
:1087E0000AF0D6FDB8F1270FDFD130200AF0E0FD06
:1087F000B4F908000AF0CCFD0AF0D4FD23799B07F8
:1088000034D141F2883322689A421CD94FF064086F
:10881000DFF8D4A210200AF0CBFDDAF8000090FBBC
:10882000F8F000B20AF0B4FD21200AF0C1FDDAF838
:10883000003093FBF8F008FB10300028B8BF40422E
:1088400000B20AF0A5FD14200AF0B2FD984BB3F96E
:1088500004000A2390FBF3F00AF09AFD1C200AF0B2
:10886000A7FD00200AF094FD0AF09CFD237958072B
:1088700040F0BD8002200AF09BFD8E4BDFF86CA219
:10888000986A6423323090FBF3F000B20AF080FD66
:1088900003200AF08DFD884B1B7813F0010F00F0C8
:1088A00084810DF067FE854B85498046D8680EF0BF
:1088B000B1FD0EF0B1FF80B2B8F1000F04D13B68FA
:1088C00013F0100F18BF002000B20AF061FD9AF8F3
:1088D0000530002B59D07B4B93F800B0BBF1000F53
:1088E00053D04FF06408784A06201188019308FBA2
:1088F00001B14FEA4B08B1FBF8F1B4F80C800092DB
:108900004FEA08181FFA88F848EA01281FFA88F881
:10891000C1F3032148EA01080AF04AFD0FFA88F082
:108920000AF036FDA189009A013189B291FBFBF072
:10893000B2F80080654A0BFB101B517AA4F80CB00A
:108940000129019B40F0378139200AF031FD0FFAEF
:1089500088F00AF01DFD28200AF02AFD0A23DFF81E
:108960009081D8F8000090FBF3F000B20AF010FDFF
:1089700004200AF01DFDBAF80830002B00F04481F5
:1089800002F07CF800B20AF003FD03A950480AF097
:10899000D5FC13200AF00CFDBDF90C000AF0F8FC20
:1089A0001B200AF005FDBDF90E000AF0F1FC2320A2
:1089B0000AF0FEFC4E200AF0EBFC03A944480AF042
:1089C000BDFC12200AF0F4FCBDF90C000AF0E0FC3A
:1089D0001A200AF0EDFCBDF90E000AF0D9FC2220A5
:1089E0000AF0E6FC45200AF0D3FC0AF0DBFC237910
:1089F000282B23D100231720237134680AF0D8FCD8
:108A00004EF660204FF03C08B4FBF0F3B3FBF8F0F7
:108A100008FB1030000200B20AF0BAFC18200AF07D
:108A2000C7FC4FF47A70B4FBF0F0B0FBF8F308FB2E
:108A3000130000B20AF0ACFC0AF0B4FC254B1B7822
:108A4000002B00F09B80184C234A2369A9EB0303F9
:108A500093427CD90022214B9A701A711A4A1288CB
:108A6000D1B2120A9977DA7719755A753168626945
:108A7000891A164AD07A4FF47A724243914239D316
:108A800032686261164A1278013A012A9FBF1022A9
:108A90009A7002221A712DE0B828002000290020C7
:108AA000702C0020D42C00208414002000007A4474
:108AB000C43100202C210020842E0020982C00207E
:108AC000CDCC4C3E962C0020822C0020882C0020FF
:108AD00080969800C62C00203F0D03004C0F00200C
:108AE000D92E00205C200020A8100020DE2E0020BF
:108AF000202100200A20844AC4F81090116892684E
:108B000091FBF0F192FBF0F2642083F82020121226
:108B100083F821207D4A19771268091292FBF0F23E
:108B200002F5FA7292B29A76120ADA76A268597748
:108B300002F1300183F8221002F5EA4192FBF0F2D3
:108B400030310912783283F8231083F82420704BD7
:108B5000DFF8DC811A789A46002A00F07983D8F889
:108B6000000058B19AF80030002B7BD040F6B732A5
:108B7000236AA9EB0303934200F28E8033680093CB
:108B8000644B1B78002B00F00881634C2368002B9A
:108B900000F00381614B1B78013B012B00F2FD804B
:108BA000DFF89081DFF88491DAE00523BAF8080055
:108BB000B0FBF3F088E66E2000FB08F04FF01508DC
:108BC000527B90FBF8F022B193F8008080B290FBCA
:108BD000F8F01FFA80FB3A200AF0EAFB6423BBFBA3
:108BE000F3F80FFA88F000930AF0D2FB3B200AF06A
:108BF000DFFB009B03FB18B04FF00A0880B2053082
:108C000090FBF8F000B2A4E6D8F8080080F310005A
:108C1000B8E69BF8001021B1C4F818908BF800203A
:108C20009DE7A269A9EB0202B2F57A6F97D3012200
:108C300018688BF80020009301F050FC8346009BDD
:108C4000186801F04BFC1BF07F0F88D18E2886D16D
:108C50009AF80030002B82D1314BC8F800302D2318
:108C600023777CE72F4B1B689B781E3B012B2E4BF9
:108C70000DD91868022104300AF01AFB01238AF882
:108C80000030002384F82430C4F8209076E70221D5
:108C9000186801F01DFCF1E7237F13B90AF034FBDB
:108CA000F2E7013BDBB22377DFF87CE094F8241095
:108CB00094F8252053B94B1C013284F8243084F8F1
:108CC0002520DEF8000001F00FFCDDE7034613F875
:108CD00001CB01320CEB010084F82400C8F800300D
:108CE00084F825206146ECE7206801F0F7FB83B2A9
:108CF0007E2B326820D1002389F8263089F827306E
:108D000088F801302CE000BF20210020A8100020AE
:108D1000BC2C0020C82C0020782C0020D02C002057
:108D20004C0F0020B42C0020B02C00208414002014
:108D3000B82C00200C00002098F8011081B999F897
:108D40002620002A40F0D6801B2B40F0C9802068E6
:108D500001F0C7FB002840F0EF80012389F827309D
:108D6000206801F0BEFB0028BED1BC4C94F8353021
:108D70000BB184F83500DFF814B3DFF81483DFF8A3
:108D8000149394F8273043B13368009A9B1A012B4F
:108D900040F2E180002384F82730B14B1B78002B90
:108DA00000F09680AF4B1B68002B00F09180AB4F1A
:108DB0003668FB6BF31A632B40F28A800A24DFF8D3
:108DC000D88241200AF033FAB8F9020090FBF4F09F
:108DD00080B20AF023FAB8F9000090FBF4F080B2F8
:108DE0000AF01CFAB8F9040090FBF4F080B20AF023
:108DF00015FA0AF0FBF997F84030D80745D49A4B9A
:108E00001B88D90513D4DA0600F1F0819C0600F125
:108E1000EF81580600F1EE81190700F1ED81DA07C4
:108E200000F1EC8113F0020F0CBF012503258F4BDD
:108E30001C788F4B04F00104DB780BB144F0020482
:108E400053200AF0F4F98B4B188800EB800000EBFC
:108E50008000800080B20AF0E1F900200AF0DEF91B
:108E6000FE20854B1B88584340F2FF3390FBF3F004
:108E7000C0B20AF0C3F900200AF0C0F944EA850044
:108E8000C0B20AF0BBF90AF0B1F997F840309BB9CB
:108E90004F200AF0CCF909F083FD09F081FD09F0BB
:108EA0007FFD01200AF0AAF9744B187800F0010048
:108EB0000AF0A4F90AF09AF90A2197F84030FE6303
:108EC0000133DBB2B3FBF1F201FB123387F8403020
:108ED0006B4B1B78002B40F0B68105B0BDE8F08FDE
:108EE0000D2B29D1012189F8283089F82610A9F8FD
:108EF000322035E77D2B03D1012389F834302FE769
:108F000099F834E0BEF1000F04D080F02000C3B225
:108F100089F83410511CC9B24A44092989F826102D
:108F200082F828300AD1B9F83220C2F1FF02934208
:108F300002D1012389F835300123E1E608293FF603
:108F40000FAFB9F83200034403EB132303F0FF0320
:108F5000A9F8323004E794F836303BF8130018B91A
:108F600084F836004FF4036094F83630B0F5826F21
:108F700003F1010384F8363000F0E1805BD8B0F5EE
:108F8000007F00F0B6800ED8B0F5807F00F0BC8086
:108F9000B0F5887F7FF4F5AED8F800305A077FF53A
:108FA000F0AEA1689DE0B0F5047F00F08580B0F5DB
:108FB000806F7FF4E6AE94F8373042F210710133DF
:108FC000DBB2032B88BF012384F8373094F83730A5
:108FD00059432C4B1B88002B40F0AF800131234BB1
:108FE0001B78DB07204B48BF04311B88D80748BFDC
:108FF0000A319A0748BF1431180648BF2831DA05EC
:1090000048BF2831580748BF64311A0748BFC831E4
:10901000980548BF01F5C8719A0648BF01F57A71F5
:10902000D80648BF01F5FA615A0648BF01F57A61D2
:109030004FF4806055E0B0F5E26F7BD02ED8B0F5EC
:10904000C06F69D0B0F5E06F7FF49BAE0E4A916BB4
:1090500064234B43918A93FBF1F142E08414002096
:10906000DC2C0020AC2C0020D62E0020842E0020EA
:10907000F02E0020822C0020D42E00206515002028
:10908000DF2C0020142F002028200020A6AE01088D
:1090900088210020882C0020C4310020B0F5046F06
:1090A00042D0B0F5116F00F09280B0F5E46F7FF41C
:1090B00068AE734A116CCBE7724B5B79002B3FF4BF
:1090C00060AE714B197800293FF45BAE99F80D3012
:1090D0006E4A63B1138893FBF1F30A214FF40470D5
:1090E00059430AF0BBF8002384F8273049E6138877
:1090F000F3E7644B9B79002B3FF443AE644B196854
:109100000A2391FBF3F1ECE7D8F8003059077FF51B
:1091100038AE604B1968E4E75A4B9B79002B3FF45B
:1091200030AE5B4B9968DCE70A215B4BB3F9043046
:109130005943D6E7524AD16B8AE702314FE7D8F854
:10914000001011F0200A7FF41CAE3A68130605D512
:1091500051460AF083F884F827A012E699F80C30FB
:10916000002B3FF40EAE94F83830032B2DD8DFE8F7
:1091700003F002181F26494A1268107892F803E09B
:109180009179090401EB0E21014401EB03610133E4
:10919000DBB2042B08BF00234FF4826084F8383020
:1091A0009FE73E4A1268507892F804E0D179E8E7E8
:1091B0003A4A1268907892F805E0117AE1E7384A65
:1091C0001268507992F806E0F0E70021DDE72D4BB8
:1091D0005B79002B3FF4D5AD2B4B197800293FF478
:1091E000D0AD2A4B1A880A23534334E70D251EE6D7
:1091F00009251CE604251AE6082518E6022516E6C8
:10920000306801F06BF9274C804623783BB1013B75
:109210002370306801F065F90028F1D15DE6294638
:109220000322681E11F0A1FB0421681E87F8448008
:1092300009F05DFF0028ECD0681E09F073FF237869
:1092400018442070E5E7184F184E07F14205E0E793
:10925000174B01921868009301F043F9C0B201283E
:10926000009B019A7FF67BAC0228DFF848B03FF400
:10927000D0AC0AF03BF801238BF800306FE400BF5C
:1092800028200020DE2E0020962C0020822C00209A
:1092900020210020A8100020C4310020A0200020A0
:1092A0006C3C0020E82C002084140020E42C0020DA
:1092B000B02C00200C00002070B50124B0FBF4F5A8
:1092C0008D4202D21CB91C7070BD4C43F6E7B0FB56
:1092D000F4F6092E0BDD002A14BF37255725354437
:1092E00004FB160003F8015BB4FBF1F4EAE7302558
:1092F000F5E703685A1C026019707047002B2DE9CE
:10930000F04106460F46144614BF4FF030084FF0A8
:109310002008069B13F8012B3AB92546002D0FDCD7
:1093200024EAE47404E0013CF4E7002CFBDC0024B4
:10933000069D641B281915F8011B31B9BDE8F081A1
:1093400041463046B847013DE8E73046B847F1E7C7
:1093500070B50446A56808462B1D013544F8231056
:10936000E168A5600DF04EFF6668E060B54204BF9D
:109370000023A360A368043354F823100DF040FFCA
:109380000546E0602068864207DB30460DF0EEFFC0
:10939000014628460EF0F2F870BD013020600DF055
:1093A000E5FF014628460EF0E9F84FF07E510DF03A
:1093B00029FF70BDF8B50E460446016830460EF030
:1093C00029F861690DF01EFF6168054630460EF010
:1093D00021F8A1690DF016FFE168074628460EF056
:1093E00019F8014638460DF00BFFA1686061304660
:1093F0000EF010F82169064628460EF00BF80146DB
:1094000030460DF0FDFEA0612846F8BD38B5044693
:109410002568084629460DF0F3FE61680DF0FAFF55
:1094200029460DF0EFFE206038BD08467047002346
:109430002A22036042702B22C270012243604271D3
:10944000C3717047014B186801F04EB82C10002012
:10945000064B984209BF064A4FF0FF30538B013349
:1094600001BF9BB25383508B80B2704700380040DD
:10947000001600202DE9F74F254CDFF89CB054F87A
:10948000033C0193002B3BD0242327464FF00008D8
:1094900014F9075C1A4603FB05B60021304611F0AB
:1094A0007EFA0BEB050292F8489092F84AA017F862
:1094B000010F484503D1484601F046F8B060F878FE
:1094C000504503D1504601F03FF8F06008F1010823
:1094D000B8F1030FEBD1242303FB05F10BEB0102E1
:1094E000906868B1D06858B15D44E01F4BF8010046
:1094F00095F84C10019B117495F84E1053605174FF
:10950000044B14349C42BAD103B0BDE8F08F00BFC5
:10951000CFAE0108F7AE0108CC14002010B5427A96
:10952000044632B1036800F10A01406898470023FD
:10953000637210BD2DE9F341056906460F46002D03
:109540003BD1D0F80080C8F3090373B300234FF474
:109550000050D6F80080019309F05AFC042821D16C
:109560002A4C4FF40050236943F001032361BBB23E
:10957000A8F8003009F04CFC04283CD108F10203A3
:109580000193019B3F0C1F804FF4005009F040FCF9
:109590002369042823F001034FEAC3434FEAD3436E
:1095A00023612FD06FF0010507E04FF4302009F060
:1095B0002FFC042805D04FF0FF35284602B0BDE847
:1095C000F081124C4FF43020236943F002032361F1
:1095D000C4F81480236943F04003236109F018FCA8
:1095E0002369042823F002034FEAC3434FEAD3431D
:1095F0002361ABD0DFE7236923F00103DB04DB0C3D
:109600002361CFE7336804333360D6E7002002409C
:10961000F8B504460D4600278E18B54201D12069E1
:10962000F8BDE368591CE16015F8012B23440429B7
:109630001A72F2D1A1682046FFF77CFFE760206133
:10964000EBE770B50D46064644880021C4F30B04D1
:109650002246284611F0A3F933690A4A934209D3F6
:10966000094A934206D222462846BDE87040194670
:109670000EF064BD23B121462846BDE8704018476E
:1096800070BD00BFB8F0010862F10108064B074940
:109690008B4202D30023184670471A88C2F30B028C
:1096A0009042F8D01433F3E7F8EC0108B8F0010861
:1096B000024A136823EA000010607047CC200020A3
:1096C0002DE9F84302780346202A00F10100F9D081
:1096D000092AF7D02D2A4BD10346444D1C460026BB
:1096E000DFF80C81234614F8012BA2F13007F9B200
:1096F000092943D92E2A09D127463D4CA0463B468D
:1097000017F8010B3038C2B2092A44D91A7802F08E
:10971000DF02452A63D15A782D2A4CD10127023322
:1097200000240A20013B13F8012F303AD1B2092955
:1097300047D9B4F59A7F28BF4FF49A744FF07E5002
:10974000A046DFF8B090B8F1070F3DD8DFF8A08051
:1097500004F00704002C3DD1002F42D001463046D2
:109760000DF00CFF014628460DF054FEBDE8F883CD
:109770002B2A08BF03464FF07E55AFE741463046DF
:109780000DF048FE064638460DF0F0FD31460DF06E
:1097900039FD0646A6E70DF0E9FD21460DF0EEFE87
:1097A000014630460DF02EFD4146064620460DF09E
:1097B00031FE0446A3E72B2A14BF013302330027EE
:1097C000AEE700FB0424AEE749460DF023FEA8F106
:1097D0000808B8E741460DF01DFE013CBAE74FF01E
:1097E0007E50014630460DF015FEBBE7000080BFFD
:1097F0000000204120BCBE4C002330B50C4687B091
:10980000002105460093019302930DF0BFFF294903
:1098100000283DD028460DF0F5FC27490DF0FAFD53
:109820000DF0D4FF054680EAE07003A9A0EBE570D7
:1098300009F06AF8002DACBF20232D2303A88DF872
:1098400000300DF023F8012826D130238DF80130A7
:109850008DF802308DF8033003A9684611F0C5F881
:1098600068460DF013F80338C5B22A46694620460B
:1098700011F011F9002311496355204611F0B5F894
:109880000DEB0501204611F0B0F8204607B030BDC1
:1098900028460DF0B5FCC0E7022805D130238DF82D
:1098A00001308DF80230D7E7032804BF30238DF84C
:1098B0000130D1E76F12033A00007A44FCCA010874
:1098C00070B50646B6FBF2F40846154614B12046BC
:1098D000FFF7F6FF05FB1464024B1B5D00F8013B2C
:1098E00070BD00BF5DCA0108026810B51146531C67
:1098F000036011F8024BD31C016051780360937828
:109900001B0443EA0123111D0160D078234343EA7D
:10991000006010BD03685A1C02601A4612F8021B50
:109920000260587841EA0020704703685A1C0260C0
:109930001878704738B50446154600680EF0FEFBEF
:1099400022682A44226038BD03685A1C02601970DC
:1099500003685A1C02600A0A1A7003685A1C0260E3
:109960000A0C1A700368090E5A1C026019707047BD
:1099700003685A1C026019700368090A5A1C0260C5
:10998000197070472DE9F04F82468B4615461C46EC
:10999000002789B00DF114082978002930D0252935
:1099A00004D050460135D8470137F5E76A784FF0C3
:1099B0000009302A12BF00230123AA780293A2F1E2
:1099C000300314BFAE1CEE1C092B0CD8A2F13003DF
:1099D000D9B2092918D9A2F16103052B1AD8A2F12D
:1099E00057030A2B10DD6C2A74D13278751C642A57
:1099F00000F0AB8022D8252A66D012D8002ACBD11D
:109A0000384609B0BDE8F08F0A2202FB093916F882
:109A1000012BDBE7A2F14103052BE4D8A2F13703C8
:109A2000DFE7582A18D0632AB6D12E46217850464F
:109A3000D847251D01372C463546ADE7732A37D068
:109A400006D86E2AA8D12E46236804341F60F3E797
:109A5000752A65D0782A9FD143461021A2F158007B
:109A6000424204F104064241206807E02D234042AF
:109A70008DF814300DF1150300220A21FFF71CFCAC
:109A80003446CDF80080029B4A4659465046FFF7BF
:109A900035FC074480E72D2340428DF814300DF14A
:109AA000150300220A21FFF707FC3546039CE8E76F
:109AB0002E4623684A460093594600235046FFF736
:109AC0001DFC251D0744B6E72E4625215046D847E4
:109AD0000137B1E7642A31D00AD8252AF5D002D857
:109AE000002A8DD0A8E7582A0CD0632A9ED0A3E77D
:109AF000732ADED002D86E2AA6D09DE7752A14D02C
:109B0000782A99D1A2F158014A4204F104054A4148
:109B10002068434610212C46FFF7CEFB3546B0E7C0
:109B2000261D434600220A219EE7231D039300229F
:109B300043460A212068FFF7BFFBB6E72068231DD4
:109B400000280393A7DB4346ABE72068261D0028C7
:109B50008CDB434690E70FB437B50B4906AB0B4897
:109B600053F8042B096800680193FFF70BFF0446C4
:109B7000074D286800F0AFFC0028FAD0204603B05B
:109B8000BDE8304004B07047B80A0020BC0A00208D
:109B90002C10002080EAE073A3EBE0738B4206DB1D
:109BA000002801DD401A704702D0084470470020A9
:109BB000704770B504460DF009FE203040284DD89E
:109BC000274D284E294620460DF0E0FD002830D1D3
:109BD000254D244E294620460DF0BAFD00282ED1F1
:109BE000224920460DF0D2FD00282ED021461C48E7
:109BF0000DF006FB0446214620460DF00BFC054601
:109C00001B490DF007FC1B490DF0FCFA29460DF02D
:109C100001FC19490DF0F4FA2946064620460DF0DC
:109C2000F9FB014630460DF0F5FB21460DF0EAFA4E
:109C300070BD204631460DF0E3FA0446C2E72046E7
:109C400031460DF0DFFA0446C4E70C4920460DF01A
:109C50007FFD0028CFD021460348C9E7002070BD12
:109C6000DB0F4940DB0FC940DB0F49C0DB0FC93FA9
:109C700092E741B99730083C15A82A3EDB0FC9BFCF
:109C800010B514220021044610F089FE0123636000
:109C900010BD2DE9F74F054610461F4688460DF0CA
:109CA00061FB4B49044640460DF0B4FB014620469B
:109CB0000DF0B0FB80460EF0E1FB044640460EF08E
:109CC0005DFB3946834638460DF09CFA0146204636
:109CD0000DF054FC9DF830600746012E4FF0000453
:109CE00049D008D3022E5DD02346A3462646A0467F
:109CF000A146A2461DE059464FF07E500DF080FA75
:109D00004FF07C5181460DF085FB4FF07E5182462D
:109D100038460DF077FA4FF04041064658460DF0B0
:109D200079FB394683464FF07E500DF069FAD046F4
:109D300003463146504601930DF020FC3146286021
:109D400048460DF01BFC3146686040460DF016FC9D
:109D50003146A86058460DF011FC019BE860314681
:109D600018460DF00BFCAC6128616C612C62EC6153
:109D700003B0BDE8F08F4FF0404158460DF04AFB6C
:109D80004FF07E51814638460DF03CFA3946064682
:109D90004FF07E500DF034FA4FF07E580346CB461C
:109DA000C246C6E74FF07E5100F100480DF02AFA96
:109DB0004FF04041064658460DF02CFB394683468D
:109DC0004FF07E500DF01CFABA460346A146B0E7AC
:109DD00027D4D236002307B50093034BFFF759FF72
:109DE00003B05DF804FB00BFF304353F70B50D46CA
:109DF0000DF0B8FA044628460DF0B4FA01462046A4
:109E00000DF0BCFB0EF0F6FA01460DF0FBF94FF039
:109E100080440546014620460EF036FC4FF07C514A
:109E2000064628460DF0F6FA014620460EF02CFCB8
:109E30004FF07E51044630460DF0E2F901462046CF
:109E40000DF09CFB70BD10B541F221040A44914213
:109E500000D110BD11F8013B80EA0320082310F463
:109E6000004F4FEA400018BF6040013B80B2F6D17E
:109E7000EDE7F8B5174D2B78A52B28D16B78BE2BC5
:109E800025D1022229464FF6FF70FFF7DCFF124F63
:109E9000AC1C22884AB1A618BE4218D2052A16D98F
:109EA0002146FFF7D0FF3446F3E721460222FFF7B1
:109EB000CAFF0222A118FFF7C6FF0634074B641B36
:109EC0001C8041F60F53C31A58425841F8BD002078
:109ED000F8BD00BF00F80108000002082E1C002099
:109EE00001234A0901F01F0103FA01F150F8223061
:109EF0000B4340F82230704701234A0901F01F014B
:109F000003FA01F150F82230194214BF0120002059
:109F100070470022054B9A7001225A70044B1B783F
:109F200093429EBF2C22034B1A7170471A0C0020DB
:109F3000C40A0020BA20002030B50B4C0B4D22780B
:109F40002B7885B09A420CD002A9684607F068FBCE
:109F50000123022202A9684607F020FC00232B708F
:109F6000237005B030BD00BF3D3700203C370020D6
:109F7000094A0A4913781844C0B210F0800F18BF7C
:109F800080381070107813460A78904202BF002281
:109F90000A701A70704700BF3D3700203C37002020
:109FA00030B50E4D0E4C2A78237885B09A4212D0E7
:109FB00002A9684607F034FB0023022202A9684682
:109FC00007F0ECFBFFF7D4FF28782378C31A584238
:109FD000584105B030BD0120FBE700BF3D370020F0
:109FE0003C3700201FB502A8694607F019FB044B57
:109FF00000981B681844019B184405B05DF804FBE9
:10A000003837002010B5046B0346C168406944B17D
:10A010001A6C8C1A013A08BF0A46005D1A64C0B275
:10A0200010BD1A6A805C01328A4228BF2246C0B243
:10A030001A6210BD436B13B190F850007047836AE9
:10A04000406A1B1A584258417047416A836A026944
:10A05000994238BF8918CB1A416B21B149680B442A
:10A06000511E8B4202D2501EC01A7047002070470A
:10A07000036B4BB1026C5B689342A3EB02032EBFF0
:10A080001846C068C0187047C269036A9A422FBF59
:10A09000D01AC0688018C01A70470A4B30B503F157
:10A0A000100493F900205D78072AC8BF143A81187C
:10A0B0000D739D780433855413F8012CA3420A765E
:10A0C000EFD130BDF0AE0108232303702423437089
:10A0D00000238370C37070472D2343702E23C370F9
:10A0E0002F23437170472DE9F04101270B4DDFF815
:10A0F00030802C686A6914400CB9BDE8F081B4FA6C
:10A1000084F3C3F11F0358F8230007FA03F603682A
:10A11000984724EA06046E61EEE700BF00040140A0
:10A12000D80A00204171FCF725B98160FCF722B9FB
:10A130002DE9F047064689464FF000474FF00008EA
:10A14000038A8589ADB21D400DB9BDE8F087B5FA27
:10A1500085F327FA03F2D2431B3B91B231821540BB
:10A16000042BF1D8DFE803F02925211A0300D9F8E0
:10A17000244084B1013CA4B2C9F82480D9F820A0BD
:10A18000BAF1000FE0D0DAF8003050462146984787
:10A19000DAF804A0F4E7B48DA4B2EFE7D9F8000030
:10A1A000B18E036889B29847CEE7D9F80400318FA1
:10A1B000F7E7D9F80800B18FF3E7D9F80C00B6F843
:10A1C0004010EEE71FB50023ADF80A30ADF80630B9
:10A1D0008DF80C30074B01391B68ADF80810B3FB44
:10A1E000F2F204A9013A21F80C2D08F0B0F905B0FB
:10A1F0005DF804FB2000002073B504460068FFF7FB
:10A20000E1FF2268174913889BB243F001031380D2
:10A21000002351F8334001EBC300A2421DD1457920
:10A220000124002601A88DF804508DF805408DF812
:10A2300006608DF8074008F03FF91B2D0BD119235C
:10A2400001A88DF804308DF805408DF806608DF872
:10A25000074008F031F902B070BD0133042BD8D1AA
:10A260000025DDE710AB01080B4B800A98420FD0A8
:10A2700004D8B0F5801F09D0FE207047074B9842E4
:10A2800008D049339842F7D1002070470120704729
:10A2900002207047032070470100100002001000E8
:10A2A000F8B5046805462046FFF7DEFF032841D8CD
:10A2B0006B794FEA930E39B975460227A689AF40EC
:10A2C000B6B226EA0706A6810A2505FB00E51D4E63
:10A2D00046F82510043546F82520324631B1990854
:10A2E0000223A5898B402B439BB2A38128234343A0
:10A2F00003F120011144EFF31286502585F31288F3
:10A300000425103313441F6817B10F601968043116
:10A31000013D03F10403F6D10D60F3B283F311881C
:10A32000282303FB0020036A2BB1A3899BB243F0CF
:10A330000103A381F8BDA38923F001031B041B0CB7
:10A34000F7E700BFDC3A00201E4B30B55B681E4AC1
:10A35000C3F308039BB9EFF3128383B91B49106859
:10A360008C6800BF13689842F9D14FF47A72184B89
:10A37000196802FB01F31B1BB3FBF1F31EE0EFF3C3
:10A380001281102383F31288104CA568236813F4FC
:10A39000803F18BF01200F4B1CBF1860A5681468D0
:10A3A0001868CAB282F311884FF47A72084B2044BD
:10A3B000196802FB01F35B1BB3FBF1F302FB0030F6
:10A3C00030BD00BF00ED00E0D42C002010E000E024
:10A3D000C00A00202415002038B50446FFF7B4FF5A
:10A3E0000546FFF7B1FF401BA042FAD338BD10B5B8
:10A3F000044604B910BD4FF47A70FFF7EDFF013C3D
:10A40000F7E7EFF31283102282F312880649DBB2DA
:10A410000A6801320A600021044A1160044A126885
:10A4200083F31188704700BFD42C0020241500202E
:10A4300010E000E0014B5868FBF76ABF200B0020DA
:10A44000014B1868FBF764BF200B002070B5EFF3D9
:10A450001282502383F31288436BD2B2196811F031
:10A46000010F08D15E68DEB9446A816A8C4205D169
:10A47000012380F8503082F3118870BD856998BF40
:10A4800004690D448CBF611A611ADD608CBF59608C
:10A4900059604FF000018CBF8462866280F85010D2
:10A4A000196841F001011960E5E7436A8269D154F6
:10A4B000436A02690133934228BF00234362436B1E
:10A4C00003B1C3E7C26CD36843F08003D360704725
:10A4D00003689B69184703685B6918470368DB6872
:10A4E000184703685B68184703681B6818470368C8
:10A4F0002DE9F041DB6904460E46174693B90D4637
:10A500007B1B3344002B01DCBDE8F081236820462F
:10A510009B6898470028F9D015F8011B2046FFF7E3
:10A52000E3FFEDE7BDE8F0411847E0E7054B53F8DE
:10A53000202032B193881268D1680B4218BF1B04E7
:10A5400013617047CC0A002010B50409013C022CAD
:10A5500000F00F0215D80C4B33F8141041FA02F337
:10A5600013F001000ED001209040013808400DF09A
:10A57000C3F9064B1C44237C0344054800EBC3008D
:10A5800010BD002010BD00BF08AB0108F0AE0108EF
:10A59000341C002037B50D460446C8B103680D4A87
:10A5A00003F14043A3F5843302EB9323D87C07F0F7
:10A5B00065FFA38801A9ADF80430206805F0030306
:10A5C00005F07C058DF806308DF8075008F0CEFBBD
:10A5D00003B030BDF0AE010810B1036882885A6143
:10A5E000704710B1036882881A61704738B100293A
:10A5F00014BF00211021838802688B4013617047CB
:10A600000F4B01461B883BB90E4B18680E4B1B784D
:10A610000BB981F00101E9E70C4B5A6972B150B1F5
:10A620000B4A196810880B4A92FBF0F292B20A802A
:10A6300001225A7470471A6810805874704700BF1E
:10A64000200C0020240C0020280C00202C0C0020C2
:10A65000440C002020A107000123084A83401278FF
:10A660001340074A52F8200019B1191C18BF0121E4
:10A67000BCE7B3FA83F14909FAE700BFC60A002034
:10A68000CC0A002038B50D46012104460846FFF7E4
:10A69000E3FF00210846FFF7DFFF04B938BD0120C2
:10A6A000FFF744FF0020FFF741FF0120FFF7A8FF5D
:10A6B0002846FFF79CFE0120FFF738FF0020FFF738
:10A6C00035FF0020FFF79CFF013C2846FFF78FFE77
:10A6D000E4B2E2E738B50D460130C4B205B938BD81
:10A6E00005203221FFF7CEFF4FF4FA70FFF77FFE0F
:10A6F0001CB1FA212046FFF7C5FF4FF47A70FFF72F
:10A7000076FE013DEAE708B50A21FFF7E3FF034AB9
:10A71000034B1A60034A044BDA6008BDEFBEADDE9E
:10A72000F04F00200400FA0500ED00E0DBE4DAE47D
:10A73000D9E4D8E4D7E4D6E4D5E4038823F0400391
:10A740001B041B0C0380038823F038031B041B0C21
:10A7500059B141F4807191FAA1F20029B2FA82F262
:10A7600008BF4FF0FF32511EC900194389B2018062
:10A7700003889BB243F0400303807047F8B5848997
:10A780004FF6FF764FF47A740BB90120F8BD91B102
:10A790000D7801310789BF070FD54FF47A74ADB238
:10A7A00085810589ED0712D58589ADB20AB115708D
:10A7B0000132013BE8E7FF25ECE7013CA4B2B442DB
:10A7C000E8D1FEF745FE003018BF0120F8BD013C7E
:10A7D000A4B2B442E5D1F4E708B540F2E933028906
:10A7E000920708D540F2E93389B281810289D20704
:10A7F00009D5808905E0013B9BB2002BEFD1FEF724
:10A8000027FEC0B208BD013B9BB2002BEED1F6E79C
:10A8100070B50446806815461E46FFF7DDFE606889
:10A8200041F08001FFF7D8FF33462A4600216068D7
:10A83000FFF7A4FFA068FFF7D4FE012070BD38B574
:10A84000044615468068FFF7C7FE6068FFF7C4FF3F
:10A8500029466068FFF7C0FFA068FFF7C2FE01202D
:10A8600038BD00BF024B1A889B7802808370704706
:10A870000CAF0108064A116849B16423506843438C
:10A88000B3FBF1F303490B8000231360536070475F
:10A8900028150020301C002070472DE9F843304B6C
:10A8A00006461B782BB92F4A136053609360BDE8AE
:10A8B000F8832D4B9F6898602C4B9B79012B09D016
:10A8C00001D3042B04D90022264B1A605A609A60E7
:10A8D000BDE8F88340F6E4494FF47A74244BDFF87E
:10A8E000A480DA79234B244D33F81200B8F90230F2
:10A8F00080B209FB00F2C3EB12336343B8F90020C6
:10A9000093FBF2F3EB600CF02DFD01461B48FEF7C4
:10A9100051FD0CF081FF80B209FB00F9B8F902008B
:10A92000B8F90030C0EB193904FB09F494FBF3F4D7
:10A93000D5F80C80F01BAC6008FB00F00CF016FDA5
:10A940000F490CF067FD69680CF05CFC68600CF066
:10A950003DFF044B286083E810019860BDE8F88350
:10A96000962C00202021002028150020DE2E00201B
:10A97000600C0020740C0020C00F0020D00F0020BD
:10A980002FE33E31742000202DE9F843224B234D64
:10A990005B79012B3BD1224B224E9A78224B33F824
:10A9A0001240A4B220460CF0DDFC01463046FEF712
:10A9B00001FD1E4B9F7893F8009093F801800CF0F6
:10A9C0002BFF44F6FB7209EB491983B209FB032301
:10A9D00009FB0424C8EB0838B3FBF8F3B4FBF8F424
:10A9E000B3FBF7F3B4FBF7F49BB2A4B226F8043C34
:10A9F00026F8024C2B806C800D4B1B78022B04D167
:10AA00000C4B6A881A802A885A80BDE8F883002394
:10AA10002B806B80F0E700BFDE2E0020822C002010
:10AA2000600C0020980F0020740C00207020002083
:10AA300084210020F8200020F8B5242200210446BB
:10AA40000FF0ADFF002223460521042510460A4FD2
:10AA5000D65D0132042A9E70D9701D7198715971AA
:10AA600003F10803F4D101232380522384F8223018
:10AA700064232384F8BD00BF68AB010838B5194BC7
:10AA8000187808B318490C89FCB120460CF06AFC10
:10AA9000164B054698680CF069FC014628460CF0F8
:10AAA000AFFB13490CF0B6FC054620460CF05EFCEB
:10AAB000014628460CF062FD0CF088FE6428A8BF11
:10AAC000642020EAE070C0B238BD0A4B4D781B8884
:10AAD0000A7800FB15346423521B63435043B3FBD5
:10AAE000F0F0EBE7962C0020DE2E00202021002045
:10AAF0000000C842822C0020194B2DE9F0411C684F
:10AB000007460E2C984607DC0023164A9C4206DCBA
:10AB10000025144EA54208DD0020BDE8F08152F862
:10AB200023108F42F8D00133F0E756F82530681C27
:10AB30007BB98000621B011F920031443044013414
:10AB40000FF013FF46F82570C8F800400120BDE85B
:10AB5000F0811A7D3B7D9A42EBD30546DAE700BFD0
:10AB6000DC1B0020E01B00201028F8B50FD00E28B9
:10AB70000CD83422124B02FB003009B1C3684BB928
:10AB80000022104D10492C68A24206DBF8BD0F4B85
:10AB90001868F2E7BDE8F840AEE751F8227093007C
:10ABA000B84203EB010609D1A21A043392001944FA
:10ABB0003046013C0FF0D9FE2C60F8BD0132E3E7CE
:10ABC00000010020DC1B0020E01B0020FC2C0020EA
:10ABD00008B50C4B197801290CD00AD302290DD0E5
:10ABE000FFF7B2FB084B00F5F42000F590701860F9
:10ABF00008BD00210020FFF72FFDF1E70020FFF73F
:10AC000095FCEDE7222200202422002010B5044606
:10AC10002046FFF760FC00B110BD0A20FFF7E7FBFC
:10AC2000F6E70022F0B51446FF270949094E0B78D4
:10AC3000951995F906E00832864501BF03F1FF3307
:10AC4000AF71DBB20124202AF2D104B10B70F0BD48
:10AC50002C0B0020EC2B0020002310B5084A52F8E2
:10AC6000331002EBC304884203D00133042BF6D126
:10AC700010BD0021C162A18042F8331010BD00BF99
:10AC8000EC2B0020F8B505460024094EA359A7195E
:10AC9000AB4207D12846FFF7DFFFCC220021384620
:10ACA0000FF07DFECC34B4F5197FEFD1F8BD00BFB5
:10ACB000940C00202DE9F04F07464FF0000893B0A8
:10ACC00003929DF870909DF874A02B4A0591029311
:10ACD00002EBC80393F90610B9424FD008F10108FE
:10ACE000B8F1040FF4D100207EE11F2FFBD1CDF885
:10ACF00000A04B46029A0399012039E00135072D47
:10AD000068D100256DE00132072A40F083800022DF
:10AD100088E0049B53B1711CC9B220B14FF00B0EF7
:10AD2000C17180F806E01A21FFF734FC19F0010F19
:10AD300000F0BE800136F6B215B10C21EE71A9719A
:10AD40004A212846B2E04FF6DF72E36C1A80DA68D7
:10AD500042F02002DA6007E1E26CD36843F080033E
:10AD6000D36030E14B462846029A0399CDF800A003
:10AD700005F0CEFF2EE100BFEC2B00209D88002DBA
:10AD8000B1D11E2FEED0B0DC012FACD8984BFEB263
:10AD900053F82740002C00F01C81964BD4F854B097
:10ADA0002360029BDBF80420A36004F15A03636173
:10ADB00004F5AD73A3614FF48073E264E360236133
:10ADC0009BF8160007F05AFBDBF80C20CAB18A4941
:10ADD0001C208C4600FB051EDEF804309A428DD103
:10ADE000EDB21C2101FB05C5844B2969586901435B
:10ADF00059610C212976711C69762263E26C043258
:10AE0000A264DBF80810002935D07B4800224FF0FF
:10AE10001C0E05460EFB020CDCF8043099427FF450
:10AE200072AFD2B21C2101FB0255744A29695069E4
:10AE3000084350610B202876701C687653699BF894
:10AE40001900194351616E4A8009AA606A7B8DF826
:10AE50001D008DF81C2000228DF81E2001226C613F
:10AE600007A88DF81F2007F027FBDBF80820626396
:10AE7000E26C0432626494F85800FFF765FB054603
:10AE800094F85900FFF760FB09F002031AF0080F6D
:10AE900004933FF43EAF0136F6B210B10B22C671F7
:10AEA00082711AF0100F14BF1A211E21FFF772FBD6
:10AEB000DBF80C2012B1DBF808208AB99BF81820C7
:10AEC00007A88DF81C209BF81A309B098DF81D30BF
:10AED00000238DF81E3001238DF81F3007F0ECFAA7
:10AEE0000123002684F85030039B2662E362029B14
:10AEF000E661A662666284F80590A36084F806A005
:10AF00002046FBF737FA19F0010F2DD0236B002BE9
:10AF10003FF419AF07A808F01DF8A36C206B079346
:10AF20004FF48053109380230C93E36811960A9397
:10AF300020230F9363690B9608930D960E9609963E
:10AF400008F033F807A9206B08F011F8226BE16CC8
:10AF5000136843F0010313608B8A9BB243F04003F4
:10AF60008B8253689BB22364049B002B2BD0636BB2
:10AF7000002B3FF4F1AE07A807F0ECFF636C00254F
:10AF800007934FF48053109380230C932369606BD5
:10AF90000A931023119509930B950D950E950F9516
:10AFA00008F003F807A9606B07F0E1FF636B1A680C
:10AFB00042F002021A60E26C5D605D60938A9BB2AF
:10AFC00043F080039382E26C93899BB243F4005375
:10AFD0009381204640B10B4BBDF8141003EBC8021F
:10AFE0000771918043F8380013B0BDE8F08F00BFBF
:10AFF000200B002010AF01082400002000100240A8
:10B00000B9610008EC2B002038B1038813EA010075
:10B0100003D08B420CBF0120022070470023F0B503
:10B020001D460D490D4E0B73DAB2032A03D905B143
:10B030000A730020F0BD5F1C06EBC30436F8333002
:10B0400001321842D2B24FF0010502D00A732046F5
:10B05000F0BD3B46E8E700BF28150020C62B0020C6
:10B060002DE9F74F0120FFF7D9FF0024214D224E93
:10B0700068B3022C2BD84FF0CC0909FB04F855F823
:10B08000087005EB080A17B10134E4B2F0E70323B6
:10B09000C27890F902000093184B019753F82230C0
:10B0A00001213A46FFF706FE834640B14A4639463B
:10B0B000504601340FF073FCE4B245F808B00021AB
:10B0C000327B0F4FD3B2032B04D901B1337303B0DA
:10B0D000BDE8F08F02F1010E07EBC20037F8322015
:10B0E0000133D207DBB24FF0010101D53373BFE763
:10B0F0007246E7E7940C00202815002018C60108C6
:10B10000C62B0020142809D80C235843044B185C84
:10B1100028B10123013803FA00F07047002070477E
:10B12000F0B7010810B500240020FFF769FA054BBD
:10B130001C70FFF74DFD044B1C70044B1C619C827E
:10B140009C6110BD222200208D2E00202815002099
:10B15000F0B440B1134B1B6813F4003306D0124B0C
:10B160001B78032B01D1F0BCDCE700230F4C0C262D
:10B17000224606FB03F10F5D0D19874204D001330F
:10B18000152BF6D1F0BC7047094B986918B16C7853
:10B1900040788442F6D20A449A6100229A821A6167
:10B1A000F0E700BF581E0020D92E0020F0B701089C
:10B1B00028150020F8B506460D200BF0C7F910B190
:10B1C0000A20FFF7C5FF294CA269002A4CD0236949
:10B1D000B34249D8264BA18A1878576838BB01205A
:10B1E00018707B5C002B33D01378224A013B126825
:10B1F00000FA03F3134201D1FFF702FA01221E4BBA
:10B200001A70FFF7E5FCA38A43B9A3691B78053BD5
:10B21000012B03D8FFF798F8184B1860A369A28A8E
:10B220005B689B5CFE2B0ED10023A382F8BD00253A
:10B230001D707B5C63B12846FFF7E2F90E4B1D7071
:10B24000FFF7C6FCEAE7FF2B06D1BDE8F84069E747
:10B25000A369A28A5B689B5C42F2107101FB0363E5
:10B2600001322361A282F8BDF8BD00BF281500207D
:10B270008D2E0020581E0020222200205C39002044
:10B280004000402830B4A8BF4020002302251424E9
:10B29000064A9D5402339918984201F8014CF8D897
:10B2A000FF21D1540E2030BC52E700BFB81F002050
:10B2B000037903F00C03042B05D0082B0FD0BBB986
:10B2C000B0F80B0070470B4BB0F80B001B7803EB8A
:10B2D0008302C3EBC20300EB430080B27047054B0F
:10B2E000B0F80B005B7803EB430300EB8300F4E75B
:10B2F000002070470020002020B10078B0FA80F0D4
:10B30000400970470120704708B520210FF07CFBF1
:10B31000034618461BB102780133202AF9D008BD34
:10B320002DE9F8430D4616468146002440F63407C1
:10B330004FF019084846FFF7E7FF814690B10CF03F
:10B34000D5FEB842A8BF3846B0F5617FB8BF4FF40C
:10B350006170A0F5617090FBF8F04CB928703378FB
:10B36000013333700134022CE4D14846BDE8F88340
:10B370006870F4E701480BF0A9B800BF82CA010861
:10B3800010B50446B0F80900FEF780F901462046E2
:10B39000FFF78EFF4B68184410BD38B505460C46C4
:10B3A000FFF7EEFF2B7903F00303012B00D001D24E
:10B3B000047038BD048038BD0FB407B504A951F836
:10B3C000040B01910BF070F803B05DF804EB04B0CE
:10B3D000704713460A4601460048EDE78ECA010849
:10B3E000F7B50646FFF788FF054658B1002401A9C6
:10B3F000204607F089FA0134FFF7F2FF122CF6D14C
:10B4000003B0F0BD30460CF071FEC4B2112C5BD815
:10B41000701CFFF779FF2F4D0746B8B92E4B13F874
:10B4200014108A1E514251412B4B13F81420AA5C70
:10B43000002944D003EB4403597819234B43274890
:10B4400003F2EE232146FFF7B7FFD9E7017828463C
:10B450000FF0DAFA50B1032C8CBF03220022204BEC
:10B46000401BC0B213441E5C032E02D1FFF782FFC3
:10B47000C6E73846FFF748FFF0B1022EF6D10CF0D0
:10B4800035FE40F6CA0280B29042A8BF104640F294
:10B49000EE229042B8BF10461922A0F2EE2090FB97
:10B4A000F2F00D4B03EB44035870B31E594259415F
:10B4B000094B03F81460B7E7022EF6D1D6E7214610
:10B4C0000848FFF779FF9BE7112229460648FFF756
:10B4D00080FF95E7ECB801082E190020A7CA0108E3
:10B4E00038AF0108B7CA010814DF01080FB413B55B
:10B4F000084C04AB53F8042B074920680193FEF76E
:10B5000041FA2068FEF70AF802B0BDE8104004B026
:10B51000704700BF6C270020516401082DE9F04FEF
:10B5200085B00346FFF7E8FE064620B1FFF722FF8D
:10B5300005B0BDE8F08F03AA5E4918460CF032FE54
:10B5400035460446B0464FF0FF37DFF89491DFF8F8
:10B5500094A1DFF894B1B4B957483946FFF7C6FF54
:10B56000564B78B203EBC40292F90620824200F0F7
:10B5700086800134042CF5D1B8F1000F33D1504846
:10B580000AF0A4FFD4E7012E0ED0022E11D01EB96E
:10B5900020460CF0ABFD074603AA464900200CF0FC
:10B5A00001FE01360446D6E720460CF09FFD80469A
:10B5B000F2E7494620460FF083FA20B94149204678
:10B5C0000FF07EFA08B145F00105514620460FF014
:10B5D00077FA28B9594620460FF072FA0028DBD0D6
:10B5E00045F00205D8E7002D08BF03250022EDB283
:10B5F0000192009543461146FFF75CFB044608B9EB
:10B600003148BDE741463148FFF770FF30480AF046
:10B610005DFF304B1D682846FFF7F8FA2046FFF71C
:10B62000F5FA00210846FFF717F800210120FFF77F
:10B6300013F82846FEF755FF70B101210020FFF7EF
:10B640000BF82846FEF74AFF01462046FEF74CFF5E
:10B6500000210846FFF700F82046FEF742FF0028C9
:10B66000E7D001210020FEF7F7FF2046FEF736FF66
:10B6700001462846FEF738FF00210846D7E753F871
:10B680003440002C3FF478AF13480AF01FFF55B147
:10B6900061798D4207D011482A46FFF727FFE9B2AA
:10B6A0002046FEF715FFE36A002BAFD00023E362CC
:10B6B000ACE700BFA7CD0108CACA0108EC2B0020E7
:10B6C000D3CA010844DC0108E9CA0108FECA01081E
:10B6D0003FCB01087027002013CB010821CB0108C4
:10B6E000C4CA0108C7CA0108DBD40108F8B5037948
:10B6F00003F03003102B0AD0202B24D043BBBDE82D
:10B70000F840B0F90720B0F90510124854E60024BB
:10B710004579114E11480AF0AAFE06EBC5031F79C0
:10B72000BC4203D3BDE8F8400AF0BABE14B10C48DD
:10B730000AF09DFE56F835300A4853F82410FFF7FA
:10B74000D5FE0134ECE74179BDE8F840064833E620
:10B75000F8BD00BF60CB010828C3010877CB010802
:10B76000B4DA01087EDA010887CB01082DE9F0413F
:10B770000379054603F0300020280E46144625D1F3
:10B780000024274FDFF8A4806B799C4201DBBDE8E1
:10B79000F0812B7903F00303022B11D0032B12D07D
:10B7A000012B14BF315D31573846FFF79FFE6B798F
:10B7B000013B9C4202DA40460AF059FE0134E3E7BD
:10B7C00036F81410F0E736F91410EDE703F0030330
:10B7D000012B06D008D2097848B1102813D0BDE853
:10B7E000F08191F90010F7E7B1F90010F4E70C4887
:10B7F000FFF77CFE8CB1B5F90720B5F905100948B3
:10B80000BDE8F04172E66A79074BBDE8F04153F8B4
:10B81000323053F821000AF02ABEBDE8F08100BFA3
:10B8200074CB01086DCD010828C30108B4DA010802
:10B8300038B50D460446FFF7A3FD2A4601462046CB
:10B84000BDE8384092E72DE9F74F324C81468846F3
:10B850000025274601F0100300932F4B1868FDF7D1
:10B860005DFE94F804B00BF00C034B453FD10D2363
:10B8700003FB0573B3F80900FDF708FF06462046F1
:10B88000FFF716FD0BF00302012A82467168B068CB
:10B8900035D039D210F80A0011F80A20831A5A421A
:10B8A0005A41009B03B112BB18F0200F10D07AB997
:10B8B0000D2101FB0571194809680192FFF716FE79
:10B8C0007168019A51442046FFF750FF0AF0E8FDE5
:10B8D0000D2202FB057212481168FFF707FEB168DE
:10B8E000002251442046FFF741FF0AF0D9FD0135FF
:10B8F000BA2D04F10D04B0D103B0BDE8F08F10F9FA
:10B900000A0011F90A20C9E730F90A0031F90A20C2
:10B91000C4E700BFB4B901086C27002098CB010828
:10B9200099CB0108074B1B68597A4A1CD2B21944BB
:10B930005A728872197A914202D81846FDF7EEBD04
:10B94000704700BF6C2700200CB407B510F0200032
:10B9500009D069B92320FFF7E5FF05A904980191F3
:10B960000AF0A2FD012003B05DF804EB02B07047BD
:10B970000020F8E70CB4C30607B500D551B905A9F6
:10B98000049801910AF090FD012003B05DF804EBEA
:10B9900002B070470020F8E72DE9F04F814690464D
:10B9A0000C46154600261927DFF8B0A087B0B8F17D
:10B9B000000F51D023782A7893422B794AD16078AE
:10B9C0006978884246D1A078A978884242D1E07847
:10B9D000E97888423ED1217999423BD161796879F1
:10B9E000081A414241410593EB7848460493AB78ED
:10B9F0008B467B4303F5617303936B7801927B4322
:10BA000003F5617302936B79524600933346FFF757
:10BA10009BFF237952460593E37859460493A37814
:10BA200048467B4303F561730393637806357B4394
:10BA300003F56173029323780634019314F8013CF3
:10BA4000009333460136FFF795FF0F2EAFD107B0B5
:10BA5000BDE8F08F0021C6E7C346DAE7A3CB0108B3
:10BA6000F7B50746FFF748FC044630B100223649D7
:10BA70000120FFF791FF03B0F0BD38460CF036FB14
:10BA80000E28054659DC06264643781C8DF80740EB
:10BA9000FFF73AFC2C4C074650B10CF027FB03286B
:10BAA00006D8A31958719DF8073001338DF8073077
:10BAB0003846FFF729FC074658B10CF017FB0D2854
:10BAC00007D806236B43E0549DF8073001338DF807
:10BAD0000730711C0DF1070221443846FFF720FCA6
:10BAE000FFF712FC074660B10CF000FB182808D8DD
:10BAF000062303FB0543D8709DF8073001338DF80A
:10BB000007303846FFF700FC60B10CF0EFFA0D2863
:10BB100008D8062303FB05459DF80730287101333B
:10BB20008DF807309DF80730062BA4D00023A2190A
:10BB3000A3519380FFF71EFC9DE70E222146034888
:10BB4000FFF747FC97E700BF041F0020C1CB0108A7
:10BB50002DE9F04F814690460C461646344FDFF8EB
:10BB6000D8A087B002F1200B002394F902203149BC
:10BB7000591891F90610914254D00833202BF6D170
:10BB800008365E4504F10804EED107B0BDE8F08F39
:10BB900096F9023071799A42328841D120889042D8
:10BBA0003ED1E578F07885423AD1257930798542E1
:10BBB00036D1A579B079854232D16579681A454286
:10BBC000454157F8211048460491B17957F82110A2
:10BBD0000391317957F821100291F178009257F8CA
:10BBE0002110524601912946FFF7AEFE627994F981
:10BBF000023057F8222029460492A279484657F885
:10BC000022200392227957F822200292E27857F8F4
:10BC100022200192228800925246FFF7ABFEAFE746
:10BC20000025CEE7B8F1000FB2D14546DEE700BFF0
:10BC300018C60108EC2B0020C7CB01082DE9F34101
:10BC40000346FFF759FB044630B100220120374973
:10BC500002B0BDE8F0417BE70090019018465E1C01
:10BC60000CF044FA314B40B203EBC40595F90220C5
:10BC7000824256D00134042CF6D100252C463046A1
:10BC8000FFF742FB074628B10CF030FA0134ADF85B
:10BC90000000E4B20026DFF898803846FFF734FB56
:10BCA000074600B30CF022FA002258F82210D3B253
:10BCB000884203D00132102AF7D1002358F82320FC
:10BCC000904210D1022E1AD0032E1DD05A1E012EE2
:10BCD000D2B20FD00B2A03D88DF803300134E4B26E
:10BCE0000136042ED9D1052C14D802B0BDE8F0419C
:10BCF000FFF740BB042AF3D88DF80430EEE7052B9C
:10BD0000EED88DF80630E9E79A1E0D2AE8D88DF8AE
:10BD10000530E3E76B4603CB2860696002B0BDE8FD
:10BD2000F0818DF802000124A9E700BFC62B002096
:10BD300018C601082DE9F04F814690460C4615467D
:10BD400000261927DFF8A8A085B0B8F1000F4CD065
:10BD500028782378834246D162786B789A4242D120
:10BD6000A278AB789A423ED1E178EB78CB1A59426F
:10BD700059418B460AF035FB98B1EB7852467B432C
:10BD800003F561730393AB7859467B4303F5617305
:10BD900002936B780193037A484600933346FFF78A
:10BDA000D3FD20780AF01DFB98B1E37852467B431F
:10BDB00003F561730393A37859467B4303F56173DD
:10BDC000029363780193037A484600933346FFF762
:10BDD000D1FD0136142E04F1040405F10405B4D19B
:10BDE00005B0BDE8F08F0021C3E7C346D9E700BF27
:10BDF000E4CB0108F7B50746FFF77EFA044630B1F9
:10BE000000222C490120FFF795FF03B0F0BD384612
:10BE10000CF06CF9132805463ADC8600781C8DF886
:10BE20000740FFF771FA074690B10CF05FF94FF049
:10BE30000C0E214BC0B203F108010EFB04F201EB22
:10BE4000020C9CF808C0844528D00134252CF4D17C
:10BE50003846FFF759FA174C074650B10CF046F92F
:10BE60000D2806D8A31958709DF8073001338DF8B6
:10BE70000730B11C0DF1070221443846FFF750FA94
:10BE80009DF80730042BC0D0002344F82530BCE7D0
:10BE9000132221460948FFF79CFAB6E713441A7AA1
:10BEA000044B03F825209DF8073001338DF8073047
:10BEB000CEE700BF641E002038AF0108C1CB0108E7
:10BEC0002DE9F04F824691460E46154600278FB069
:10BED000337896F90280089373780993F3780A937C
:10BEE00096F904300B9396F905300C93B3790D93C2
:10BEF000B8F1000F04D10FB0BDE8F04F0AF0D0BA8E
:10BF0000B9F1000F4CD02B78089C6A789C4295F9C7
:10BF10000210E87895F904E095F905C095F806B0A7
:10BF20003CD1099C944239D1884537D10A9C84423E
:10BF300034D10B9C744531D10C9C64452ED10D9CA1
:10BF40005C4514BF002401240390029101920093E8
:10BF5000CDF818B0CDF814C0CDF810E03B46114A2A
:10BF600021465046FFF7F0FC0D9BCDF80880069364
:10BF70000C9B0C4A05930B9B214604930A9B50464D
:10BF80000393099B07360193089B073500933B46B3
:10BF90000137FFF7EFFC102F9AD1ACE70024D3E76D
:10BFA0004C46E1E757CD01082DE9F0478AB0054638
:10BFB0000AF06CFC024630B995490120FFF780FF7A
:10BFC0000AB0BDE8F0870522924928460EF02AFD06
:10BFD000044660B9702201468D480EF0E0FC204610
:10BFE00022468D4BC2500C306028FBD1E8E704227A
:10BFF0008A4928460EF016FD0446002841D12846FD
:10C00000FFF782F906460028DAD00AF03FFC07461F
:10C01000DFF8308258F824501DB981480AF056FAEA
:10C02000CEE73A46294630460EF0FCFC01340028A3
:10C03000F0D1774B0246194603F170069A719A7057
:10C040005A7003F8072BB342F8D1764B13F83470CB
:10C0500003EBC404B84205DB29467348FFF7ACF98B
:10C06000724886E06368C0EBC0021344D3F800E076
:10C070008E1841F802E09A880130B2809B79B37142
:10C08000E8E707226A4928460EF0CCFC044600285F
:10C0900075D1202128460EF0B7FC06460AF0F6FBC3
:10C0A000054680BB6348FFF721FA2C46624D2146C6
:10C0B00028460134FFF71AFA0E2CF8D10AF0F0F9ED
:10C0C0000024DFF88491544FDFF880810C2621464C
:10C0D0004846FFF70BFA002506FB0476DFF870A14F
:10C0E00001233268AB40134214BF414651465348C6
:10C0F0000135FFF7FBF90E2DF2D101340AF0D0F92A
:10C10000082CE3D15CE7304601AA4D490CF04AF80F
:10C110004B4E02AD00283DD0022C15D1029A072AC1
:10C120002AD803990D2927D80378722B17D06E2BA4
:10C1300022D10C2353430122374802FA01F1C2589D
:10C1400022EA0102C25013E00BF0D0FF01AA45F829
:10C150002400314600200CF025F80134DAE70C23E6
:10C16000012053432C4C00FA01F1E0580843E05001
:10C170002F48FFF719FF23E7FFF7FCF8F8E72846F9
:10C1800001AA2F490CF00EF800242D4E02AD78B113
:10C19000082C02D1FFF7EEF812E70BF0A7FF01AA77
:10C1A00045F82400314600200BF0FCFF0134EEE797
:10C1B000082CEFD1029B0F2BECD8DDF80CC0BCF1A2
:10C1C000070FE7D8049F0D2FE4D8059E06F16402FF
:10C1D000C82ADFD8069DFF2DDCD807986428D9D857
:10C1E00008996429D6D88842D4DA099C032CD1D87E
:10C1F000DFF81CE0C3EBC3020EEB02030EF802C033
:10C200005F709E70DD70187159719C7128E700BFD6
:10C21000CA19002074CD01083C1A00207ACD01080B
:10C220007FCD0108FCB001088CCD01087DC9010853
:10C2300096CD010880DA01089ECD0108A3CD010842
:10C24000A7CD010808B7010874CB0108D4CD0108B7
:10C2500085D701082DE9F04F8046894616460D46E0
:10C2600014464FF0000ADFF810B189B0002E6FD0ED
:10C270006A6863689A4269D1AF68A368FB1A5F4233
:10C280005F4194F90B305A46049394F90A303946C9
:10C290000393B4F9083040460293B4F90630019391
:10C2A000B4F9043000935346FFF74EFB95F90B3079
:10C2B0005A46049395F90A3039460393B5F9083084
:10C2C00040460293B5F906300C340193B5F90430B9
:10C2D0000C35009353460AF1010AFFF74BFBBAF104
:10C2E000080FC3D100242546DFF890A096B300279D
:10C2F0000123325903FA07FB59F8043053403BEA53
:10C30000030314BF0123002312EA0B0F079306D087
:10C3100000972B46524607994046FFF715FB59F800
:10C3200004301BEA030F06D000972B4652460799AC
:10C330004046FFF71FFB01370E2FD9D10135082DDD
:10C3400004F10C04D2D109B0BDE8F08F002798E7C2
:10C350003746ABE73746012359F80420BB40134268
:10C3600006D000972B46524601214046FFF702FBBC
:10C3700001370E2FEFD1E1E7A9CD0108C1CD0108AA
:10C38000F0B585B00546FEF7B7FF002838D1044662
:10C390002B78002B3BD1062C41D1BDF904309AB249
:10C3A000072A3CD840F2DC54BDF90610A1F2EE2277
:10C3B00092B2A24233D8BDF90820A2F2EE2080B298
:10C3C000A0422CD8BDF90A00814228DC824226DB3B
:10C3D000914224DCBDF90C5005F16404A4B2C82CD0
:10C3E0001DD8BDF90E40112C19DC0C27194E07FB86
:10C3F00003639980DA8018819D72DC7205B0F0BD0C
:10C4000000220120134905B0BDE8F04022E72D2BA2
:10C4100003D0A3F13002092A16D8052C04DD05B09B
:10C42000BDE8F040FEF7A6BF28460BF05FFE04AB68
:10C43000661C03EB440424F80C0C15F8013F303B58
:10C44000092BFAD93446A3E7202BE8D1013526463B
:10C45000F8E700BF3C1A00202DE9F04F054688465A
:10C4600014460027DFF8E0A085B0062300267B43B2
:10C470000393039B334408EB030292F8C0B0002CF3
:10C480005ED0234493F8C0305246ABEB0300D0F1AA
:10C49000000949EB0009019300963B4649462846AE
:10C4A000FFF752FA8DE840083B4652464946284677
:10C4B0000136FFF75FFA062EDBD10137062FD4D104
:10C4C0000026DFF884B008F1E40A1AF8019B002C7A
:10C4D00038D0A31993F8E4305A46A9EB03014F4230
:10C4E0004F4101930096062339462846FFF72CFA60
:10C4F0008DE840020623144A394628460136FFF7E4
:10C5000039FA0B2EE1D198F8F0606CB194F8F03064
:10C510002846F21A019300235442544100930A4AD8
:10C5200007232146FFF710FA002301960093064ADD
:10C53000072321462846FFF71DFA05B0BDE8F08F16
:10C54000A146AFE72746D3E7D6CD01087FB505461C
:10C55000FEF7D2FE044630B1002218490120FFF751
:10C560007BFF04B070BD28466A4615490BF01AFEE1
:10C57000134E01AD78B1032C02D1FEF7FBFEF0E7BC
:10C580000BF0B4FD6A4645F82400314600200BF05C
:10C5900009FE0134EEE7032CEFD101AC70CC32463A
:10C5A0002946E0B207F05EFC0028E6D033462A4672
:10C5B00021460448FEF700FFD3E700BF042D00200A
:10C5C000A7CD0108D6CD01082DE9FF478146904649
:10C5D0000E4615460027DFF864A0B8F1000F2AD0F8
:10C5E0002B8832889A4224D174886A88A21A5442CD
:10C5F0005441EA7821460292AA7848460192009373
:10C6000052463B46FFF7A0F9F37852460293B378BF
:10C610002146019336F8043B484600933B460137D8
:10C62000FFF7A8F9102F05F10405D6D104B0BDE835
:10C63000F0870024DDE74446E6E700BFEACD0108C5
:10C640002DE9F0410646FEF757FE044628B1BDE845
:10C65000F041002222490120B6E730460BF046FDAA
:10C660000F2805462EDC3046FEF74EFE0646DFF864
:10C670007C801C4F203530460BF038FD38F81430E4
:10C68000984226DC012C11D0022C13D027F825006B
:10C6900030462C210EF0B8F9064678B10123013658
:10C6A0000134B3B1032CE6D1BDE8F08107EB85037B
:10C6B0009870EDE707EB8503D870E9E7A21E5342B7
:10C6C0005341EDE72146BDE8F0410F220648FEF751
:10C6D00080BE002347F82530BDE8F041FEF74ABE92
:10C6E000842D0020042D0020C1CB0108D4B1010805
:10C6F0002DE9F04F07468A46164600248FB0DFF832
:10C7000060800DF124095AF82430494602A80293AA
:10C7100006F062F916B356F82430029D0393EB1A23
:10C720005D420DF1100B5D41594603A806F054F926
:10C73000CDF800B02346424629463846FFF704F9B3
:10C740002346CDF800904246294638460134FFF78B
:10C7500011F9202CD7D10FB0BDE8F08F3546EFE7A7
:10C76000FCCD01082DE9F04F87B00546FEF7C4FD6A
:10C77000044638B1002255490120FFF7B9FF07B040
:10C78000BDE8F08F28460BF0B1FC1F28074600F3E8
:10C7900097802846FEF7B8FDA0460646A246A14669
:10C7A0002546A346494B009443F827400193484B44
:10C7B000E1B2E05C00230DF10C0CB64616F8012B3B
:10C7C0001AB190420FD00A2B09D106AE334400268D
:10C7D000904203F80C6C08D0FEF7CCFDCFE703F8CD
:10C7E0000C200133E9E70246EFE701390EF10106BB
:10C7F000032932D8DFE801F04E1F025B4FF0010E33
:10C80000DFF8DCC00DF10B0010F8011F49B3002365
:10C81000304AD25C8A4203D00133072BF8D1534609
:10C82000002212F80CA08A453DD10EFA02F248EA25
:10C8300002089A46E8E74FF0010C0DF10B0111F8E0
:10C84000012F72B10023244813F800E0964526D149
:10C850000CFA03F349EA0309F1E703A80BF046FCDD
:10C8600083460134052CA2D1009B05F00F0545EA53
:10C87000834545EA895949EA0A2A4FEA0B134AEAED
:10C880000838019ADBB248EA030342F8273008F07F
:10C89000A9F974E703A80BF029FC0546E1E7013389
:10C8A000062BD0D1CBE70132062ABAD1C1E703A8C3
:10C8B0000BF01CFC03460F28C8BF00230093D0E7F1
:10C8C0001F2221460548FEF784FD58E7042D00206D
:10C8D000DAB10108F2C50108ECC50108C1CB0108B5
:10C8E000F9C501082DE9F34781460F469046022617
:10C8F0000024DFF860A0B8F1000F28D037F824201A
:10C9000038F824309A4238F806201ED1BD5BA91AA7
:10C910004D424D41019200935246234629464846D6
:10C92000FFF712F8BB5B5246019337F824302946D3
:10C930000093484623460134FFF71CF8042C06F107
:10C940000406D8D102B0BDE8F0870025E2E74546ED
:10C95000E8E700BF06CE0108F8B50546FEF7CCFCB7
:10C96000064628B1BDE8F840002226490120B9E773
:10C97000254928460EF01BF868B94FF47A714FF438
:10C98000FA62204B19805A809980DA8019815A8185
:10C990009981DA81F8BD28460BF0A8FB03280446EC
:10C9A00028D82846FEF7B0FC064658B10BF09EFB8F
:10C9B000012705463046FEF7A7FC30B9BDE8F84030
:10C9C000FEF7D8BC05460746F4E70BF08FFB002FB7
:10C9D000F4D040F2DC53A5F2EE229A42EED8A0F257
:10C9E000EE229A42EAD8074B23F8245003EB840343
:10C9F0005880F8BD3146BDE8F84003220348FEF7F1
:10CA0000E8BC00BFA81B002074CD010814DF01089A
:10CA10002DE9F04F0E461546002797B00890099271
:10CA2000D6F80080002140460AF088FE044600281F
:10CA300069D173680493B3680593F3680693099BFF
:10CA4000002B3DD0D5F800B0EB6859464046D5F8EC
:10CA500004A0D5F8089007930AF070FE80B1514603
:10CA600004980AF06BFE58B1494605980AF066FE34
:10CA700030B1079906980AF061FE041C18BF012422
:10CA800013A95846FCF7B8FE10A983465046FCF798
:10CA9000B3FE0DA982464846FCF7AEFE0AA98146C0
:10CAA0000798FCF7A9FECDF808900390CDF804A0F4
:10CAB000CDF800B03B46154A21460898FEF744FFE2
:10CAC00013A94046FCF798FE10A904460498FCF709
:10CAD00093FE0DA980460598FCF78EFE0AA98146B3
:10CAE0000698FCF789FE3B4603908DE81003074A41
:10CAF000002108980137FEF73DFF082F06F11006C8
:10CB000005F110058CD117B0BDE8F08F17CE0108E4
:10CB10002DE9F84F07460026534D3846FEF7ECFB4B
:10CB2000804628B10022BDE8F84F4F4901206FE749
:10CB300005224E4938460DF075FF38B900224A4BA0
:10CB4000C25010308028FBD1BDE8F88F042248493C
:10CB500038460DF067FF04463846002C3FD1FEF7FB
:10CB6000D3FB814600287CD009F090FEDFF818A1A5
:10CB70005FFA80FB5AF82480B8F1000F04D13D48D9
:10CB8000BDE8F84F09F0A2BC5A46414648460DF0B0
:10CB900049FF013407460028ECD1374B2E6003EBE8
:10CBA000C404D4F8E8E02E612E622E632E642E6554
:10CBB0002E662E67BEF1000F03D094F8E4C06745DF
:10CBC00005DB41462D48FEF7F7FB2D4FA5E73B015E
:10CBD000EC1873440FCB013784E80F00EFE70BF03C
:10CBE00085FA0728054635D83846FEF78DFB0646F8
:10CBF00028B3FCF765FD01241B4A2B01D0503046B9
:10CC0000FEF782FB064630B1FCF75AFD164B0134A5
:10CC100003EB051358603046FEF776FB064630B14D
:10CC2000FCF74EFD104B013403EB051398603046C2
:10CC3000FEF76AFB28B9BDE8F84FFEF79BBB044638
:10CC4000DDE7FCF73DFD084B032C03EB0515E86021
:10CC5000F1D167E74146BDE8F84F07220948FEF7E2
:10CC6000B8BBBDE8F88F00BF4C1D002074CD010893
:10CC70007ACD01087FCD0108FCB001088CCD0108F8
:10CC80007DC90108C1CB010808B7010810B5102201
:10CC9000002104460DF083FE0A2323800023A38194
:10CCA000E381E3802381638110BD03788B4286BFDB
:10CCB000024B33F811000020704700BF44150020DC
:10CCC000034B187E10B1002201201A76704700BF76
:10CCD000441500207FB5294E294A31681268294C35
:10CCE00091422949294A2A4B096826DB1B78C4F856
:10CCF000191092F8202094F82110E37794F822304C
:10CD00006177A27784F82030532008F0BBF9D4F87B
:10CD1000190008F084FA607F08F081FAA37F01A867
:10CD20000193E37F029394F82030039308F0D2F943
:10CD300000230120336004B070BD1B7892F82020DE
:10CD4000019194F821108DF80A3004F1190594F836
:10CD500022308DF808108DF809202946082201A8F4
:10CD60008DF80B300DF0F2FD0028E4D001AB03CBC1
:10CD7000C4F81900C4F81D10C6E700BFC83700206A
:10CD8000082200204415002068390020F02E0020E1
:10CD9000852E00202DE9F041884600240C4B93E8B5
:10CDA000E000054406440744444501DBBDE8F0814A
:10CDB00037F9142036F9143035F9140013440222DF
:10CDC00093FBF2F3C01A08F014FA0134ECE700BF49
:10CDD000D8370020064B1A684FF47A73B3FBF2F38E
:10CDE000C3EB431203EB8203DB000380704700BFF9
:10CDF000B42B002002392DE9F84342680446036849
:10CE0000806806290DD8DFE801F004086A6D7275A4
:10CE1000780022605B42636003E05B425242236021
:10CE20006260384B1B78002B57D120680AF09EFABD
:10CE3000804660680AF09AFA0746A0680AF096FAF7
:10CE4000314D0646696A40460AF0E4FA296B81468C
:10CE500038460AF0DFFA014648460AF0D3F9E96B92
:10CE6000814630460AF0D6FA014648460AF0CAF929
:10CE70000BF0CAFAA96A206040460AF0CBFA696B47
:10CE8000814638460AF0C6FA014648460AF0BAF921
:10CE9000296C814630460AF0BDFA014648460AF040
:10CEA000B1F90BF0B1FAE96A606040460AF0B2FAF3
:10CEB000A96B804638460AF0ADFA014640460AF0B2
:10CEC000A1F9696C074630460AF0A4FA01463846D3
:10CED0000AF098F90BF098FAA060BDE8F883524286
:10CEE000226098E75B4223604042A06099E722609D
:10CEF0006360F9E752426260F6E7524222605B42A9
:10CF0000F6E700BF0E00002044150020F8B500240D
:10CF1000084D094F05F14C06B5F848000AF022FA11
:10CF20007A6B014630192434FCF754FF6C2CF3D192
:10CF3000F8BD00BF44150020282000202DE9F04F47
:10CF4000C04B89B01978C04DCB1EDBB2142B66D80C
:10CF5000012202FA03F3BD4A1A40002A5FD085F885
:10CF6000B81010220021BA480DF019FD00273D230A
:10CF7000B84C232084F859300126E761FDF737FAD1
:10CF8000682308AA637602F80B7D2676334675215E
:10CF900004F1140004F05CFA04F11408002842D0F3
:10CFA000AD4B0DF11602E365AC4B394623664046A6
:10CFB000334604F04DFA9DF8163003F07E038DF8E9
:10CFC0001630002840F00A819DF8153003F07E03EA
:10CFD000682B8DF8153040F02281022384F85730F9
:10CFE000062306AA1946E66D9D48B0479DF81D30F8
:10CFF0009DF81B209B00520002F0020203F0040384
:10D0000013439DF8192002F00102134300F0F88049
:10D01000012B40F0E980002384F858303CE00023E5
:10D0200085F8B8309DE78F4BE069A36110B92C20DB
:10D03000FDF78AFA95F8B930E06183B910B11C2286
:10D04000C37182711321FDF7A5FAE069FDF7C9FAF2
:10D050000221A069FDF771FB012385F8B930E06971
:10D06000FDF7BAFAF521A069FDF7B6FB012306AA80
:10D070000021A069FDF782FBE069FDF7B2FA9DF897
:10D080001830712B00F09E8000F29480122B00F07B
:10D09000A180702B00F0EC82734A9379914684F85A
:10D0A0006830002384F8563094F85730022B40F053
:10D0B000E3826E4A22606E4A62606E4A22620122F8
:10D0C00084F856206C4E0D2B326842F0010232601B
:10D0D00005D8012202FA03F313F43E5F02D10023C4
:10D0E00089F8073099F803B0BBF1000F03D0BBF10A
:10D0F000070F40F0028199F8073099F80200002BE1
:10D1000000F0E68005235D4F84F85330431E84F819
:10D1100054300AF02BF939460AF07CF90AF07CFB0E
:10D12000DFF82CA12368CAF8000084F852B04948FF
:10D13000984799F800300BB184F856304FF0000949
:10D1400005F0D8FA4FF0010BDAF80070CA464C4CE3
:10D150004822002120460DF022FC98E8070004F147
:10D16000080383E80700474B04F1240E93E8070007
:10D1700033F8053C8EE80700A4F81F30424B1A79BB
:10D1800093F8038084F83020039384F81E90B8F15C
:10D190000C0F00F29282DFE818F0C1009002C1008B
:10D1A000F00000011701F0002B012B012B012B01D6
:10D1B0002B012B01AC2B00F05D82AF2B0CD0732B1D
:10D1C0007FF46AAF062384F85730304BE365304B69
:10D1D000236661E70823F6E70923F4E7682B7FF469
:10D1E000F3AE84F8576057E7022B01D1012313E710
:10D1F00003F00303032BF9D00320FDF784FA4BE778
:10D200000123E66D0DF117020C211548B0479DF87A
:10D21000173013F00F03EFD0042BE7D1FBE6702B90
:10D2200004BF042384F8573036E71A4A84F856308E
:10D230002260194A04236260184AA2600D4A2262E1
:10D2400040E700BF84210020441500202100110088
:10D25000B42B00202829002051140108451401088E
:10D260003C290020003800401229002065140108E4
:10D270006B13010890C1793D882100200000FC411A
:10D280002820002084290020AA20002011A80008BE
:10D290003FA80008CF15010827130108F71201085D
:10D2A000914A2260914A063BDBB26260904A032BAE
:10D2B000226296BF8F4A0723D35C012284F856204E
:10D2C000002B00F0E781FDE68B4A22608B4AEAE7FB
:10D2D00094F857300A2B06D00C2B09D10223884F23
:10D2E00084F8533012E70423864F84F853300DE757
:10D2F0000323854F84F8533008E794F85730012012
:10D300000A2B13BF002384F85300804F84F8533056
:10D3100018BF7F4FFAE64FF0000836E708AB03F876
:10D3200008AD00930123002253211846F9F728FA8B
:10D3300018B39DF81830E52B1FD1764B85F8BAA0AD
:10D340002360754B63600423A3773368734843F00D
:10D35000020333604FF48073A382236898474FF42D
:10D360007A736363B5F84830002B51D1039B9B78E7
:10D37000002B00F0A681A377A3E1E37F022B0CD161
:10D38000674B2360674B636094F82030002B0CBF21
:10D390006F236E2323770123D6E708AB03F8089D9C
:10D3A000009301230D221C211846F9F7E9F958B121
:10D3B0009DF818302A2B01D01A2B05D15A4B236027
:10D3C0005A4B63600223BFE708AB03F8089D009344
:10D3D0000123002218211846F9F7D2F940B19DF82F
:10D3E0001830FB2B04D1524B2360524B6360D2E7C1
:10D3F000E37F042B40F05E814F4B2360494BF5E700
:10D400000BFA03F313F4587F00F057814B4BF4E70A
:10D4100000264B4FB5F8480009F0A4FF626B0146A7
:10D42000B8192436FCF7D6FC6C2EF3D19EE745499B
:10D430000A70DA781B79013A0A714B71042E00F2F6
:10D440001481DFE816F017003301170017002F00D2
:10D450005B783C4C013B5BB2012BCEBF002305EB5C
:10D460000313D3F8BC30227063608878FDF76CF842
:10D47000A060E3E7334C0A20FCF7B9FF2678012EC1
:10D480002FD163796BBB772363710DF117030122F1
:10D49000A0212C4804F07BFA8146002856D1002EAA
:10D4A00040F0BE80274E1420FCF7A1FF3478012CF9
:10D4B00040F0B9807379002B40F0B580762373710A
:10D4C000214B0122D0211F4804F061FA95F8EC307D
:10D4D000582B00F0AA80002C00F0E8800023737124
:10D4E000E4E00026D1E700BFD51401086B13010862
:10D4F00090C1793D6BB5010893150108F11301083E
:10D5000000009C43E438DE420000FA42D145634407
:10D5100000007A446F6B0008BD68000828200020D6
:10D52000DD120108AF130108C96A00081568000878
:10D530004B6B000873680008CD120108D512010872
:10D54000901500202C210020301600209DF8173067
:10D55000FF2BA4D0002701221E215B4804F002FA11
:10D560004FF42F60FCF738FFBA46DFF85CB1A7F143
:10D57000600106AB0222C9B258468DF818A08DF89A
:10D5800019A004F004FA9DF818209DF8193043EA18
:10D5900002234E4ABB520237102FE8D1002319460E
:10D5A000B5F8EA2002F00F0702F47F42A5F8EA205E
:10D5B00021F001002844B0F8DC00002818BF4FF02B
:10D5C000000911F0010F1ABFC0B2434083EA1023D3
:10D5D000082013F4004F18BF83F4C05301384FEAFA
:10D5E0004303F6D101311029E2D13A43A5F8EA20EC
:10D5F000B9F1000F7FF453AFC3F303339F427FF4BD
:10D600004EAF42F21073A381E381314B2361314B62
:10D610006361314BA361314BE361314B23621EE007
:10D62000002363713EE700244AE72E4B182288212D
:10D63000254804F0ACF93122F421234804F092F992
:10D640000023B381284B7361284B3361284BB361AE
:10D65000284BF36145F6D813F381274B3362274AF1
:10D66000136843F00403136020E0012EF7D11DE09E
:10D670000523A8E50723A6E5012B3FF4D6AD042B2F
:10D680003FF40EAE092B05D801229A4012F4587FC0
:10D690007FF41AAE4FF00008194B1A785E79012A10
:10D6A00019463FF4C4AE022A3FF4D2AE404609B058
:10D6B000BDE8F08F092B7FF6A3AEB8F1010F3FF65E
:10D6C0002AAE4FF00108E7E72C21002020160020A9
:10D6D00083190108F11901087D190108E1190108F0
:10D6E000710F010834160020CB120108C91201087D
:10D6F00089190108011A0108111101088821002067
:10D700002A300020F0B5002541F221072B4624499C
:10D710000A78961EECB2B44219DB0244941E013A18
:10D720000C440A446478527802EB042292B2934289
:10D730000CD100244FF4AF6791F82450194E0130FA
:10D74000E3B29D4217D80122174B1A70F0BD044472
:10D750000C44647883EA0423082413F4004F04F192
:10D76000FF344FEA430318BF7B4014F0FF049BB221
:10D77000F3D10135CEE700EB4303DAB28B18013267
:10D780000A4493F801E0537803EB0E239BB27B43EA
:10D790001B1303F5487326F814300134D0E700BF9B
:10D7A00050160020441500205C15002007298FBF6B
:10D7B0000020034B03EB8101886A80B2704700BFF1
:10D7C000501600202DE9F041174D95F8482012B968
:10D7D0000020BDE8F081002285F8482095F8492016
:10D7E000A82AF5D195F85C40002CF1D10F4F104ECE
:10D7F00005F14908283508EB0403D8781B7903EBB9
:10D80000002009F0AFFD394609F004FE314609F069
:10D81000F7FC0AF001F845F814000234102CEAD1A4
:10D820000120BDE8F08100BF501600200000203E1E
:10D830000080BB43034B03EB4101B1F85E00C0081D
:10D84000704700BF501600201F4BF0B593F87E20A4
:10D8500019460AB90020F0BD002093F87F40B3F8C4
:10D86000806003EB440595F8857095F8862083F871
:10D870007E0042EA07229642ECD193F88330012BD6
:10D8800002D0812B14D0F0BD1846102C88BF102375
:10D890004FF0000288BF81F87F300C4B91F87F4039
:10D8A000A3F12705D1B28C4203F1020302D8F0BDE7
:10D8B0000320EAE713F8026C13F8011C41EA062181
:10D8C00025F812100132EDE750160020D516002081
:10D8D00003788B420CD9074B89001A78064B0B440E
:10D8E000D3F8A80002B1400800F5777080B2704705
:10D8F000002070470629002050160020054B03EB3E
:10D900008101D1F8D80000EB8000C00800F55C7000
:10D9100080B27047501600205E4B10B593F820017E
:10D92000002800F0B680002293F8234193F82401E8
:10D9300083F8202193F8222104F0070142EA012212
:10D9400000F03F01490141EAD401C3F8D82093F81F
:10D950002521C3F8DC1093F82611920093F8274193
:10D9600042EA901201F0010042EA8022C3F8E0206E
:10D9700093F8280104F00F02D20142EA510200F0AC
:10D980007F01C3F8E420090193F8292141EA141129
:10D9900093F82A415200C3F8E81042EAD01204F08A
:10D9A000030193F82B0142EA4122C3F8EC2093F8DB
:10D9B0002C2100F01F018901D20041EA940142EAC2
:10D9C000501293F82E4193F82F01C3F8F42093F8E6
:10D9D0002D21C3F8F01004F0070142EA012200F003
:10D9E0003F01490141EAD401C3F8F82093F83021FE
:10D9F000C3F8FC1093F83111920093F8324142EAD7
:10DA0000901201F0010042EA8022C3F8002193F84D
:10DA1000330104F00F02D20142EA510200F07F010B
:10DA2000090141EA1411C3F80811C3F8042193F85D
:10DA3000342193F83541520004F0030142EAD01238
:10DA400042EA4122C3F80C2193F8372193F83601BA
:10DA5000D20042EA501200F01F01C3F8142193F8DB
:10DA60003821890141EA9401D407C3F810114CBF51
:10DA700040F21471AD21C3F8181191074CBF40F268
:10DA80001471AD2112F0080F14BF03200120C3F858
:10DA90001C1110BD5016002008B5084B03EB810186
:10DAA000D1F83C0109F05EFC054909F0B3FC0549D9
:10DAB00009F0A8FB09F0B0FE80B208BD50160020A6
:10DAC00001F11F3F00405C44082310B5114A92F851
:10DAD0007E0110F0800F4FEA400018BF80F0D500A3
:10DAE000013BC0B2F5D192F87D210B4C023A934232
:10DAF00000DB10BDE118C9784840082110F0800F04
:10DB00004FEA400018BF80F0D5000139C0B2F5D10E
:10DB10000133ECE750160020CC17002010B5594C0B
:10DB200094F8BC310BB9002010BD002384F8BC313F
:10DB300094F87E31162BF6D1FFF7C6FF94F8953195
:10DB40008342F0D194F8800194F8811194F87F31E8
:10DB500000F0070243EA022301F03F025201C4F839
:10DB60003C3142EAD00294F88231C4F8402194F862
:10DB700083219B0094F8840143EA911302F0010190
:10DB800043EA8123C4F8443194F8851100F00F036F
:10DB9000DB0143EA520301F07F02C4F8483112016D
:10DBA00094F8863142EA101294F887015B00C4F8B9
:10DBB0004C2143EAD11300F0030294F8881143EAA0
:10DBC0004223C4F8503194F8893101F01F029201C8
:10DBD000DB0042EA900243EA511394F88B0194F877
:10DBE0008C11C4F8583194F88A31C4F8542100F0EB
:10DBF000070243EA022301F03F025201C4F85C31FC
:10DC000042EAD00294F88D31C4F8602194F88E2154
:10DC10009B0094F88F0143EA911302F0010143EA5B
:10DC20008123C4F8643194F8901100F00F03DB01F4
:10DC300043EA520301F07F021201C4F8683142EA5C
:10DC4000101294F89131C4F86C2194F892015B00A1
:10DC500000F0030243EAD11343EA422394F89311FC
:10DC6000C4F8703194F8943101F01F029201DB0086
:10DC700042EA900243EA5113C4F87421C4F878319F
:10DC8000012010BD5016002070B5304E0546337887
:10DC90002F4C3BB1D4F8C03183429EBF0023337078
:10DCA00084F8C4312B4B1B6813F001021CD094F88C
:10DCB000C52194F8C63193420CD00123002184F889
:10DCC000C431254B84F8C6211970D4F8C8312B44CF
:10DCD000C4F8C03194F8E43173BBD4F8E80185424C
:10DCE00034BF0020012070BD13F4005308D0134648
:10DCF0001A4A32F8131009BB01330C2BF9D1E9E7AA
:10DD000084F8E431164B9B689847C307E2D501239A
:10DD100000F00200002814BF1A46002284F8E43103
:10DD20000D4B5A700CBF012300233370D4F8C83157
:10DD30002B44C4F8C031CDE7012070BD012300227F
:10DD400084F8C431044B1A70F0E700BF852E002020
:10DD50005016002000290020100000201C18002070
:10DD6000C428002000207047002070470023032BA8
:10DD7000CCBF012200220CBF05211E2100F8132078
:10DD800000EB43020133122B5170F0D1704710B5F4
:10DD900000234FF47A744FF4FA61C452C21804336A
:10DDA000102B5180F9D110BD024B03EB4101B1F8AA
:10DDB000CC01704750160020024B03EB4101B1F833
:10DDC000CC01704750160020044B93F8EC0118B1B9
:10DDD0000022012083F8EC21704700BF501600207C
:10DDE000024B03EB4101B1F8EE01704750160020E1
:10DDF000024B03EB8101B1F814027047501600206A
:10DE0000034610B500F16004064A0C3303CA43F818
:10DE10000C0C106843F8081C43F8040CA342F3D11F
:10DE200010BD00BF70B5010840F2DC5303803223FF
:10DE300043800123042283730023C2731A4630B542
:10DE4000084C838119198D792D0741BF0D798118EF
:10DE50000D710132D02B03D0072A03F11003F1DD3D
:10DE600030BD00BF58C8010870B50546FCF76CFA14
:10DE7000324CD4F84C32C4F84C02C31AB3F5FA5FF2
:10DE800082BF002384F8503284F8513294F8503223
:10DE900033B9A12D1ED1012284F851221B222270F8
:10DEA00094F851222AB1E218EDB20133557084F88A
:10DEB000503294F850522378AB420AD194F852323F
:10DEC000052B0ED0062B0FD0002384F8513284F896
:10DED000503270BDA22DE3D1012284F851222322B9
:10DEE000DDE70020FFF70EFCA3781E2BECD100200D
:10DEF0000246013DC3B2AB4207DB25446B789A4230
:10DF0000E2D10320FFF7FEFBDEE7082123445B7824
:10DF1000DBB282EA030616F0010F4FEA530301F168
:10DF2000FF310CBFDBB283F08C0311F0FF01C2F3B1
:10DF30004702EED101301A46DCE700BF5016002040
:10DF400010B50446FCF700FA41F288310D4BD3F8C6
:10DF50005422C3F85402821A8A4284BF002283F8F2
:10DF6000582293F85822142A03EB02010CBF012215
:10DF7000013281F8494014BF83F8582283F84820C1
:10DF800010BD00BF5016002010B50446FCF7DCF9A8
:10DF9000254BD3F85C22C3F85C02821AB2F57A6F83
:10DFA00084BF002283F8602293F860224AB9A82C2B
:10DFB00038D183F87E20A3F88020991881F8824018
:10DFC00006E0022A02D183F87F40F6E7242AF4D93A
:10DFD00093F87F1001320231D2B249008A4283F8AD
:10DFE000602216DA082241F22101B3F88000E4B27F
:10DFF00080EA042010F4004F02F1FF324FEA4000A3
:10E0000018BF484012F0FF0280B2F3D1A3F880009D
:10E0100010BD01318A4201BF002283F86022012233
:10E0200083F87E2010BD00BF50160020F8B5434C89
:10E0300094F8680200285AD0002384F8683294F8D3
:10E04000693294F86A5205EB0325FCF77DF93C4BE5
:10E05000ADB2B0FBF3F0D4F87C323A49002B47D193
:10E06000A4F88052C4F87C020322374B08781D784C
:10E07000364B1B681E78364B1F78511E631893F879
:10E0800069322B4103F00F03B34212D20B2B10D88D
:10E0900008B183420DD0214491F869E2A11891F8AA
:10E0A00069120EEA070E04EB830301EB0E21C3F89D
:10E0B000A8100232112AE0D1264B1B78B3B194F894
:10E0C00082329BB194F86B321B060FD5FCF73CF9FA
:10E0D000214A6430D4F86432204C90601BB15968F6
:10E0E000091A002926DBD3601D4B23600120F8BDEF
:10E0F0009842B9D0C31A012BB2D10A78002AAFD006
:10E10000184B92001E78B4F880322244EB1A4EB1BC
:10E110006FF01306DB0293FBF6F303F50063C2F81E
:10E12000A8309DE76FF013069B0293FBF6F303F50F
:10E130008063F4E703F108049B68CFE750160020E2
:10E1400020A107001029002004290020C028002059
:10E1500005290020D028002010000020B41800203D
:10E16000140000200629002010B50446FCF7ECF846
:10E1700041F288310E4BD3F88422C3F88402821A0C
:10E180008A4284BF002283F8882293F888220F2ACB
:10E190000DD8511CC9B21A441029E4B282F8694260
:10E1A00014BF0022012283F8881283F8682210BD70
:10E1B0005016002010B50446FCF7C6F840F6AC51E6
:10E1C000104BD3F88C22821A8A42C4BF002283F8F3
:10E1D000902293F890228AB90F2C11D1C3F88C02A7
:10E1E000511CC9B21A44192982F8214114BF0022D6
:10E1F000012283F8901283F8202101E0182AEFD938
:10E2000010BD00BF5016002010B50446FCF79CF866
:10E21000154BD3F8942202F24C42904284BF002264
:10E2200083F8982293F898221AB9C3F8940205212A
:10E2300004E0022AFBD993F87D110231914211DDED
:10E24000501CC0B21A44814282F87C41D4BF0122E2
:10E25000002283F8BC21D8BF002283F89802D8BFDF
:10E2600083F8982210BD00BF5016002010B5044658
:10E27000FCF76AF8284AD2F89C32C31AB3F5FA7F41
:10E28000134628D9002283F8A02283F8A12293F80C
:10E29000A022C3F89C0292B9E1B2042901D020293E
:10E2A00021D183F8A31283F8A4120221002083F85D
:10E2B000A5124FF6FF7183F8A202A3F8A6129918CF
:10E2C00081F8A84293F8A41201398A4220D1012290
:10E2D00083F8C82210BD92F8A1120029D7D00139C5
:10E2E00082F8A11210BD93F8A31271B9552C0CD16C
:10E2F00001211F2083F8A21283F8A34283F8A4020D
:10E30000A3F8A62283F8A512D9E78C42D7D010BD76
:10E31000013283F8A022FAE75016002010B5074C0E
:10E3200094F8822242B1064B04F2C9211868FCF726
:10E33000DEF8002384F8823210BD00BF50160020A2
:10E3400008290020F8B52A4E96F8C83234460BB991
:10E350000020F8BD002596F8A23286F8C852012B9D
:10E3600096F8A41232D1314491F8A73291F8A6223E
:10E37000B6F8A60202EB032296F8A53292B203F198
:10E380001C05EDB2E61896F8A97296F8A8120233A9
:10E3900001EB0721DBB20144AB4288B2F2D18242E9
:10E3A000D6D1002294F8A552124905EB4203DBB204
:10E3B000234493F8A90293F8A83203EB002341F811
:10E3C000223001320E2AF0D10120F8BD06F52A7064
:10E3D00004F08DFE0028BBD096F8A332202BE0D0AD
:10E3E00006F52A7004F09EFE86F8A102B0E700BF91
:10E3F00050160020641800202DE9F04105460F4614
:10E400000446094E06F10808217809B9BDE8F081F3
:10E4100005480CF0F9FA20B140453EBF801B631B54
:10E420003B540134F0E700BF7CB5010810B5002172
:10E430002C2204460CF0B3FA0123637223752923BE
:10E44000A37540F2DC53238340F21A43638340F206
:10E450006C73A3830223A377132384F8203040F244
:10E460004653638440F27533A38440F64303E38448
:10E470000623214684F828300148BDE81040BBE758
:10E480002BCE0108124B03EB400393F8DE222AB196
:10E49000022A12D00F4B33F810007047022809D916
:10E4A0000328F7D10C4B1B6813F4805F0B4B02D190
:10E4B000988C7047094B188B704793F8DF0200EB7C
:10E4C000800000EB800000F2EE2080B2704700BFB9
:10E4D00050160020AC2E002000290020D428002057
:10E4E00008B5FBF731FF0222064B83F80823C3F877
:10E4F0000403054B1A68054B9A60012283F821201A
:10E5000008BD00BF50160020D42C0020F02E0020A3
:10E5100008B5FBF719FF0222074B00F5B71083F887
:10E520000823064A00F55870C3F80403936803F201
:10E53000DC53936008BD00BF50160020F02E002071
:10E5400070B50024114D2146702205F20A3085F87D
:10E5500009430CF024FA214605F27A34A4F1700044
:10E56000631893F902207AB11E680A180E509E882B
:10E570009B790731937195F80933702903F10103F1
:10E58000968085F80933EBD170BD00BF501600208E
:10E590000C220A4B02FB003292F8F723FF2A07D025
:10E5A00007490978914203D9064B33F912007047A5
:10E5B0000C2202FB0030B0F9F40370475016002023
:10E5C000C4280020AC2E002038B5134A134B044653
:10E5D0001B781068124D5843124B186008F0C2FEA9
:10E5E000114908F017FFC5F84C04204605F07CFDE2
:10E5F000204605F0A9FC208D08F0B8FE0B4908F074
:10E6000009FFC5F85004608D08F0B0FE074908F016
:10E6100001FFC5F8540438BDB42B00207820002039
:10E62000501600206C210020BD3786356F12833ACA
:10E630007FB5094B094A0493094B0A4903930A4BD6
:10E640000A4802930A4B01930A4B00930A4BFCF7CA
:10E65000B3FE07B05DF804FB6FCE010834CE0108AD
:10E660007DC9010839CE010895C9010844CE0108C9
:10E6700089C9010874CE01080520002038B50A4B6D
:10E680000D4603EBC00494F8C020084853F822104C
:10E69000FCF72CFF94F8C6302BB1691C0448BDE888
:10E6A0003840FCF723BF38BD94B501087FDA010874
:10E6B00073CB01082DE9F04F0025AA46A9465F4E0D
:10E6C000DFF87CB18BB05E4B5E491A680023934241
:10E6D00025DB01350F2D06F13406F4D15A4BDB78DA
:10E6E000D3B14FF47A73DBF84410DBF84820B1FB68
:10E6F000F3F35209DBF84C105448FCF75DFE0A2294
:10E700009AFBF2F399FBF2F102FB13A002FB1192C8
:10E7100000904F48FCF750FE0BB0BDE8F08F51F869
:10E720002300864222D00133D1E73B46079A0121DC
:10E730004848FCF7DBFE444639E038B108F016FEE5
:10E740000146454808F01AFF09F040F804463A46E9
:10E7500029464248FCF7CAFE4FF0000827E0069819
:10E7600030E021463E48FCF727FE58E07368012D53
:10E770000793F36A37680693336BF0690893B36ABB
:10E780000993DAD138B108F0F1FD0146324808F0BA
:10E79000F5FE09F01BF8334B80461B78012B90FBEC
:10E7A000F3F4C2D93A4601212C48FCF79FFE069BA0
:10E7B000002BD4D041F288314FF47A7003FB04115E
:10E7C000B1FBF0F0099B5B091DBF41F288324FF4A9
:10E7D0007A7103FB04221A4618BFB2FBF1F21A4900
:10E7E000052DC9781CBF814492440029B9D04FF44B
:10E7F0007A71089FB7FBF1F104910A2192FBF1F7BE
:10E8000001FB1722039290FBF1F201FB120100922F
:10E8100001910297069A21461348FCF7CDFD012D80
:10E820007FF457AF0F4B1B78012B7FF652AF424658
:10E8300007990E48FCF7C0FD4BE700BF0001002020
:10E84000DC1B0020E01B002000200020D0CE0108AF
:10E85000F0CE010889CE0108002474497ACE01085F
:10E86000CCCE0108782000209CCE0108C0CE010843
:10E87000374B2DE9F34119684FF47A733548B1FBF2
:10E88000F3F1FCF799FD344B34491A78344B09887D
:10E8900003EB8203334AD3F8603112783248FCF735
:10E8A0008BFD324B324F1968324B3348B1FBF3F1D9
:10E8B000FCF71CFE07F0F4FDB7F850502F4A304922
:10E8C0003048FCF779FDADB22F4A304B2946304D28
:10E8D000D31A3048B7F85220FCF76EFD2E6D002E8B
:10E8E00033D0304608F042FD01462B4808F046FE82
:10E8F00008F06CFF8046D5F8EC0038B108F036FD22
:10E900000146254808F03AFE08F060FF0446E86931
:10E9100038B108F02BFD01461F4808F02FFE08F023
:10E9200055FFB7F85410434664290190A8BF6421ED
:10E93000009432461948FCF73FFD194B19481988D5
:10E9400002B0BDE8F041FCF737BDB046D3E700BFE9
:10E95000D42C00201ECF0108D92E0020822C0020AC
:10E9600094B50108962C002038CF01082000002023
:10E97000DC1B002040420F005ECF01080050002049
:10E98000000800006ECF01080000020800F801082E
:10E990000001002092CF010800247449CCCF010867
:10E9A000142F002012D001082DE9F04F0746304CFB
:10E9B00087B023782F4A608852F82380FAF766FEE2
:10E9C0002D4BD0F804A093F8563082689BB1D34603
:10E9D0009246012607F040030593A379721E002B8F
:10E9E00008BF0123934208DC244B08349C42E0D149
:10E9F00007B0BDE8F08F9B46EBE7A38813441AF8F5
:10EA000003501BF80330EA1AD2F1000949EB02095E
:10EA100093B9009643461A4A49463846FCF794FF94
:10EA2000C5B9059B33B900964346154A4946384651
:10EA3000FCF7A0FF0136D0E703F00F021B094033BB
:10EA400002920193009643460E4A49463846FCF727
:10EA50007BFFE5E705F00F032D0940350293019593
:10EA600000964346074A49463846FCF783FFE1E7EC
:10EA700054B6010894B50108DC1B0020F4B6010867
:10EA80002DD0010841D001082DE9F04F89B007468B
:10EA900007F0FCFE044628B94120FFF785FF09B0C6
:10EAA000BDE8F08F0246914938460BF0BBFF904D10
:10EAB0000646002849D18F4807F008FD8E4CDFF844
:10EAC0006C82DFF86C9204F58C77A2882168B2FA28
:10EAD00082F201F14041A379A1F58431890A4131E3
:10EAE00055F82330C2F11F024046FCF7FFFCE179E4
:10EAF00011B14846FCF7FAFC083407F0D1FCA742F4
:10EB0000E3D107F0CDFC7D4807F0E0FC7C4CDFF85A
:10EB10002482DFF82492DFF824A2237E01363246D5
:10EB20000121404655F82370FCF7E0FC627E39462F
:10EB30003AB15046FCF740FC072E04F11C04ECD11E
:10EB4000ADE74846FCF738FCF6E7384607AA6D49BA
:10EB500009F028FB05F1C00782460026B84617F8E1
:10EB60003630224655F8231050464FEAC6090BF0BE
:10EB700059FF30B10136142EF1D1634807F0A6FCDD
:10EB80008DE707AA5F4909F00DFB044609F0AEFACC
:10EB90004D4495F8C6200746EAB9002828DCC84449
:10EBA000B8F80200FAF772FDFBB20193019AB8F8C7
:10EBB000043027781344029343680393002F00F036
:10EBC0009280524920460BF0F2FED8B9039B029A7C
:10EBD00098544F48D2E7002805DD1346BB4209DAB6
:10EBE000002A08BF012201214A48FCF7F2FB56E740
:10EBF0000123F3E707AA4349002009F0D3FA013FB4
:10EC00000446CCE7A7F14105EDB2072D04D9A7F1E1
:10EC10006105EDB2072D66D8601C09F067FAC3B232
:10EC20000F2B82465FD86C1C40EA0414E4B22046E5
:10EC3000FBF78AFC002856D0002C49D04FF0000882
:10EC4000230940330493DFF8F89004F00F03059391
:10EC500000272FE0B9F80200FAF718FDB9F80430E0
:10EC600042683B44D15CA14223D1464504D101997D
:10EC70008F421ED00021D154059A04992648FCF7F2
:10EC800035FC5FFA87FB5FFA88F359461846009314
:10EC9000FFF7F4FC464509D12048FCF727FC009813
:10ECA0005946FFF7EBFC1E48FCF720FC1D4807F017
:10ECB0000DFC013799F80630002B08BF01239F4255
:10ECC000C8DB08F10108B8F1140F09F10809BFD138
:10ECD0005FFA8AF205F141011348FCF76DFB039BD3
:10ECE000029A9C54DBE6FCF745FBD8E657D00108B6
:10ECF00094B501085CD00108341C00206AD00108DA
:10ED000024000020A7CD010888D001083CD00108CC
:10ED100090D00108C1CB010896D00108BAD00108F3
:10ED2000BDD00108FCCA0108C7D001085FD00108A6
:10ED300073CB01086FD001087EDA010881D0010889
:10ED400054B601082DE9F04F0E468DB0C449044673
:10ED500003F060FB0546002840F02682C1492046AA
:10ED600003F058FB0546002840F02082BE492046AB
:10ED700003F050FB0546002840F01A822046BB49AC
:10ED800003F048FB0028054612BF0824254601244D
:10ED90000EB144F01004B64EB64FBE42C0F00A8227
:10EDA0000123B54E86F8563001F010FBFBF7B1F8A1
:10EDB000B249284603F02EFB029608B144F0200425
:10EDC00014F0090F00F0D7810020FFF731FC04F0A8
:10EDD0001803182B04D1AA4807F049FB07F060FB81
:10EDE000A84B20461A78A84F002AA84A06BF01213E
:10EDF00013460021A64AFCF7BDFD2046FFF7D4FDCF
:10EE0000A44B3D781B78A44AEE1A75427541A34E77
:10EE1000294606EB8303D3F870312046FCF794FDB6
:10EE20003B78294606EB8306D6F870319A4A20468D
:10EE3000FCF7A0FD029B0021D3F870014FF0010503
:10EE400008F07CFC00B9054605F00101944A204613
:10EE5000FCF790FD934A204602F18001924DFDF7A8
:10EE6000D7FD924A92492046FDF7F4F995F9021030
:10EE70000026B1FA81F18F4A49092046FCF77AFD54
:10EE80002A468D492046FDF71BF88C4BDFF834A24B
:10EE90001F688B4BDFF870B2D3F800905AF82650F9
:10EEA000002D40F08E81DFF864A269EA070B854BE4
:10EEB00053F82580B8F1000F40F0A381029B45462E
:10EEC000D3F87072D3F87C32DFF844927B40DB4396
:10EED000DFF840A203932846FCF714F9039B7A4A13
:10EEE00003424FF00C0314BF4FF001084FF000082D
:10EEF00003FB0523D3F808B017EA000614BF4A46FF
:10EF000052465B4641462046FCF71EFD0135002E69
:10EF100014BF52464A465B4641462046FCF72AFD4E
:10EF2000132DD8D101260023684D694FDFF8E8E1A1
:10EF30005A5DD95D0CA8104400F8201C13F80E008F
:10EF40000DF1300C84440CF8101C16B1101A464216
:10EF500046410133082BEBD1002508AB5D4A314611
:10EF600020468DF81850FCF7EFFC04AB594A3146A7
:10EF70002046FCF7FFFC584A58492046FCF7E8FDBC
:10EF8000574A58492046FDF7B3FB574A5749204690
:10EF9000FDF71AFB524A53492046FDF75DFA544AE1
:10EFA000204602F15001FCF7C5FE524A204602F10C
:10EFB0005A01FCF7F1FC504A50492046FDF792FCFB
:10EFC0000127DFF858A1DFF858B16B0003931AF856
:10EFD00015201BF815309A4240F0348117F80A606A
:10EFE00017F80B10711A4E424E41022ADFF8AC801E
:10EFF00040F02A814FF019091BF80720434409FB10
:10F0000002F293F8583302F2EE22019200933C4A46
:10F010002B4631462046FCF797FC17F80A30384A51
:10F0200009FB03F909F2EE2301936B0013F80A3090
:10F030003146984498F85833204600932B46FCF705
:10F0400099FC0135122D07F10207BED1214600209F
:10F05000FCF7F9FB14F0080F2A4D00F00D8161E078
:10F06000EAD001086AE70108F1D00108F7D00108E9
:10F07000F8EC0108B8F00108DC1B0020FBD0010807
:10F0800004D10108EB2100208F210020D3D00108FA
:10F0900014D101088C2100201CD1010894B501086D
:10F0A00025D101084C1D0020CA1900203C1A00205F
:10F0B000C81A002034D10108281B00209421002008
:10F0C000CC20002074B70108F0B70108442C0020C0
:10F0D0007CB5010858D10108C62B00200C2C00205B
:10F0E000042D0020282F0020842D0020A82F002090
:10F0F000641E0020041F0020A81B0020981B002075
:10F10000A7CA0108FC21002041D101084DD1010806
:10F11000D5D00108DFD00108D4280020B81B00207A
:10F120002E190020214600202E7803F05FF9214699
:10F13000012003F05BF92146022003F057F9304625
:10F1400000F012FE544802F0DBFD214600206D78ED
:10F1500003F038F92146012003F034F9214602205A
:10F1600003F030F9284606F0FDFF4B4802F0A8FDF9
:10F170004A4807F07CF9A20704D5494B2146187884
:10F1800003F034F9630704D5454B2146587803F062
:10F1900019F9444C444B9C4277D30023029A82F8DD
:10F1A00056300DB0BDE8F08F0124F1E50224EFE503
:10F1B0000424EDE572887168B06808F0BFFF14366A
:10F1C000EBE52B78DBB14FF0010869EA070308FA99
:10F1D00006F813EA080F14BF012100212B465A46F6
:10F1E0002046FCF7B1FB67EA090313EA080F5A4609
:10F1F0002B4614BF012100212046FCF7BBFB013642
:10F200004CE698F80030DBB10126AE4019EA060F53
:10F210000AD067EA090333425246434614BF01212C
:10F2200000212046FCF790FB374209D01BEA060F6D
:10F230004346524614BF012100212046FCF79AFBA9
:10F24000013534E60026D0E6434493F8583331467E
:10F250000093164A2B462046FCF776FB144B6A00B7
:10F260009B5C3146984498F85833104A00932046E6
:10F270002B46FCF77FFBE4E62146287803F0B6F83E
:10F280002146687803F09EF875E76288A168606897
:10F2900008F054FF14347DE77DC901080FD101083F
:10F2A000FC210020F8EC0108B8F00108B7CA0108F9
:10F2B000B81B0020904B73B5186809F0A5F88F4C67
:10F2C0000546206809F0A0F80646402005F00CFE2F
:10F2D000002866D1206961794C2800F23183DFE88B
:10F2E00010F04D00530063006A006E007200780059
:10F2F00087008C00910096009B00A000A500B10043
:10F30000BB00C000CB00D000D500DA00E200EA006C
:10F31000F200FA00020177017F01870194019D014B
:10F32000A601AF01B801C101CA01D301DC01E201AC
:10F33000EB01F201F801FE0104020A0211021802B7
:10F340001F0225022B02320239023F0245024B0204
:10F35000510256025B02600265026A027002760286
:10F36000830288028D02920297029C02A2020D0380
:10F37000120317031C03210326032A03604A614971
:10F38000614805F05CFF09E0604B614A0193614B05
:10F39000614900936148624B05F051FF23690133D5
:10F3A0002361002002B070BD5E4B5F4A5F49604838
:10F3B00005F045FFF2E75F4A52495F48E1E75F4ADF
:10F3C00050495F48DDE75F4B5F49B3F900205F4874
:10F3D000D7E705F071FF5E4A5A491288B1F900106B
:10F3E000424392FBF1F20346D2B25A495A48DFE750
:10F3F000574B55491A885948C3E7594B52491A8AFD
:10F400005848BEE7564B50495A8A5748B9E74FF01B
:10F410007E5256495648B4E7B3B2AAB25549564847
:10F42000C6E7B4F8402055495548AAE7554B1B6834
:10F43000DB0404D594F8742050495348A1E70F2306
:10F440002361ABE7514952488B784A78097800919B
:10F45000504905F0F4FEA1E74F4B48491A884F4840
:10F460008FE74A4B9B79012B98D1B4F97830B4F9E6
:10F470007A2040494A489BE74A4B33491A684A4830
:10F480007FE74A4B30499A7849487AE794F87C20DC
:10F490002D49484875E70C2303FB0141464891F884
:10F4A0007E2029496DE70C2303FB0141434891F875
:10F4B0008020254965E70C2303FB0141404891F872
:10F4C0007F2021495DE70C2303FB01413D4891F872
:10F4D00087201D4955E70C2303FB01413A4891F869
:10F4E000812019494DE70C2303FB0141374891F86E
:10F4F0008220154945E700BF00380020FC1F00208E
:10F500005BD501087FDA010867D5010834CE010810
:10F5100039CE01087DC9010875D5010883D50108D8
:10F5200074CE010895C9010889C9010825CE0108D2
:10F5300095D50108E8000020A3D50108142000207B
:10F54000B6D50108C437002074CB0108C1D5010825
:10F5500028370020CCD50108D2D50108DDD5010817
:10F56000E8370020E5D50108F1D5010828D00108C9
:10F57000FDD50108D4D6010808D6010814CE01082B
:10F5800014D60108E43700201BD60108DE2E002027
:10F590002FD6010826D60108FE3700203FD60108E5
:10F5A00047D60108B42B002055D6010812290020A7
:10F5B0005ED601086ED6010880D6010888D60108FB
:10F5C00090D601089CD60108A8D60108B0D601083B
:10F5D0000C2303FB0141964891F886209549D0E61B
:10F5E0000C2303FB01419448B1F888209149C8E6F7
:10F5F0000C2303FB014191F8843091F8832091F8AA
:10F6000085108E4800918E4923E7D4F8A4108D48C8
:10F610004B780A788978009189491AE7D4F8A410C0
:10F6200089480B79CA7849790091854911E7D4F85E
:10F63000A4108648CB798A79097A0091804908E735
:10F64000D4F8A41082488B7A4A7AC97A00917C490E
:10F65000FFE6D4F8A4107F484B7B0A7B897B00919E
:10F660007749F6E6D4F8A4107B480B7CCA7B497C2A
:10F6700000917349EDE6D4F8A4107848CB7C8A7CDD
:10F68000097D00916E49E4E6D4F8A41074488B7D9E
:10F690004A7DC97D00916A49DBE6D4F8A43065490A
:10F6A0001A7E70486DE6D4F8A4106F480B7FCA7EAE
:10F6B000497F00916249CCE6D4F8A4305D4993F8C3
:10F6C00026206A485DE6D4F8A4305A491A8C684866
:10F6D00057E6D4F8A4305749DA8B664851E6D4F897
:10F6E000A43054495A8C64484BE6D4F8A4305149AC
:10F6F0009A8C624845E6D4F8A4304E4993F8272006
:10F700005F483EE6D4F8A4304A4993F82C205D487F
:10F7100037E6D4F8A430474993F82D205A4830E60C
:10F72000D4F8A43043495A8E58482AE6D4F8A43075
:10F7300040499A8E564824E6D4F8A4303D4993F8BF
:10F74000362054481DE6D4F8A4303A4993F83720BF
:10F75000514816E6D4F8A43036491A8F4F4810E6BF
:10F76000D4F8A43033495A8F4D480AE6D4F8A4306F
:10F7700030491A8D4B4804E6D4F8A4302D495A8DEF
:10F780004948FEE594F8A8202A494848F9E594F844
:10F79000A92028494648F4E5464B2649DA784648E8
:10F7A000EFE5444B23491A794448EAE5414B2149A6
:10F7B0005A794348E5E53F4A4249D389424852894C
:10F7C000F6E53C4A3F49138A40489289F0E5B4F88F
:10F7D000AE0007F0CBFD3E4907F01CFE07F0F6FF38
:10F7E000144902463B48CCE594F8B12011493A4807
:10F7F000C7E53A4B0F495A793948C2E594F8C12018
:10F800000C493848BDE594F8CA200A493648B8E59D
:10F81000364B08499A7F3648B3E5344B054993F88F
:10F8200020203448ADE5314B02495A8C3248A8E5D6
:10F83000B9D6010874CB0108C2D60108F1D001087D
:10F84000D1D60108DAD60108E2D60108EBD60108C4
:10F85000F2D60108F9D6010800D7010808D7010837
:10F8600010D7010819D7010812D7010820D70108BD
:10F8700032D701083FD701084AD7010859D70108F4
:10F880006CD7010879D7010887D7010898D70108F4
:10F89000AFD70108C1D70108DBD70108F1D70108AC
:10F8A000FFD7010809D8010816D80108E7E30108C5
:10F8B00027D801081229002034D801083DD80108B2
:10F8C0004FD80108D4D601085FD801086DD80108C7
:10F8D0000000C8427FD801088AD801082A300020D9
:10F8E00097D80108A5D80108B2D80108D42800206B
:10F8F000C8D80108D9D80108F3D80108114B12491A
:10F900001A7A12483DE5124B0F491A79114838E529
:10F910000F4B0D499A78104833E50D4B0A491A8868
:10F920000E482EE50A4B0849DA890D4829E5A279E7
:10F9300005490C4825E5D4F8D02003490A4820E5BC
:10F9400001202FE5D428002074CB01080DD901082F
:10F95000E83700201FD9010830D9010843D9010830
:10F9600052D9010863D901086ED901082DE9F74F72
:10F97000A3EB020B16460E9B0D9A002914BF062519
:10F9800004259B1A01934E4B04465A69894601325D
:10F99000984628D11A69954240F28F80DFF838A145
:10F9A0005AF8220006F072FF0B3005F09DFA074668
:10F9B00018B1012003B0BDE8F08FD8F8101041480D
:10F9C0005AF82120032994BF2146494605F062FCDC
:10F9D0003D4988F8D4700A68101AD8F814200860D5
:10F9E0000132C8F81420DFF8E090D8F814400C9BDE
:10F9F0009C421BDB13D1012005F076FA78B932491D
:10FA00000A200A68013A0A6005F03CFBD8F8102089
:10FA10000132C8F810204FF0FF32C8F81420D8F88F
:10FA20001000854294BF00200120C3E70D9B53B115
:10FA3000019B04FB03F20D9B995C01228A40234940
:10FA400009680A4228D004FB0BF4D8F810203719B3
:10FA500042BB305906F01AFF00F1050A504605F086
:10FA600043FA0028A5D1D9F8000098F8D420A0EBDB
:10FA70000A00C9F80000C2B12C2005F003FBD8F839
:10FA80001020B2B9305905F093FA97F904104B1CC5
:10FA900002D00F4805F0FEFBD8F814200132C8F858
:10FAA0001420A2E74FF0030AD8E7012288F8D420F7
:10FAB000E5E7174439790748ECE700207AE700BF0B
:10FAC000FC1F002077D9010824370020E4370020EC
:10FAD00086D9010874CB01084CB901082DE9F84F0B
:10FAE000374B00251C68374F264604F1300846F88E
:10FAF000040B07F10C0B07F1180AA7F1AC09E85940
:10FB000007F064FE46F8040B55F80B0007F05EFEA4
:10FB1000B06055F80A0007F059FE2B4B7061EB18E6
:10FB2000586808F071FC09EB05039B6B043528F855
:10FB3000020B0C2DA8F80430E1D10025234F04F16D
:10FB4000280657F8250007F041FE0135042D26F858
:10FB5000020BF6D100261E4D04F14407B5F8FC2037
:10FB600005F58279A287B5F8FE20E287B5F8002175
:10FB7000A4F84020B5F80221A4F84220154A92F8D2
:10FB80000080464514DB144B5B88A4F86430D5F83C
:10FB90002831A4F86630D5F85431A3660F4B1B8882
:10FBA000A4F86C30B5F86631A4F85E30BDE8F88F83
:10FBB00059F8260007F00AFE013627F8020BE0E7A5
:10FBC000D8370020D4200020B42B0020982C00200F
:10FBD000FC1F002004380020822C0020D42E00209E
:10FBE00010B50B4C21780B290BD801238B4040F624
:10FBF000030119400BD113F4C06F02D0FF2005F0B0
:10FC000091FB044B1A68044B5A610B23237010BDFF
:10FC1000D6370020D42C0020FC1F002038B5054624
:10FC2000064C206800B938BD4368EB1A002BFADB9C
:10FC30008368236003689847F3E700BFB418002087
:10FC400000231A4630B5084C037219198D79AD0797
:10FC500042BF097981540132D02B03D0072A03F126
:10FC60001003F2DD30BD00BF58C80108002210B5F6
:10FC7000064C04EB02118B7913F0010302D00B79CF
:10FC8000037010BD01320E2AF3D1F9E758C80108FC
:10FC9000142201234270152203708371C271037113
:10FCA0002122837011234271C37070472C2303708B
:10FCB00002234370704708B50B4B182019780023B6
:10FCC0001D460A4C8B4207DB40F2DC50FAF784FBFE
:10FCD000074A084BDA60FEE700FB03F2125902B153
:10FCE00015800133EEE700BF0438002074270020A0
:10FCF0000400FA0500ED00E080B501210220FAF7CA
:10FD0000ABFC144B1B7803F00503052B12D1124BEF
:10FD10000024186807F05AFD104B114F1D7806B2E9
:10FD2000AC4210DB0F4B1B780BB104F0C5FA32204C
:10FD3000FAF75DFB00210120FAF78EFC002108464E
:10FD4000FAF78AFCFEE7304607F010FB47F824007C
:10FD50000134E5E7C50A0020BC2800200438002053
:10FD6000002100204C120020022828BF0220064B50
:10FD7000064A18704E2303FB0023054A0130C0B227
:10FD80001360FBF77DBA00BF00200020EA3200209C
:10FD9000A02000202DE9F04F8BB0FEF7B9FB032621
:10FDA000DFF840914A4FA7EB09071822002104A869
:10FDB0000AF0F5FD474B484ACDF8109005975A6078
:10FDC00002F188325A6001228DF824203422DA6050
:10FDD000424B02221B88694604A8ADF80030F9F7AF
:10FDE00017FC022269464FF6FF70FAF72CF84FF025
:10FDF000000B80463A4CDFF8F0A0544536D300257E
:10FE00000AAC24F8245D0222214604A8F9F700FC7C
:10FE1000022221464046FAF716F840BAC0430222B1
:10FE2000ADF8080002A904A8F9F7F2FB079860B141
:10FE300006ABC0F10402294618440AF0B0FD069949
:10FE400004A8F9F777FB079508909DF82430089AE5
:10FE500023B120490B6943F080030B61013E2DD093
:10FE6000002AA2D1FAF705F850B32CE0658802A960
:10FE7000C5F30B05AB1DADF80830238804A8C3F308
:10FE80000B02ADF80A201B0B06228DF80C308DF802
:10FE90000DB0F9F7BDFB062202A94046F9F7D3FFE2
:10FEA000804661682A4604A8F9F7B2FB61684046BB
:10FEB0002A46F9F7C8FF143480469EE7002AD1D0BD
:10FEC0000520FAF720FCFEF70BFB0BB0BDE8F08F26
:10FED00000000208002002402301674574B90108B0
:10FEE000F8EC010800F80108B8F00108F8B53D4B3E
:10FEF0005A899989914228BF0022198A28BF5A81BC
:10FF0000DA89914228BF0022D97828BFDA8139B135
:10FF1000072905D0012234489A7002700022DA7154
:10FF2000D8799A78002830D0102AB8BF10229A7059
:10FF30002E4A92F857200A2A2BD00C2A0CBF2C4CA0
:10FF40002C4C29B1072903D00A2A14BF2A4C2B4C68
:10FF500000B12B4C2B4DAA78022A97BF2A49284E74
:10FF600001EB82014E682979A9B1013A032A37D8F9
:10FF700031464FF07E5007F001FB08F045FA2B8820
:10FF8000984228BF18462880F8BD032AB8BF03222C
:10FF9000CDE71E4CD5E7987807F0E8F9214607F041
:10FFA00039FA0746104D2C78204607F0DFF939461C
:10FFB00007F030FA0146304607F0E8FB80B13946D9
:10FFC000304607F0DBFA07F001FC1028A8BF10202C
:10FFD0000128B8BF0120C3B29C4298BF04462C70D0
:10FFE000F8BD00BF12290020782000202829002019
:10FFF0000AD7A3396F1203396F12833A0F506E3A42
:020000040801F1
:100000006F120338E837002074B901085304E93847
:100010002DE9F843FEF77CFA194C1A4FDFF86C8093
:10002000BC4235D2184D00E015462E88002E00F057
:100030007181AA19424580F06D81052E40F26A81D6
:1000400023886988C3F30B039942EDD16B799B0731
:10005000EAD16168204695F80490F9F7F2FA23880E
:10006000B9EB133F0AD16388B21FC3F30B039A4263
:10007000A8BF1A46A91D606808F060F81434CFE7DD
:10008000F8EC0108B8F0010802F8010800000208C5
:10009000A54A1178A1F11703022B12D9A34BC8006E
:1000A00013F8314024B11C1864680CB9172414707B
:1000B00003445B782BB19E4B13F831300BB91823F6
:1000C00013709C4B5A78022A84BF00225A705A78C7
:1000D000022A05D80C20984900FB021297490A60B1
:1000E0001A78974E022A84BF00221A701B78022BBE
:1000F0009FBF4E21934A01FB0323336033685A8C20
:10010000998C914224BF00225A848F4B9A78042AFA
:1001100040F0F5809A8AB2F57A7F02D24FF47A7273
:100120009A828A4CFFF7E2FE2368894A1A4012B984
:1001300043F0010323602368D80702D58548F9F707
:10014000B7FA2368590402D58348F9F7B1FA23684E
:100150001A0702D58148F9F7ABFA23689B040FD53B
:100160007F48F9F7A5FA4FF40040F9F7A1FA7D4B63
:1001700040209A79012A04BF00229A71F9F798FA6F
:100180000025794F2C46B9464FF0FF08EA5B53082B
:1001900003F07733900800F03330D31A1B1AD008DD
:1001A00000F011301B1A03EB231303F00F3393FB02
:1001B000F8F012F00101C0EB002018BF0134A3EBEE
:1001C000000318BFE4B2012B0DDD022B40F0A78025
:1001D00011B112F42F7F06D109EB050003F0F6F8F8
:1001E000002800F09C800835202DCFD1013C022C46
:1001F00000F295808020F9F75BFA4FF40070F9F770
:1002000057FA4FF40030F9F753FA4FF48020F9F71A
:100210004FFA4FF40010F9F74BFA4FF00070F9F76E
:1002200047FA4FF08060F9F743FA4FF00060F9F7B2
:100230003FFA4FF00050F9F73BFA4C4B1B78012B7B
:1002400005D84B4BDA78022A04BF0122DA7006F097
:10025000CDF93022002147480AF0A1FB3068FEF7B3
:10026000B3F9002006F038F9434A444B117964226F
:1002700080F001004A4318703468414BC8321C605A
:10028000404B5A6000229A60DA601A615A619A61A2
:10029000DA6183F8202083F821203B4B3B4A13602E
:1002A00033F8062C3A4B1A803A4B5B6B0BB1FCF7D8
:1002B0002DFE394D394B28881E8807F057F83849EC
:1002C00007F0A8F8374C6060688807F04FF83449A9
:1002D00007F0A0F86B79344A23722B79206063729F
:1002E000324B30461A6007F041F80146304807F0BB
:1002F00045F9304B1860BDE8F843FEF7F1B8002A25
:100300007FF40FAF1A88B2F5F07F84BF4FF4F0721C
:100310001A8006E761682046F9F793F9AEE61248BD
:10032000FAF78AFB66E700BF8C210020E0B10108E4
:10033000FCB00108002000207A2000206C3C002046
:10034000A0200020EA320020E8370020CC20002046
:10035000096000020860000209200002016000023A
:1003600009400002DE2E0020C62B0020C40A002017
:10037000AA2000204C140020F031002000000020B2
:1003800080140020F02E0020B02000203C3C0020F3
:100390008C150020282000200C220020C0100020F6
:1003A00017B7D138AC3100203661023DD83100207A
:1003B000C0C9FB48C410002008B5FFF7EBFCFFF7ED
:1003C00027FEBDE808400120FAF75ABF38B50D4CAA
:1003D0000D4DAC420FD3F9F79CFD00220B4B0C489E
:1003E0001A705A700B4B0C4A0C491A60BDE8384021
:1003F000086004F0F7BB61682046F9F722F914346D
:10040000E7E700BFF8EC0108B8F001080020002081
:10041000EA3200206C3C00207A200020A02000203E
:1004200070B50C2948D8DFE801F00747474748472F
:10043000474784474747BE00038C158823F00103D4
:100440001B041B0C0384038C8488018B23F00203A0
:1004500021F073010904090C2943568815891B04EE
:1004600035431B0C2B43674DA4B2A8429BB20FD05F
:1004700005F50065A8420BD005F54065A84207D0F8
:1004800005F58065A84203D005F58065A8420ED128
:10049000558923F008032B43958823F004032B434D
:1004A000D689958924F4407435432C43A4B2D2886C
:1004B000848001838286038470BD038C148823F0BA
:1004C00010031B041B0C0384038C8588018B23F011
:1004D000200321F4E6410904090C41EA042156886D
:1004E00014891B0434431B0C43EA0413454CADB27E
:1004F000A04289B29BB203D004F50064A04213D19C
:10050000548923F0800343EA04134FF6BF741C4060
:100510009388D68944EA0313948925F440653443CB
:1005200045EA84059BB2ADB2D288858001830287FB
:10053000C1E7038C148823F480731B041B0C038411
:10054000038C8588818B23F4007321F073010904E7
:10055000090C2143568814891B0434431B0C43EABD
:100560000423284CADB2A0429BB203D004F5006432
:10057000A04213D1548923F4006343EA04234FF6C5
:10058000FF341C409388D68944EA0323948925F4D8
:100590004055344345EA04159BB2ADB2D2888580FC
:1005A0008183828787E7038C158823F480531B049B
:1005B0001B0C0384038C8488818B23F4005321F467
:1005C000E6410904090C41EA0521568815891B04F6
:1005D00035431B0C43EA05330A4DA4B2A84289B245
:1005E0009BB203D005F50065A84205D1958924F496
:1005F000804444EA8514A4B2D28884808183A0F820
:10060000402058E7002C014030B598B10A4B002239
:100610001C461D79854207D19D79294202D004EB01
:10062000021030BD0029FAD001320E2A03F1100366
:10063000EFD1002030BD00BF58C801080149024871
:10064000F9F776BD543B00200008004001490248FC
:10065000F9F76EBD2C3B00200004004002494FF02A
:100660008040F9F765BD00BF043B00200149024806
:10067000F9F75EBDDC3A0020002C0140FFF7F6BF21
:10068000426A806A131A5842584170474171704754
:1006900043799B070AD5436A8269D154436A016949
:1006A0000133B3FBF1F201FB12334362704743792C
:1006B00013F0020308D00369426A806A013B101AF2
:1006C0001840C0B2181A704718467047437913F0A3
:1006D00001031FBFC369026AC0689B1A1ABF00F1F9
:1006E000FF3018401846704710B54379014613F0A3
:1006F00001030ED0FFF7EAFF60B10B6A4A69CC68CC
:10070000D05C0133B3FBF4F204FB1233C0B20B62D2
:1007100010BD184610BD90F8433230B53BB90124E6
:1007200090F8411290F84232DAB2914200D830BDCE
:10073000B0F84A5204FA03F22A43A0F84A220133DD
:10074000F2E7836B19685A79012393400A8C9BB2B4
:1007500092B222EA03020A840A8C92B213430B84F7
:10076000704738B5A0F517746379A579DB0744D5D0
:1007700094F840321BB3A06B0268938DC3F34E0311
:10078000938494F85132012B07D094F8453223B169
:10079000B4F84C320133A4F84C32E94301F00101C2
:1007A00002F07EFA012384F84332002384F84132B8
:1007B00084F8423284F84032A4F84A3238BD94F8C2
:1007C00043322046012B04BF94F8413284F8423270
:1007D000FFF7A1FF94F843324BB90123E94384F8B2
:1007E00043321940A06BBDE8384002F059BA0023EB
:1007F00005F0010184F84332F4E738BD10B5837980
:100800000446DB07006B4CBF2A214A21F9F7C2FEE0
:10081000012384F8443284F840320023204684F8CF
:100820004132BDE810408CE7084B10B41A681346FB
:10083000B3FBF1F4B4F5803F03D3012BFAD95B0885
:10084000F6E7A1B210BCF9F7D7BC00BF200000202A
:100850008160806BE8E78379406BDB0744BFB1FAC6
:1008600081F1490909B1F9F7BCBEF9F7B5BE10B578
:10087000A0F5157463799A0714D594F84522002AD7
:1008800059D1A36A616A994221D194F844324BB993
:10089000A3791B0706D5606B0621F9F77BFE20467E
:1008A000FFF7ACFF6379D90740F1998094F84032A3
:1008B000002B40F0948094F841320133DBB2092BD5
:1008C00084F841324DD12046BDE8104023E7591C41
:1008D000A069A162C35C2069DBB25B0043F40073D2
:1008E000A4F848320A2381424FF0010184F84632CD
:1008F00094F8443228BFA26284F84512002BD1D06C
:10090000A3791807CED5A06B02684079138C81407B
:100910009BB223EA01031384138C206B9BB21384D4
:100920000621F9F737FE0023122184F84432606B68
:10093000F9F730FEB6E794F946327BB1B4F84812C5
:1009400020464B08A4F8483201F00101FFF783FF6D
:1009500094F84632013B84F84632A3E784F84532E6
:10096000A0E70A2B3BD194F843322BB9B4F84A32B2
:1009700043F00103A4F84A32B4F84A02820501D4D4
:10098000C3071AD4B4F84E320133A4F84E32012210
:10099000002384F8402294F8432284F84132012A4B
:1009A0001DD1A179A06B84F8433201F0010102F05E
:1009B00077F92046BDE81040C3E6E36AC0F347007C
:1009C0000BB19847E3E7E3696269D054E369E168F2
:1009D0000133B3FBF1F201FB1233E361D7E710BD42
:1009E00008B50A4A1378D9070FD523F0010313700D
:1009F000074B9B780BB1FFF7F3F80020F9F700FEE7
:100A0000BDE808400420FAF7A3BB08BD842E0020EF
:100A1000283700202DE9F041724C2378DF0705D5F7
:100A2000BDE8F04101210020F9F716BE6E4D2B887C
:100A30001E060BD56D4B1A686D4B19794FF47A73FE
:100A40004B43934202D8802005F010FF694A6A4E5A
:100A5000137890467BB9694A30781778002840F0BF
:100A60008C803FB105F072FD002800F08F800820D7
:100A700005F004FF37701B2005F068FD002800F02A
:100A80008980102005F0FAFE05F074FD002800F0C2
:100A90008580202005F0F2FE594B1B78180700F1E5
:100AA0008180232005F052FD00287BD1402005F0F5
:100AB000E5FE544B4FF400701B88642B76D905F08B
:100AC000DDFE514B1B68590701D5728842B9B288C7
:100AD0000AB19A0704D44D4BB3F8B430002B68D058
:100AE0004FF4806005F0CAFE242005F0F5FC58B1F3
:100AF000242005F02BFD002860D023785B075DD40F
:100B00004FF4807005F0B2FE98F800303BBB404BCC
:100B10001C782CB12C8824F40444B4FA84F46409BD
:100B20003C4B186810F480500BD01D2005F00EFDD2
:100B3000002848D147F6DF702B881840B0FA80F0C3
:100B400040092B88002B40D0002C3ED100283CD1FE
:100B500005F0FCFCC8B34FF4004005F08FFE2B8875
:100B600003B10223B371F9F7EFFBB368C01A002891
:100B700035DBBDE8F041FAF72BB8002F3FF47AAF30
:100B8000184605F0E3FC00287FF474AF082005F058
:100B90006DFE6FE7102005F069FE75E7202005F077
:100BA00065FE79E7402005F061FE82E705F05EFE14
:100BB00087E74FF4806005F059FE95E74FF48070A9
:100BC00005F05CFEA0E70020BBE7002005F0BEFCBE
:100BD0000028C4D14FF4004005F048FEBFE7BDE84F
:100BE000F08100BF842E0020142F0020D42C002080
:100BF00000200020000000201C220020852E002064
:100C000065150020301C00208821002028290020A4
:100C1000C62000200029002070B5324D2B783BB152
:100C2000314C237823B93148FCF7D4F801232370E1
:100C3000FFF7F0FE2E4B1A882ABB2E4E3478E307BE
:100C40004FD444F003032420337005F045FC10B169
:100C500044F0070434700A22274B4FF47A70B3F93A
:100C6000043093FBF2F3254A1380254B254A19687B
:100C7000AB7800FB0313D360002305201361BDE8AC
:100C80007040FAF765BA184B1B781BB11E4BB3F8CE
:100C9000B43033BB92FAA2F3002AB3FA83F308BF4D
:100CA0004FF0FF33174A013311698B4219D013619A
:100CB000DBB29B00402BA8BF4023002214260A2051
:100CC000052512495418565404326070A5709A4292
:100CD00002EB010404F8010CF4D3FF230E208B5423
:100CE000CDE770BDC620002064110020DC29002063
:100CF000142F0020842E0020C431002090100020EA
:100D0000D42C00201C22002028290020B81F0020FD
:100D10002DE9F04F4FF4187487B099469DF8403094
:100D2000804E019300F10A033344009293F8E024CB
:100D30000391444300210546104693F8D4A402923F
:100D4000FFF762FC002105905046FFF75DFC029A18
:100D500080461046F9F7F8FB04905046F9F7F4FB8B
:100D6000019B06F1140713F00803029307EB040B31
:100D7000049A059B00F09C80B8F1000F03D100207D
:100D800007B0BDE8F08F98F807305B07F7D4331948
:100D9000C3F84C809864586405F10B03DBB210B1C2
:100DA0000B22C37182714FF418784FF0000A4FF490
:100DB000807208FB05685C4BC8F82020C8F8143026
:100DC000009BC8F82420C8F81C309DF80430009916
:100DD00088F81A30039BD8F84C00C8F8403004F16A
:100DE00040033B44C8F8283004F5A0733B44C8F8DE
:100DF0002C3088F81990C8F834A0C8F830A0C8F88A
:100E00003CA0C8F838A088F86452A8F860A2A8F8F6
:100E100062A288F858A288F859A2FFF705FD019B45
:100E2000D8F84C0003F0010101F03AFF3F4A04F505
:100E30001773C8F870223E4A04F5157419F0020FB2
:100E40003B44C8F868222744C8F86CA25FD0D8F8A1
:100E5000500000285BD0D8F84C10026809688A421C
:100E600055D00122009988F865220193FFF7DCFC38
:100E70003A465146D8F85000F9F712FA019B52460B
:100E80001946D8F84C00F9F70BFA029B5BB94FF4FE
:100E9000187303FB05651221A86CF9F77BFB012190
:100EA0005846FFF7D8FC5846FFF7A8FC584667E7B6
:100EB00019F0010E10D0002B3FF461AFD97949072A
:100EC0003FF55DAF3119CB6405F10B034A64DBB22A
:100ED00012B10C21D371917119F0020F3FF463AF7D
:100EE000BAF1000F3FF44BAF4FF418730D4A03FBF8
:100EF00005239864BEF1000F06D1B8F1000F3FF44E
:100F00003EAFC3F84C8047E7C3F8508044E74FF446
:100F10001870002200FB0560194680F865223A46E9
:100F2000C06CB0E71C22002084B9010863070108E7
:100F30006F0801081FB50123ADF808300023ADF894
:100F40000C30ADF80A30094BADF8041093F8F834C2
:100F500001A9012B08BF0323ADF8062008BFADF897
:100F60000C3001F085FD05B05DF804FB1C2200206B
:100F70002DE9F04F00220025624B634EB3F80AC002
:100F800087B034684FEA0C2A05901889B4EB0A0A36
:100F900065EB020BA0FB0A4500FB0B55B3F8048080
:100FA000E00940EA45604FEA08440719D8888E46B0
:100FB0004FEAE511A0FB0A4500FB0B5541EB020887
:100FC000CDE90278B3F80280200A40EA05604FEAD2
:100FD000C83410EB04084FEA252141EB02099A8935
:100FE000B446A2FB0A0102FB0B11C20D42EA4122E8
:100FF00012F5FA604FEAE15343F10001B0F5FA6FE0
:10100000CDE9000171F100015DDADDE90267052437
:10101000A2FB040104FB031100FB03F402FB0144E7
:10102000A0FB020121444D104FEA3004361B4FEA69
:10103000900467EB050744EA81748D104FF0FF318F
:101040003248B8EB040869EB0509DDE90045844244
:1010500075EB0101CDE9026722DA40F6AC500021C0
:1010600012184B4102FB03F1A2FB022303EB4103E5
:10107000D900D000101A41EA527163EB0101341813
:1010800047EB0105CDE902450B24A2FB040104FB5B
:10109000031149104FEA3000B8EB000869EB010971
:1010A0000AFB0BF3DDE90001AAFB0AAB0BEB430BD8
:1010B0004FEADA7242EA4B02801A4FEAEB7361EBB5
:1010C0000301CDE90001DCF80410A1FB082301FBBA
:1010D0000933540D44EAC3245D15DDE90223A21A45
:1010E00065EB03031D46D30B059A43EA454302B162
:1010F0001360BEF1000F02D0009BCEF8003007B0A5
:10110000BDE8F08F201600203C27002024FAFFFFC6
:101110002DE9F74F6A4CDFF8ACE123880091DEF847
:101120000810B4F90480C3EB211252435B00C3EBF7
:10113000E103B4F9021005465943131308FB03F801
:101140004FEAA83808EBE12101EB8102B1F5FA384A
:1011500002F180024FEAE1794FEA222349F1FF3997
:10116000B4F90820A8FB08AB019308FB09F3A161BF
:1011700002FB09F10BEB430BD31708FB0311A2FB96
:1011800008230B441F03160347EA1257B4F90A2039
:1011900002FB0BF1D3170AFB0313A2FB0A0119444C
:1011A000020A42EA016292194FEA2123E6887B4152
:1011B0000032A2FB060143F5004306FB03114A106F
:1011C000CB1752EA03016FD0B4F91060B4F90E00E6
:1011D00006FB0BF1F7170AFB0711A6FB0AAB00FB96
:1011E00009F68B44C11708FB0161A0FB08898944FB
:1011F000DEF80C104FEA4846C1F5801E1AEB060ACD
:1012000076464FEA494747EAD8374BEB070BF717C3
:101210000026F90741EA5E014FEACE7040F6354EEE
:10122000B4F90C8016EB0A064FEAC80747EB0B0728
:10123000861B61EB0707A6FB0E010EFB071106F0EC
:101240000BFBB4F916204E1302FB06FE470B47EAD0
:10125000C147D31707FB03EEA2FB07235643734492
:1012600007FB0366A2FB07233344560E46EAC31668
:101270003218B4F914604FEA636747EB0103714316
:10128000F71700FB0717A6FB00013944C60C46EA16
:10129000413692194FEAE147B4F912607B41100AD6
:1012A00040EA0360320112180DB1120A2A60009B55
:1012B00013B11A46019B136003B0BDE8F08F00BF65
:1012C000341600203C270020704770474FF400631D
:1012D000838270474FF400638382704790F8203018
:1012E00013B1012B04D070474FF4806383827047A1
:1012F0004FF40063FAE737B502230C46C56D01AA27
:101300001B211430A84760B14FF48C72BDF8043033
:101310005BBA9BB203F54E53103393FBF2F32333C6
:10132000238003B030BD37B506230446C56D6A4639
:101330001D211430A847B0B101209DF800209DF870
:10134000013043EA0223A3879DF802209DF8033071
:1013500043EA0223E3879DF804209DF8053043EA21
:101360000223A4F8403003B030BD37B5062304464D
:10137000C56D6A4643211430A847B0B101209DF8DD
:1013800000209DF8013043EA0223A3879DF8022044
:101390009DF8033043EA0223E3879DF804209DF87B
:1013A000053043EA0223A4F8403003B030BD37B51E
:1013B00006230446456A6A463B210830A847A8B17F
:1013C00001209DF800209DF8013043EA0223E382CA
:1013D0009DF802209DF8033043EA022323839DF801
:1013E00004209DF8053043EA0223638303B030BD37
:1013F00013B50446C069F9F7EFF86A4607231049A8
:10140000A069F9F7BBF9E069F9F7EBF801209DF85D
:1014100001209DF8023043EA0223A3879DF80320B0
:101420009DF8043043EA0223E3879DF805209DF8E8
:10143000063043EA0223A4F8403002B010BD00BFDA
:10144000ACB90108134601200A466821F5F7ECBA49
:1014500007B5012000920A466821F5F791F903B01B
:101460005DF804FB70B5044604F11405F4F7CAFEF8
:10147000236E80226B21284698476420F8F7B7FF37
:10148000236E03226B2128469847236E94F854203C
:101490001921284698470F20F8F7A9FF236E94F8E2
:1014A00052201A2128469847236E18221B212846CD
:1014B0009847236E18221C2128469847236E022243
:1014C000372128469847236E2846BDE87040012200
:1014D0003821184738B5044604F11405F4F792FE94
:1014E000236E80226B21284698476420F8F77FFFFF
:1014F000236E07226821284698476420F8F777FF73
:10150000236E00226B21284698476420F8F76FFF6E
:101510000122236E6B21284698470F20F8F767FFBA
:1015200094F853301B21032B8CBF1A221822236EF0
:10153000284698470F20F8F75AFF236E18221C21DF
:10154000284698470F20F8F752FF236E94F8522050
:101550001A21284698470F20F8F749FF236E94F880
:1015600054201921284698476420F8F740FF236E3D
:1015700010223721284698470F20F8F738FF236EAE
:101580002846012238219847BDE838400F20F8F757
:101590002EBF10B5044680218069F9F7CEF80120EE
:1015A000F8F71AFF2046FFF795FF10226A2104F191
:1015B0001400F9F744F96420F8F719FFA069022133
:1015C000F9F7BBF8BDE810400120F8F705BF70B58A
:1015D0000446192004F11405F8F709FF236E0022D0
:1015E00015212846984710B90220F9F78CF894F88D
:1015F0005220236E42F01802162128469847236E87
:101600000022172128469847236E01223D212846B3
:101610009847236E2846BDE8704001223E211847B6
:1016200010B50A4B0A4A1B7842609C18094A0460AC
:10163000127893429DBFD31A0B600023C3F180033D
:1016400092BF4B600B604A6010BD00BF3D37002069
:101650003E3700203C370020054B1878054B1B789F
:10166000984236BFC3F18003C01AC018704700BF4C
:101670003C3700203D37002037B5124D2878D8B1CF
:1016800005238DF8003000238DF8013000BF0E4C8B
:1016900023689868F8F7A0FF206801AA694602232A
:1016A0004068F9F76BF823689868F8F79AFF00BF6D
:1016B0009DF8050000F00100287080F0010003B0E3
:1016C00030BD00BF8B0F0020780F002070B506469C
:1016D000044C2568FFF7D0FF18B923685B1BB342A1
:1016E000F8D970BDD42C00200023F7B500938DF8F5
:1016F000043003231C4D16462A780F468DF800301F
:101700006AB3030E8DF801300DF10203020C1A705A
:10171000020A98705A700620FFF7D8FF10B300BF76
:10172000124C23689868F8F757FF2B782068002B35
:1017300014BF05230423694600224068F9F71EF808
:10174000206833463A4600214068F9F717F82368C5
:101750009868F8F746FF00BF304603B0F0BD0DF1C2
:101760000103D3E70646F7E78A0F0020780F002031
:1017700038B5054600BF084C23689868F8F72CFF79
:10178000236829465868F9F727F823689868F8F716
:1017900028FF00BF38BD00BF780F00202DE9F04FB3
:1017A00089B0039300238146049105920193059A21
:1017B00093420CDB039B002B40F0A580FFF75CFFFE
:1017C000002840F0A080039809B0BDE8F08F049A8B
:1017D000019952F82320013311440191E7E7069261
:1017E0008DF81C2002228DF81820484A1278002A11
:1017F00070D01A0E8DF819200DF11A02190C117003
:10180000190A517093700620FFF760FF0620FFF75A
:10181000AFFF01223E4B1A7000BF0027C846DFF819
:10182000F4A0DAF800309868F8F7D6FE374BDAF80B
:1018300000001B780022002B14BF0523042306A9F7
:101840004068F8F79BFF049C029E059B9F4217DAB5
:1018500023684FEA870B002B50D09E423DD8DAF820
:1018600000003346002259F80B104068F8F786FF55
:1018700059F80B30334449F80B3023689E1B26601F
:10188000244B1B689868F8F7ACFE00BF029B029AD5
:10189000ED1A214B1B6813441F4A1360039BB3B11D
:1018A000ADB11D4B1B68DAB2A918B1F5807F84BFBA
:1018B000C2F580720292194A98BF029592689342CB
:1018C0004FF000028BD3164B1A70164B1A70019B07
:1018D000581B79E70DF1190290E70E4AD8F800106D
:1018E000106800224068F8F749FF2268D8F80030F5
:1018F000B61A1344C8F800300023236001370434BB
:1019000008F10408A1E7019DCAE700BF8A0F002083
:101910008B0F0020780F002038370020140400209F
:101920003C3700203D37002008B545F20820FFF77E
:10193000CDFE0620FFF71CFF0122064BC7201A70C0
:10194000FFF716FF0023044A1370044A1370044A79
:10195000136008BD8B0F00203C3700203D3700206E
:101960003837002013460278012A05D10A4641790A
:1019700090F90400F5F758B800207047012248217B
:10198000F0E701225821EDE73122F421EAE737B5EB
:101990000D460178044601290DD190F90400411C3F
:1019A00009D0022807DC0093617913462A46F4F730
:1019B000E7FE03B030BD0020FBE707B5032201AB13
:1019C0000021FFF7E4FF9DF805309DF804001B029D
:1019D00043EA00439DF80600184303B05DF804FB9A
:1019E00008B5FFF7EAFF014B586008BD3C2700200F
:1019F00008B5FFF7E2FF014B186008BD3C27002047
:101A000007B506226B46F721FFF7C1FF9DF80130AD
:101A10009DF800101B0143EA01339DF80210094AAA
:101A200043EA1113D3609DF804309DF803101B01A5
:101A300043EA01339DF8051043EA1113936003B0A4
:101A40005DF804FB3C2700202DE9F84F0024804678
:101A500025464FF00D0ADFF85090DFF850B00AFB32
:101A6000049637684146384609F02AF878B1394675
:101A70005846F9F73BFD00213046F9F7D9FE04F04E
:101A80000FFD3046F9F732FE04F00AFD013501344E
:101A9000BA2CE4D125B9BDE8F84F024804F016BDD0
:101AA000BDE8F88F7FCD0108B4B901089DCB0108CE
:101AB0002DE9F74F804604F0E9FE054628B10128DC
:101AC00020D198F800302A2B1CD1774804F0FEFC76
:101AD00000244FF00D09DFF8D881744F09FB04860C
:101AE00038463168F9F702FD291C18BF012130463C
:101AF0000134F9F79DFE04F0D3FCBA2CEED103B00B
:101B0000BDE8F08F3D21404608F07EFF002800F040
:101B1000C680064616F8013C721E202B48D0A6EB64
:101B200008060130044623780130202BFAD0002724
:101B30000D23DFF87CA1F6B203FB07A5D5F80090D2
:101B40000193484604F0A2FE4946024683464046B9
:101B500008F068FF019B8146002840F09680B3455D
:101B600040F093802B7903F03003102B22D0202BF0
:101B700051D08BBB204606F0B9FAB5F9053001B259
:101B80008B4229DCB5F907308B4225DB2846F9F773
:101B900004FC0D23464A474803FB07273968F9F739
:101BA000A5FC0021284603B0BDE8F04FF9F740BE80
:101BB0001646AFE706468146834695F805803C4BBE
:101BC00003EBC80898F878A9564502D2B9F1000F7E
:101BD0000BD0BBF1000FDCD1374804F077FC28466E
:101BE00003B0BDE8F04FF9F781BDD8F8743921464C
:101BF00053F8260008F0DBFE00280CBF4FF0010967
